:020000040800F2
:10000000900700246D030008A32300087522000850
:10001000A123000863050008392E00080000000035
:10002000000000000000000000000000652600083D
:100030006505000800000000A523000867260008E9
:100040008703000887030008870300088703000868
:100050008703000887030008870300088703000858
:100060008703000887030008870300088703000848
:100070008703000887030008870300088703000838
:100080008703000887030008870300088703000828
:100090008703000887030008870300088703000818
:1000A0008703000887030008870300088703000808
:1000B00087030008870300088703000887030008F8
:1000C00087030008870300088703000887030008E8
:1000D00087030008870300088703000887030008D8
:1000E000870300088703000800000000870300085A
:1000F00087030008870300088703000887030008B8
:1001000087030008870300088703000887030008A7
:100110008703000887030008870300088703000897
:100120008703000887030008870300088703000887
:100130008703000887030008870300088703000877
:1001400000000000000000000000000000000000AF
:100150008703000887030008870300088703000857
:100160008703000887030008870300088703000847
:1001700087030008870300088703000800000000C9
:100180008703000887030008870300088703000827
:100190008703000887030008870300088703000817
:1001A0008703000887030008870300080000000099
:1001B00087030008870300088703000887030008F7
:1001C000870300088703000800000000000000000B
:1001D000000000000000000087030008000000008D
:1001E000000000000000000000000000000000000F
:1001F00000000000000000008703000887030008DB
:100200008703000887030008000000008703000838
:100210008703000887030008870300088703000896
:1002200087030008000000008703000800000000AA
:100230008703000887030008000000008703000808
:100240008703000887030008870300088703000866
:100250008703000887030008870300088703000856
:100260008703000887030008870300088703000846
:1002700087030008870300088703000800000000C8
:100280008703000887030008870300088703000826
:10029000000000008703000887030008000000003A
:1002A0000000000087030008870300088703000898
:1002B00087030008870300088703000887030008F6
:1002C00087030008870300088703000800F002F88E
:1002D00000F03CF80AA090E8000C82448344AAF1A4
:1002E0000107DA4501D100F031F8AFF2090EBAE8A2
:1002F0000F0013F0010F18BFFB1A43F0010318475A
:1003000088300000A8300000103A24BF78C878C1B7
:10031000FAD8520724BF30C830C144BF04680C600B
:10032000704700000023002400250026103A28BF53
:1003300078C1FBD8520728BF30C148BF0B60704757
:100340001FB502F0FFFE1FBD10B510BD00F0CFF8C5
:100350001146FFF7F5FF02F0EBFD00F0EDF803B4F6
:10036000FFF7F2FF03BC00F0F5F8000009488047F2
:1003700009480047FEE7FEE7FEE7FEE7FEE7FEE787
:10038000FEE7FEE7FEE7FEE704480549054A064B9F
:100390007047000005270008CD02000890010024E6
:1003A00090070024900300249003002453EA020CD9
:1003B00000F069802DE9F04B4FF00006002B1FBFC5
:1003C000B3FA83F503FA05F424FA05F65E4012BF8A
:1003D0001643B2FA82F502FA05F4C5F120051EBFF4
:1003E00022FA05FC44EA0C04203556EA044C4FEA94
:1003F000144418BF641C4FF000084FF000099042ED
:1004000071EB030C39D3002919BFB1FA81F701FA56
:1004100007F6B0FA80F700FA07F6C7F120071EBF0B
:1004200020FA07FC46EA0C062037B6FBF4FCA7EBE3
:100430000507103F07F01F0BCBF120060CFA0BFB52
:100440002CFA06F644BFB3460026202FA4BF5E4612
:100450004FF0000B5BEA060C08BF4FF0010B19EBE5
:100460000B09ABFB027C48EB0608C01B06FB02CC69
:100470000BFB03CC71EB0C01C1E70B460246414676
:100480004846BDE8F08B13B54FF000004FF0000177
:10049000AFF30080BDE81C4070474FF0000200B58C
:1004A000134694469646203922BFA0E80C50A0E897
:1004B0000C50B1F12001BFF4F7AF090728BFA0E845
:1004C0000C5048BF0CC05DF804EB890028BF40F811
:1004D000042B08BF704748BF20F8022B11F0804F53
:1004E00018BF00F8012B704770477047704775467A
:1004F00000F02CF8AE4605006946534620F0070090
:10050000854618B020B5FFF73FFFBDE820404FF00B
:1005100000064FF000074FF000084FF0000B21F0ED
:100520000701AC46ACE8C009ACE8C009ACE8C009BA
:10053000ACE8C0098D46704710B50446AFF30080A3
:100540002046BDE81040FFF70ABF00000048704792
:100550002C01002401491820ABBEFEE72600020052
:100560007047FEE7704772B6FEE7000070B50446BC
:1005700000F02AF90546601C02D0044800780444C3
:1005800000F022F9401BA042FAD370BD0000002405
:100590002DE9F84F03247A4D00234FF001094FF065
:1005A000B04B4FF00F0AE4E009FA03F6324078D07E
:1005B0000F7907F00307012F01D0022F1AD18768A6
:1005C0004FEA430ED1F80CC004FA0EF827EA0807E8
:1005D0000CFA0EFC4CEA070CC0F808C0476891F80A
:1005E00004C0B743CCF3001C0CFA03FC4CEA070C24
:1005F000C0F804C00E79F643B6070BD0C6684FEAC0
:1006000043088F6804FA08FC26EA0C0607FA08F784
:100610003743C7600E7906F00306022E12D1DE08BA
:100620000F694FEA437C00EB8606B646366A4FEA0E
:10063000DC6C0AFA0CF807FA0CF726EA08063743CE
:10064000CEF820700F7906684FEA430807F00307D9
:1006500004FA08FC07FA08F726EA0C063743076095
:100660004E6816F4403F1CD0464E376847F00207EC
:10067000376036689F0706F00206009623F00306EF
:1006800006F1B046B6463F0FD6F80864DFF8F880AA
:100690000AFA07FC404526EA0C0603D14FF0000C8D
:1006A0003AE065E0DFF8E4C0604502D14FF0010CAC
:1006B00032E0DFF8DCC0604502D14FF0020C2BE0E5
:1006C000DFF8D0C0604502D14FF0030C24E0DFF822
:1006D000C8C0604502D14FF0040C1DE0DFF8BCC07B
:1006E000604502D14FF0050C16E0DFF8B4C060455C
:1006F00002D14FF0060C0FE0DFF8A8C0604502D130
:100700004FF0070C08E0DFF8A0C0604502D14FF0C1
:10071000090C01E04FF00A0C0CFA07FC4CEA060C3D
:10072000CEF808C44F68DBF80060FF0226EA020634
:1007300000D516435F46CBF80060D1F804C0DBF863
:1007400004605FEA8C2C26EA020600D516437E6020
:100750006E684F6826EA0206BF0300D516436E6036
:100760002E684F6826EA0206FF0300D516432E6066
:100770005B1C0A6832FA03F67FF416AFBDE8F88F07
:1007800080000058F4440258000002580004025847
:1007900000080258000C02580010025800140258B9
:1007A00000180258001C025800240258426921EA2D
:1007B00002030A4043EA0241816170470AB1816144
:1007C00070470904FBE7000001488068704700009B
:1007D000000000240248816802781144816070475B
:1007E00000000024032010B500F078F801F01AF89A
:1007F0000F4A104914681368C4F3032203F00F036F
:100800008A5CC95C02F01F0201F01F01D0400A4A55
:1008100020FA01F11160094908600F2000F010F87A
:1008200008B1012010BD00F02BF8002010BD000021
:100830001844025876330008100000240C000024ED
:1008400070B50D4D04462878A0B14FF47A71B1FB14
:10085000F0F00A490968B1FBF0F001F059FB48B922
:10086000102C07D200222146501E00F017F800205D
:100870006C6070BD012070BD000000240C000024DD
:10088000054808B5016841F002010160006800F008
:100890000200009008BD0000F44402580E4BF0B472
:1008A0001B680D46C3F30223C3F10706042E00D9CB
:1008B0000426191D072901D2002300E0DB1E0124B4
:1008C00004FA06F19C40491E2940641E99401440D8
:1008D0002143F0BC02F0B1BA0CED00E0064900F093
:1008E000070210B54FF6FF040868044B204040EAA9
:1008F00002201843086010BD0CED00E00000FA056E
:10090000134970B50A68D243520705D5096801F04A
:100910000701814213D118E00A6822F0070202435E
:100920000A60FFF751FF0A4D4FF47A760446083DFE
:1009300007E000BFFFF748FF001BB04201D90120CC
:1009400070BD2868C0438004F4D4002070BD00004E
:100950000C48025810B500F01FFF05490968054A08
:10096000C1F30211515C01F01F01C84010BD00002D
:100970002044025876330008494930B5484C0B1DD5
:100980000A68143409681D68246802F00303C5F37B
:100990000012C1F30531C4F3CC04002914FB02F2A8
:1009A00000EE102AF8EE400A75D03F4A9FED3D1A3E
:1009B000B7EE000A6BB1DFED3D1A012B01D0022B1F
:1009C00064D002EE101A1168F8EE422A81EEA22AD3
:1009D00021E0334C283C23689B0612D5344B246815
:1009E00001EE901A1168C4F3C104F8EE612AE340E5
:1009F00001EE903AC1F30801F8EE611A81EEA22AE5
:100A00000BE001EE901ADFED2B2A00BFF8EE611A21
:100A1000116882EEA12AC1F3080101EE901A116853
:100A2000F8EE611A40EE811A71EE800A62EE200A39
:100A3000C1F3462101EE101AB8EE411A31EE001A48
:100A4000C0EE811ABCEEE11A80ED001A1168C1F304
:100A5000064101EE101AB8EE411A31EE001AC0EE4E
:100A6000811ABCEEE11A80ED011A1168C1F306612A
:100A700001EE101AB8EE411A31EE000A80EE801A2B
:100A8000BCEEC10A80ED020A30BD04E001EE901A0E
:100A9000DFED092ABAE70021016041608160F3E7D8
:100AA0002844025800000039384402580024744A8F
:100AB0000090D0030024744C001BB74B494930B55B
:100AC000484C0B1D0A681C3409681D68246802F034
:100AD0000303C5F30022C1F30551C4F3CC0400297C
:100AE00014FB02F200EE102AF8EE400A75D03F4ADD
:100AF0009FED3D1AB7EE000A6BB1DFED3D1A012BF9
:100B000001D0022B64D002EE101A1168F8EE422ACE
:100B100081EEA22A21E0334C283C23689B0612D5A3
:100B2000344B246801EE901A1168C4F3C104F8EE46
:100B3000612AE34001EE903AC1F30801F8EE611A30
:100B400081EEA22A0BE001EE901ADFED2B2A00BF06
:100B5000F8EE611A116882EEA12AC1F3080101EED4
:100B6000901A1168F8EE611A40EE811A71EE800A4F
:100B700062EE200AC1F3462101EE101AB8EE411AC6
:100B800031EE001AC0EE811ABCEEE11A80ED001AB7
:100B90001168C1F3064101EE101AB8EE411A31EEA8
:100BA000001AC0EE811ABCEEE11A80ED011A11683C
:100BB000C1F3066101EE101AB8EE411A31EE000AD7
:100BC00080EE801ABCEEC10A80ED020A30BD04E05E
:100BD00001EE901ADFED092ABAE7002101604160B9
:100BE0008160F3E72844025800000039404402586D
:100BF0000024744A0090D0030024744C001BB74BAF
:100C00002DE9FE4F0546DFF800A450F8081B00242C
:100C1000FD4FC943019005F1280026460AF1240A38
:100C2000009008011DD4686E50B1B0F5801F0CD043
:100C3000B0F5001F0ED0B0F5401F1ED001240FE00C
:100C4000386840F40030386017E00198022101F064
:100C5000ABFB03E00098022101F036FC04000CD04D
:100C600026462888C043C00523D4A86D05281ED277
:100C7000DFE800F00C11161B1B006A6EDAF800109A
:100C800021F440111143CAF80010EAE7386840F433
:100C90000030386009E00198002101F085FB03E095
:100CA0000098002101F010FC0446C4B100E00124CA
:100CB00026462888DFF85083C04308F12C084005F9
:100CC0002FD4D5F8A400B0F5C00F28D010DCB8B1EF
:100CD000B0F5001F19D0B0F5800F0FD11AE0AA6D42
:100CE000DAF8001021F007011143CAF80010E0E71C
:100CF000B0F5000F13D0B0F5200F10D001240FE095
:100D0000386840F40030386009E00198002101F0B3
:100D10004BFB03E00098002101F0D6FB044694B1A0
:100D200026462888C043000530D4D5F8A800B0F185
:100D3000407F29D011DCC0B1B0F1807F1AD0B0F172
:100D4000007F10D11BE0D5F8A420D8F8001021F4C2
:100D500060011143C8F80010E3E7B0F1806F13D0D1
:100D6000B0F1A06F10D001240FE0386840F40030DB
:100D7000386009E00198002101F016FB03E00098BB
:100D8000002101F0A1FB044694B126462868DFF853
:100D900078B2C0430BF1200B80011FD4E86CD8B1AE
:100DA00010280FD0202812D0302815D0012414E0AC
:100DB000D5F8A820D8F8001021F0E0611143C8F858
:100DC0000010E3E7386840F40030386004E0019830
:100DD000022101F0E9FA044674B126462888C0438E
:100DE000C0042BD4E86DB0F5005F20D00DDCA0B1BD
:100DF000B0F5805F0FD115E0EA6CDBF8001021F050
:100E000030011143CBF80010E8E7B0F5405F13D094
:100E1000B0F5804F10D001240FE0386840F4003066
:100E2000386009E00198002101F0BEFA03E0009863
:100E3000002101F049FB04468CB126462888C043B6
:100E4000800429D4286EB0F5403F23D010DC08B3CD
:100E5000B0F5803F14D0B0F5003F0FD115E0EA6D3A
:100E6000DAF8001021F4E0411143CAF80010E5E778
:100E7000B0F5802F0ED0B0F5A02F0BD001240AE0E2
:100E80000198012101F090FA03E00098012101F09E
:100E90001BFB044694B126462888C04340042AD44C
:100EA000D5F8AC00B0F1405F23D010DC08B3B0F14E
:100EB000805F14D0B0F1005F0FD115E02A6EDAF830
:100EC000001021F4E0211143CAF80010E4E7B0F16A
:100ED000804F0ED0B0F1A04F0BD001240AE0019852
:100EE000012101F061FA03E00098012101F0ECFA20
:100EF000044674B126462888C04300041FD4E86E17
:100F0000D8B1B0F1805F0ED0B0F1005F10D00124F5
:100F100014E0D5F8AC20D8F8001021F0E0411143DE
:100F2000C8F80010E7E7386840F40030386004E0A3
:100F30000198012101F038FA044674B12646286868
:100F4000C043C0011ED4A86CD0B101280ED0022825
:100F500011D0032814D0012413E0EA6EDAF800104F
:100F600021F040511143CAF80010E8E7386840F416
:100F70000030386004E00198022101F015FA0446BF
:100F80006CB126462868C043400255D41F4801680A
:100F900041F480710160FFF717FC81460EE0AA6CF6
:100FA000DBF8001021F003011143CBF80010E9E752
:100FB000FFF70AFCA0EB090064283BD8134800683F
:100FC000C005F5D5BCBBDFF84090B5F8B01009F10D
:100FD0004409D9F8000001F4407100F440708842DF
:100FE00011D0D9F80010D9F8002021F4407142F452
:100FF0008032C9F80020D9F8002022F48032C9F8E4
:101000000020C9F8001003E02C44025800480258A0
:10101000D5F8B000B0F5807F19D1FFF7D5FB02906D
:1010200011E000BFFFF7D0FB0299411A41F288306E
:10103000814208D9032426462878DFF81494C04357
:10104000C00721D03CE0D9F800008007EAD5D5F8E8
:10105000B010C1F301200328FE480DD0016821F42F
:101060007C510160B5F8B020D9F80010C2F30B0232
:101070001143C9F80010DFE7F74A036802EA1112CA
:1010800023F47C511143ECE7A86F182816D005DC37
:10109000A0B1082808D0102804D10AE020280DD0DB
:1010A00028280BD001240AE00198012101F07CF9E5
:1010B00003E00098012101F007FA044664B12646D6
:1010C0002878C04380071ED4686F062819D2DFE84D
:1010D00000F0160C11161616AA6FD9F8001021F0A0
:1010E00038011143C9F80010EAE70198012101F025
:1010F0005BF903E00098012101F0E6F904467CB1B8
:1011000000E0012426462878C04340071FD4D5F8C4
:101110009000062819D2DFE800F0160C11161616FA
:101120006A6FD9F8001021F007011143C9F80010C7
:10113000E9E70198012101F037F903E00098012166
:1011400001F0C2F90446A4B100E001242646287843
:10115000C04380062BD4D5F88C00B0F1405F24D07A
:1011600011DC10B3B0F1805F15D0B0F1005F10D189
:1011700016E0D5F89020D8F8001021F007011143AF
:10118000C8F80010E3E7B0F1804F0ED0B0F1A04FE7
:101190000BD001240AE00198002101F005F903E0D9
:1011A0000098022101F090F9044694B1264628786F
:1011B000C04340062BD4D5F89800B0F5406F24D03A
:1011C00011DC10B3B0F5806F15D0B0F5006F10D101
:1011D00016E0D5F88C20D9F8001021F0E041114339
:1011E000C9F80010E3E7B0F5805F0ED0B0F5A05F5E
:1011F0000BD001240AE00198002101F0D5F803E0AA
:101200000098022101F060F9044694B1264628783E
:10121000C04300062BD4D5F89C00B0F5C04F24D0B5
:1012200011DC10B3B0F5005F15D0B0F5804F10D1D0
:1012300016E0D5F89820D8F8001021F4E0511143B9
:10124000C8F80010E3E7B0F5004F0ED0B0F5204F1E
:101250000BD001240AE00198002101F0A5F803E079
:101260000098022101F030F9044654B1264628784E
:10127000C04300071ED4D5F88000B0F5805F0AD0C7
:101280000FE0D5F89C20D8F8001021F460411143FC
:10129000C8F80010EBE70098022101F015F900B141
:1012A0000126D5F88020D9F8001021F440511143CF
:1012B000C9F800102878C043C00613D4D5F89400AC
:1012C000B0F5807F05D10098022101F0FDF800B152
:1012D0000126D5F89420D8F8001021F4407111436C
:1012E000C8F800102868C043000316D4D5F8A00041
:1012F00038B1B0F5803F09D0B0F5003F0BD00124E4
:101300000AE00198002101F04FF803E00098022163
:1013100001F0DAF804468CB126462868C043400341
:1013200022D4D5F88400B0F5801F11D0B0F5001F8D
:1013300013D0B0F5401F15D0012414E0D5F8A0203B
:10134000D8F8001021F440311143C8F80010E4E748
:10135000386840F40030386004E00098012101F062
:10136000B3F804465CB126462868C043C0031CD4C9
:10137000286D70B1B0F5803F10D0012414E0D5F88D
:101380008420D9F8001021F440111143C9F800104D
:10139000EAE7386840F40030386004E00198022140
:1013A00001F002F80446DCB126462868C0438000FC
:1013B00005D40098022101F087F800B101262868C1
:1013C000C04380031BD4E86FB8B1B0F5807F10D064
:1013D000B0F5007F11D0B0F5407F0ED001240DE0B4
:1013E0002A6DDBF8001021F480311143CBF8001096
:1013F000DBE7386840F4003038607CB32646286864
:10140000C043C00207D42A6FDAF8001021F000416F
:101410001143CAF800102868C043800207D4AA6E9E
:10142000DAF8001021F080711143CAF80010286822
:10143000C043400009D40748016821F4004101601D
:101440000168D5F8B420114301602868C04306E064
:101450005444025810440258CFFFFF001DE007D447
:101460006A6DDBF8001021F040511143CBF80010F9
:101470002868C043000208D4D5F88820D9F80010A5
:1014800021F440011143C9F8001028790024C04319
:1014900000F00100204309D00EE0EA6FD9F80010F7
:1014A00021F440711143C9F80010A8E70198002108
:1014B00000F07AFF00B106462879C04300F0020030
:1014C000204305D10198012100F06EFF00B10646CE
:1014D0002879C04300F00400204305D1019802217F
:1014E00000F062FF00B106462879C04300F0080012
:1014F000204305D10098002100F0E6FF00B1064628
:101500002879C04300F01000204305D10098012144
:1015100000F0DAFF00B106462879C04300F0200051
:10152000044304D10098022100F0CEFF00B916B1A7
:101530000120BDE8FE8F0020FBE700002DE9F05FF1
:1015400004000F467ED0DFF83882D8F8000000F0A3
:101550000F00B8420CD2D8F8001021F00F01394327
:10156000C8F80010D8F8000000F00F00B84269D1A8
:101570002078844D40070AD52069296801F0700160
:10158000884204D9296821F070010143296020783C
:101590007C4E361D00070AD56069316801F0700184
:1015A000884204D9316821F070010143316020780C
:1015B000C0060AD5A069316801F4E061884204D907
:1015C000316821F4E061014331602078DFF8B4B183
:1015D00080060BF1080B0CD5E1695846DBF80020BA
:1015E00002F07002914204D9026822F070020A43AC
:1015F0000260207880070AD5E068296801F00F01B1
:10160000884204D9296821F00F010143296020781C
:10161000C0073ED05B49A2682868183920F4706082
:10162000104328606068022818D0032819D0096880
:10163000012819D0490700294ADADFF848A1AAF1A0
:10164000080A00E044E0DAF8002022F00702024332
:10165000CAF80020FFF7B8F8814612E0096889034C
:10166000E9E709688901E6E7C905E4E7FFF7ACF8AF
:10167000A0EB090141F28830814202D90320BDE884
:10168000F09F6168DAF8000000F03800B0EBC10F9D
:10169000ECD1207880070AD5E068296801F00F01B5
:1016A000884204D2296821F00F0101432960D8F84B
:1016B0000010404601F00F01B9420BD9016821F03A
:1016C0000F0139430160006800F00F00B84201D0FB
:1016D0000120D4E7207840070AD52069296801F065
:1016E0007001884204D2296821F070010143296009
:1016F000207800070AD56069316801F070018842DE
:1017000004D2316821F07001014331602078C006B5
:101710000AD5A069316801F4E061884204D23168D9
:1017200021F4E06101433160207880060CD5E16945
:101730005846DBF8002002F07002914204D20268A1
:1017400022F070020A43026000F06CF80E492A6829
:101750002B68C2F3032203F00F038A5CC95C02F01A
:101760001F0201F01F01D040084A20FA01F1116068
:101770000749086007480068BDE8F05FFFF760B8F8
:10178000002000521844025876330008100000244C
:101790000C0000240400002430B500F043F80B4A8C
:1017A0000B490C4B15681468C5F3032204F00F04B1
:1017B0008A5C095D02F01F0201F01F01D040064A59
:1017C00020FA01F119601060084630BD1844025833
:1017D00076330008100000240C00002400B5FFF749
:1017E000DBFF05490968054AC1F30211515C01F0AC
:1017F0001F01C84000BD00001C4402587633000899
:1018000000B5FFF7C9FF05490968054AC1F3022180
:10181000515C01F01F01C84000BD00001C4402588B
:1018200076330008454970B545480968434B103B7D
:1018300011F0380208D00111082A03D0102A0BD069
:10184000182A0BD0084670BD19688906FBD519689F
:10185000C1F3C101C84070BD3A4870BD3749374D2A
:1018600018310C1D24350A68096826682D6802F0B5
:10187000030406F00102C1F30511C5F3CC0515FB05
:1018800002F200EE102AB8EE400AE9B32F4ADFED6B
:101890002E0AB7EE001A6CB1DFED2D1A012C01D023
:1018A000022C43D002EE101A1068F8EE422A81EEA4
:1018B000A22A1EE01C68A40611D51B6801EE901A2E
:1018C0001168C3F3C103F8EE612AD84001EE900A13
:1018D000C1F30800F8EE611A81EEA22A0BE001EED6
:1018E000901ADFED1C2A00BFF8EE611A106882EE34
:1018F000A12AC0F3080001EE900AF8EE611A40EE4A
:10190000201A31EE810A00E015E022EE000A10688C
:10191000C0F34620401C00EE900AF8EE600A80EE0C
:10192000201ABCEEC10A10EE100A70BD01EE901A2A
:10193000DFED092AD8E7002070BD000010440258EE
:101940000090D00300366E01000000393044025888
:101950000024744A0024744C001BB74B2DE9F05F3F
:1019600004007DD0FF4F2078FE4D1837DFF8F48358
:10197000103DC00748D0D8F80000396800F03800A2
:10198000102815D0182803D101F0030002280FD029
:101990006068B0F5803F12D010B1B0F5A02F18D01C
:1019A000286820F480302860286820F4802009E02E
:1019B0002868800328D560680028D2D024E02868F1
:1019C00040F480302860606888B1FEF7FDFE06466E
:1019D00009E0286840F480202860F0E7FEF7F4FE74
:1019E000801B64287ED828688003F7D50CE0FEF7BA
:1019F000EBFE064605E000BFFEF7E6FE801B64280E
:101A0000F0D828688003F7D42078800756D5D8F816
:101A10000000DFF85093396810F03800A9F10C0984
:101A20000ED0182801D188070AD0E068A8B3296829
:101A300021F0190101432960FEF7C6FE064628E0A1
:101A40002868400702D5E06800288AD0E168286845
:101A500020F0190008432860FEF7B6FE064606E0AF
:101A6000D2E000BFFEF7B0FE801B0228BAD828687B
:101A70004007F7D5217CD9F8002022F0FE4242EA47
:101A80000161C9F8001019E0FEF79EFE801B0228D4
:101A9000A8D828684007F7D5ECE7FFE7286820F0CA
:101AA00001002860FEF790FE064604E0FEF78CFE7B
:101AB000801B022896D828684007F7D42078C006F3
:101AC00046D5D8F80000DFF89C92396800F038005D
:101AD000A9F10409082812D0182805D101F0030043
:101AE000012800E0CEE00AD0E0690028286820D074
:101AF00040F080002860FEF767FE064615E0286883
:101B0000C00502D5E06980287ED194F82010D9F86C
:101B1000002022F07C5242EA0161C9F8001017E06F
:101B2000FEF752FE801B0228A0D82868C005F7D512
:101B3000EBE720F080002860FEF746FE064604E052
:101B4000FEF742FE801B022890D82868C005F7D413
:101B50002078000729D583486169643000298146CF
:101B6000016811D041F001010160FEF72DFE06462B
:101B700005E000BFFEF728FE801B022888D8D9F8B0
:101B800000008007F6D510E021F001010160FEF7AA
:101B90001BFE064605E000BFFEF716FE801B02286E
:101BA00070D8D9F800008007F6D42078800623D5B5
:101BB000A0690028286810D040F480502860FEF703
:101BC00003FE064605E000BFFEF7FEFD801B02286F
:101BD00058D828688004F7D50EE020F4805028609B
:101BE000FEF7F2FD064604E0FEF7EEFD801B02283C
:101BF00048D828688004F7D42078400751D5DFF80A
:101C00006891D9F8001000E015E141F48071C9F83D
:101C10000010FEF7D9FD064605E000BFFEF7D4FD33
:101C2000801B64282ED8D9F80000C005F6D54D4E8B
:101C3000A068603601280AD008B1052813D03068A2
:101C400020F001003060306820F0040002E03068CD
:101C500040F001003060A06841F2883A98B1FEF788
:101C6000B3FD81460AE0306840F004003060EEE7E2
:101C7000FEF7AAFDA0EB0901514503D830688007A3
:101C8000F6D50EE072E0FEF79FFD814606E000BF4C
:101C9000FEF79AFDA0EB0901514567D8306880072F
:101CA000F6D4606A00287CD0DFF8B8A0D8F800101D
:101CB0000AF1200A4FF6F87B0AF10408C1F3C201C9
:101CC0000329AAF104096DD00228286820F0807049
:101CD000286003D0FEF778FD044681E0FEF774FD2E
:101CE000064604E0FEF770FD801B022875D82868C0
:101CF0008001F7D4E26A40F2F331386854F8283FA3
:101D0000884340EA021018433860217B4FF4FE0CF0
:101D100022894FF0FE47208A4902267D521E401E2E
:101D2000A1F5007189B2C2F308021143761E0CEAD4
:101D300000400143484607EA06621143CAF8001012
:101D4000D9F8001021F00101C9F80010D8F80030CE
:101D5000266A23EA0B0343EAC601C8F80010D9F843
:101D6000001004E0104402580048025835E0A2690F
:101D700021F00C011143C9F800100168E26921F05B
:101D8000020111430160016841F480310160016882
:101D900041F400310160016841F480210160016873
:101DA00001E06CE020E041F001010160286840F0B2
:101DB00080702860FEF708FD044604E0FEF704FD8D
:101DC000001B022809D828688001F7D557E000BF1A
:101DD000FEF7FAFC001B022802D90320BDE8F09FA1
:101DE00028688001F4D44AE039680128DAF8000054
:101DF00021D0A26A01F0030393421CD1E26AC1F32D
:101E000005118A4217D1216BC0F30802491E8A428C
:101E100011D1616BC0F34622491E91420BD1A16BD7
:101E2000C0F30642491E914205D1E16BC0F3066042
:101E3000491E814201D00120D0E7A16C4646D8F866
:101E40000000C0F3CC00814219D0D9F800004D4603
:101E500020F00100C9F80000FEF7B6FC4FEA0007C9
:101E6000FEF7B2FCB842FBD0A26C306820EA0B004F
:101E700040EAC2003060286840F00100286000207D
:101E8000ACE700002DE9F04104001D4616460F4660
:101E900003D0D4F8880018B108E00120BDE8F08133
:101EA000002084F88400204600F04AF92420C4F879
:101EB00088002068016821F001010160204600F0DF
:101EC00087FD0128EAD0A06A10B1204600F09CFCF2
:101ED000206871050D4A41EA0541836843F4804357
:101EE00083602068836823F400433B438360206859
:101EF000036813400B4303602068016841F001014F
:101F000001602046BDE8F04100F0E2BCFFFF00FCAC
:101F1000401EB0F1807F10B501D3012010BD4FF0FD
:101F2000E02460610F21601700F087FF0020A061AE
:101F30000721216110BD30B590F88410012918D017
:101F4000012280F884202421C0F888100022202457
:101F500001680B680D6823F0005325F001050D6042
:101F6000426601680B60C0F8884080F88420104603
:101F700030BD022030BD2DE9F05F0446D0F88C0062
:101F80001F461646DDF828900D46202802D0022074
:101F9000BDE8F09FE5B1DEB122214FF0000801223B
:101FA000C4F89080C4F88C10E266C4F870802034C5
:101FB000FEF70AFC824654F8180CA6874FF48053AB
:101FC000E687FF21203C984207D1226912B11BE02D
:101FD0000120DDE740F2FF1116E04FF07F0288B1EB
:101FE000B0F1805F13D0A4F860809842B4F860B07C
:101FF00001D1206990B12E46002540464FF02008BF
:1020000038803AE0266936B9A4F86010EDE7216916
:1020100009B13F21F8E7A4F86020E6E70026ECE7E5
:102020002068C169C9060AD510210162388830B11B
:10203000022140462167C4F88C000020A8E72068F0
:10204000C16989060DD526B3416A01EA0B0106F87C
:10205000011B3888401C3880B4F85E00401EA4F88C
:102060005E00B9F1FF3F08D0FEF7AEFBA0EB0A011E
:10207000494514D8B9F1000F11D0B4F85E0000281A
:10208000CED1B4F85C10B4F85E204046891A39808D
:10209000D1E7406A00EA0B0025F8020BD9E7C4F843
:1020A0008C80032074E770B5044690F88400012802
:1020B0001DD0012284F884202420C4F888002068E0
:1020C0000568026822F0010202602068826822F03E
:1020D00060620A438260204600F074FB226820217F
:1020E00000201560C4F8881084F8840070BD0220B8
:1020F00070BD70B5044690F8840001281DD00122FF
:1021000084F884202420C4F88800206805680268C8
:1021100022F0010202602068826822F060420A43D5
:102120008260204600F04EFB2268202100201560CE
:10213000C4F8881084F8840070BD022070BD0000CF
:1021400010B5B4B0044614212EA8FEF7A6F9B821A4
:102150006846FEF7A2F91849206888422AD1002073
:102160001D9002210446CDE900106846FEF748FDA7
:1021700008B1FEF7F8F91148016841F40031016037
:10218000006800F4003033900C480838016841F0D2
:102190000801016000682EAB022100F008003390B6
:1021A0007020072283E8130005482EA9CDE93142AB
:1021B000FEF7EEF934B010BD00440040E844025888
:1021C000000C02582DE9F8430446D0F888009846E0
:1021D00016460D46202802D00220BDE8F883A5B19E
:1021E0009EB10021C4F890102120C4F88800183452
:1021F000FEF7EAFA814654F8100CA687E6872027F6
:10220000183CB0F5805F02D003E00120E5E72069CB
:1022100010B12E46002510E000260EE08021204659
:1022200000F0C4FDC0B9DEB116F8010B2168886268
:10223000B4F85600401EA4F85600B4F856004B46B9
:102240004FF00002CDF800800028E7D14FF04001A8
:10225000204600F0ABFD48B1C4F888700320BCE70D
:1022600035F8020B2168C0F30800E0E7C4F8887075
:102270000020B2E7FEE70000F0B587B01421684601
:10228000FEF70BF92848016841F010010160016870
:1022900001F010010591016841F0800101600168C1
:1022A00001F080010591016841F0010101600168C0
:1022B00001F001010591016841F008010160006829
:1022C00000240225194F00F008000590042000901A
:1022D000CDE901546946CDE903403846FEF758F987
:1022E0000B2108200090CDE90154CDE90341694656
:1022F0003846FEF74DF9072669464FF4C070009046
:10230000CDE90154CDE903463846FEF741F94FF4D3
:10231000C0600090CDE9015405486946CDE9034607
:10232000FEF736F907B0F0BDE0440258001002583D
:10233000000002581848002110B5164C0C22174B0B
:102340000460C0E90131C1600B46C0E9041281613B
:102350000A46C161016241628162FFF793FD08B1E3
:10236000FEF701F90C480021FFF7C3FE08B1FEF7A4
:10237000FAF809480021FFF796FE08B1FEF7F3F8D6
:102380000548FFF7D8FD002803D0BDE81040FEF750
:10239000EAB810BD004400409800002400093D0048
:1023A000FEE7FEE7704700002DE9F047454D044683
:1023B00089464FF0000A2868C04380070AD0414E82
:1023C000283E306820F080603060FEF7FDF9074657
:1023D000B04608E00120BDE8F08700BFFEF7F4F941
:1023E000C01B022867D8D8F800000001F6D4206886
:1023F00029684FF4FE0721F47C313E0241EA0030A7
:102400002860207AA389B4F804C040022D4D2D49DC
:102410005B1E227CACF1010C1035091DA0F500708B
:1024200080B2521ECCF3080C07EA034340EA0C00CA
:10243000184306EA0262104328600868626920F0C7
:10244000C000104308600A68A06922F0200202431D
:102450000A60281D0A6822F010020A6002684FF61E
:10246000F873E4699A4342EAC40202600868B9F169
:10247000000F40F010020A6011D00868B9F1010F96
:1024800011D040F400100860D8F80000444640F035
:102490008060C8F80000FEF797F905460DE008686F
:1024A00040F40020EFE740F48010ECE7FEF78CF9F1
:1024B000401B022801D903208DE720680001F5D5D3
:1024C000504688E7284402582DE9F047454D044618
:1024D00089464FF0000A2868C04380070AD0414E61
:1024E000283E306820F080503060FEF76DF90746D6
:1024F000B04608E00120BDE8F08700BFFEF764F9B0
:10250000C01B022867D8D8F800008000F6D42088C5
:1025100029684FF4FE0721F07C713E0241EA005029
:102520002860207AA389B4F804C040022D4D2D49BB
:102530005B1E227CACF1010C1835091DA0F5007062
:1025400080B2521ECCF3080C07EA034340EA0C00A9
:10255000184306EA0262104328600868626920F4A2
:102560004060104308600A68A06922F400720243C8
:102570000A60281D0A6822F480720A6002684FF619
:10258000F873E4699A4342EAC40202600868B9F148
:10259000000F40F480720A6011D00868B9F1010F91
:1025A00011D040F080700860D8F80000444640F038
:1025B0008050C8F80000FEF707F905460DE00868EE
:1025C00040F48000EFE740F40000ECE7FEF7FCF891
:1025D000401B022801D903208DE720688000F5D533
:1025E000504688E7284402587CB505460C46002032
:1025F000ADF80400284600F0D3FC184E012210214B
:102600003046FEF7DBF816480A2311222946FFF769
:10261000D9FD002230461021FEF7D0F80A200090A4
:102620000F48102201AB2146FFF7A5FCBDF80400BE
:1026300010B1102808D101E003207CBD2078FE28CD
:1026400002D16078EE2801D001207CBD01202062FB
:10265000204600F015FC00207CBD0000000C025854
:10266000980000247047FEF7B5B8000070B59CB024
:102670004C216846FDF711FF202113A8FDF70DFF3F
:102680000220FEF73DF91E48016821F44041016037
:102690000168002401F440411B9101688904FCD5C4
:1026A00002200A9028230990C20301210D910425DC
:1026B000CDE90012CDE90B030C261294CDE90E50A2
:1026C000CDE910646846FFF749F908B172B6FEE734
:1026D00040201A9008230501CDE9163013ABCDE94F
:1026E00018053F21032283E8160013A81146FEF7C0
:1026F00025FF002801D072B6FEE71CB070BD0000B7
:10270000184802582748F0B5274A016841F470017B
:102710000160106800F00F00072804D2106820F054
:102720000F00C01D106021490020204C10340B68A0
:102730001F4D43F001030B6020600B682B400B60C2
:10274000136803F00F03072B04D9136823F00F035A
:10275000DB1D1360154C174A1834174B261D371D07
:102760002060124C154D28343060261D3860371D0E
:1027700023603B1D35601C1D3A60251D2E1D186011
:10278000331D22602860326018600A6843F2D20468
:10279000064B0B4D22F4802260330A6018602C60D7
:1027A000F0BD000088ED00E0002000520044025817
:1027B0007FEDF6EA80020101000202020000FF0143
:1027C0000040005230B5416EB9B101680D4B03F1C4
:1027D00008048A688968C2F34262490F5D5C615CE3
:1027E0002D01B5FBF1F1A0F86A10995CA25C09011A
:1027F000B1FBF2F1A0F8681030BD0121A0F86A1019
:10280000F8E700006633000890F82810C90706D0E2
:102810000168C36A4A6822F400321A434A6090F899
:102820002810890706D50168036B4A6822F48032B4
:102830001A434A6090F82810490706D50168436B8F
:102840004A6822F480221A434A6090F82810090747
:1028500006D50168836B4A6822F400421A434A6035
:1028600090F82810C90606D50168C36B8A6822F45F
:1028700080521A438A6090F82810890606D50168AC
:10288000036C8A6822F400521A438A6090F8281078
:10289000490611D50168436C4A6822F480121A4334
:1028A0004A60416CB1F5801F06D10168836C4A68AB
:1028B00022F4C0021A434A6090F82810090606D58F
:1028C0000168C26C486820F40020104348607047DB
:1028D0002DE9F84300250446C0F89050FDF774FF39
:1028E0008046206820266FF07E470068000713D5D9
:1028F0000022434631042046009700F057FA58B1B1
:10290000216851E8000F20F0800041E80002002A11
:10291000F6D1C4F8886021E020680068400722D51D
:10292000002243464FF480012046009700F03EFA13
:10293000C8B1206850E8001F21F4907140E80012EF
:10294000002AF6D12068083050E8001F21F001016C
:1029500040E80012002AF5D1C4F88C60032084F806
:102960008450BDE8F883C4F88860C4F88C60E566DC
:102970002567002084F88450F3E7000010B5026852
:1029800052E8001F21F4907142E80013002BF6D1A9
:102990000E4B0268083252E8001F194042E800144A
:1029A000002CF6D1C16E012908D1026852E8001F3F
:1029B00021F0100142E80013002BF6D10021202263
:1029C000C0F88C20C166416710BD0000FEFFFFEF1C
:1029D0002DE9F04304468068E24E87B0E24B21685F
:1029E000D4E90427D4F81CC010430A68002547EA3C
:1029F0000C073843324002430A602068E2684168AD
:102A000021F44051114341602268A1699A4201D0EA
:102A1000206A01439668DFF854C3D54FD54806EACB
:102A20000C060E4396602168666ACA6A22F00F029D
:102A30003243CA622268BA420ED1006800F0380000
:102A400018286FD07ADCB8B308286CD010286BD166
:102A50008BE0282868D18EE0C7498A4209D10068F6
:102A600000F0070006285FD2DFE800F0507D7F818C
:102A70008385C2498A4209D1006800F00700062810
:102A80007BD2DFE800F0437072747678BC498A42EA
:102A900009D1006800F0070006286ED2DFE800F0D8
:102AA00036636567696BB7498A420BD1006800F0ED
:102AB0000700062861D200E043E0DFE800F0275479
:102AC00056585A5CB0498A4206D1006800F0380076
:102AD00018284CD0B7DD31E0AC498A4209D10068F2
:102AE00000F00700062848D2DFE800F0103D3F4123
:102AF0004345A7498A420BD1006800F00700062829
:102B00003BD2DFE800F0033032343638002035E0C5
:102B1000A0498A4209D1006800F03800182826D060
:102B200091DD0BE023E01EE027E09B498A420AD1B9
:102B3000006800F03800182819D084DD202888D1DA
:102B40001CE001201AE09A4217D18A48001D006853
:102B500000F00700062810D2DFE800F0030507099F
:102B60000B0D02200AE0042008E0082006E01020F7
:102B700004E0202002E0402000E080208749DFF8C8
:102B800020829A42874A4FF400434FEA21174FF0C0
:102B900000064ED110281AD006DC022809D00428DD
:102BA0000BD008287ED10DE020283ED0402879D1D6
:102BB0003DE0FDF7CFFE014610E06846FDF7DCFE84
:102BC00001990BE003A8FDF779FF049906E010686E
:102BD000800605D51068C0F3C100C140002970D03F
:102BE000606A676838F8102007EB4703B1FBF2F022
:102BF000834257D8B0EB073F54D800230846194604
:102C0000FDF7D4FB02467808130E120243EA0121B5
:102C100010183A4671410023FDF7C8FB624AA0F53F
:102C2000407191423ED821688FE03946D8E7194675
:102C3000D6E7D4F81CC04FF6EF799C4546D108285A
:102C400019D005DC58B101280CD0042875D10DE04D
:102C5000102815D0202835D040286ED134E0FEF75A
:102C6000BDFD01E0FEF7CCFD014610E06846FDF732
:102C700083FE01990BE003A8FDF720FF049906E00D
:102C80001068800604D51068C0F3C100C140C1B10E
:102C9000636A606838F81330B1FBF3F1490001EB67
:102CA000500100E049E0B1FBF0F0A0F1100149450E
:102CB00043D84FF6F0732168C0F342021840104326
:102CC00043E043E03946E3E71946E1E7082819D035
:102CD00005DC58B101280CD004282ED10DE01028B5
:102CE00015D020282BD0402827D12AE0FEF776FDEA
:102CF00001E0FEF785FD014610E06846FDF73CFE69
:102D000001990BE003A8FDF7D9FE049906E01068CD
:102D1000800604D51068C0F3C100C140B1B1636A38
:102D2000606838F81330B1FBF3F101EB5001B1FBEF
:102D3000F0F0A0F11001494505D9012506E039461A
:102D4000EDE71946EBE7216880B2C8600120A4F8DE
:102D50006A00A4F8680028466667A66707B0BDE861
:102D6000F0830000F369FFCF000C0058FFF4FF115F
:102D70000010014054440258004400400048004004
:102D8000004C00400050004000140140007800401A
:102D9000007C004000180140001C01400090D0035E
:102DA0004E33000800440258FFFC0F002DE9F047A5
:102DB000994617460E460446089D4FF000082FE03E
:102DC000681C2DD0FDF700FDA0EB0900A84214D827
:102DD0009DB120680168490722D5C169C943090727
:102DE0000DD4082505622046FFF7C8FDC4F89050B1
:102DF000012084F88480BDE8F0870320FBE7C069E8
:102E0000C04300050CD421684FF4006008622046DE
:102E1000FFF7B4FD2021C4F8901084F88480ECE71B
:102E20002068C06936EA000004D00020B842C7D04C
:102E30000020E0E70120F9E7FEE7090700284FEA54
:102E4000116104DB00F1E02080F80014704700F00D
:102E50000F0000F1E02080F8141D704710B5074CFA
:102E600008E000BF11F8013B4340DBB234F81330F7
:102E700083EA1020521EF5D210BD00004E3100082A
:102E800070B50E22044601460020FFF7E7FFE189F6
:102E9000884202D00020206270BD207BA17894F986
:102EA0000B6000F00705A28901F00F03A662C1F3D1
:102EB000021184F82C50012084F8243084F8251065
:102EC000C2F3CB01B4F90520DFED160A01EE102A9A
:102ED0009FED150A01EE901AB8EEC11A9FED132A64
:102EE000F8EE611A21EE201A21EE001A84ED0D1A77
:102EF000B4F9031001EE101AB8EEC11A61EE200AFF
:102F0000C4ED0C0AD4F80710C4ED0F1A00EE901AA5
:102F10002062F8EEE00A20EE800A20EE020A84ED3C
:102F20000E0A70BD0000803BF90FC9400000003858
:102F3000FDF758FCFFF79AFBFFF79EF9FFF7FAF948
:102F4000134A00210120154E9FED100ADFED110AF2
:102F50001184850350844FF4FA7482ED090AC2ED9E
:102F60000A0A9FED0D1A82ED0B0A82ED0C0A82ED22
:102F70000D1A074906484031FFF736FB2046FDF79A
:102F8000F5FA29463046FDF711FCF2E70000000093
:102F90001800002400008C42CDCC4C3D00040258A7
:102FA00010B590ED0C0AFE2204461120EE21DFED53
:102FB000520AB5EEC00A6061F1EE10FA4F48227075
:102FC00061709FED4F1A02D2C4ED0C0A05E010EEBD
:102FD000101A814201DD84ED0C1A94ED0D0AB5EE54
:102FE000C00AF1EE10FA02D2C4ED0D0A05E010EEAF
:102FF000101A814201DD84ED0D1A4249606A88424F
:1030000002D99FED410A04E04049884203DD9FED6B
:10301000400A84ED090A3F49A06A884202D99FED1F
:103020003E0A04E03D49884203DD9FED3D0A84ED00
:103030000A0A3C49E06A884202D99FED3B0A04E053
:103040003A49884203DD9FED3A0A84ED0B0AD4ED3C
:103050000C2ADFED380A9FED380A94F8202082EE22
:10306000A02AA07894F822109FED341A62F303008E
:10307000DFED331A61F30610A0700F2222EE002A52
:10308000BDEEC22A12EE101AA4F80B10214694EDE0
:103090000D2AC2EE202A62EE800AFDEEE00A10EE52
:1030A000900AA4F80D00D4ED0B0A80EE812A22EEDE
:1030B000000ABDEEC00A10EE100AC4F8070094ED35
:1030C0000A0AC0EE010A20EEA10ABDEEC00A10EE07
:1030D000100AA4F8050094ED090A20EE210ABDEEBD
:1030E000C00A10EE100AA4F803000020FFF7B6FE95
:1030F000A4F80F00002010BD00000000C1CACC41A0
:10310000C1CACC41E1FAFFC2E1FAFFC2E1FAFF42D3
:10311000E1FAFF42000049C4000049C400004944EC
:1031200000004944C00FC9C8C00FC9C8C00FC94872
:10313000C00FC948CDCCCC4100000047F90FC940B1
:10314000000080434FF04070E1EE100A704700002D
:10315000891112239B322446AD573665BF74488CC3
:10316000C19D5AAFD3BE6CCAE5DB7EE9F7F881108A
:10317000080193331A22A5562C47B7753E64C99CA3
:10318000408DDBBF52AEEDDA64CBFFF976E8022169
:103190008B30100299132667AF763444BD554AAD83
:1031A000C3BC588ED19F6EEBE7FA7CC8F5D983314A
:1031B0000A2091121803A7772E66B5543C45CBBD63
:1031C00042ACD99E508FEFFB66EAFDD874C9044229
:1031D0008D5316619F702004A9153227BB364CCE43
:1031E000C5DF5EEDD7FC6888E1997AABF3BA85520A
:1031F0000C4397711E60A1142805B3373A26CDDE23
:1032000044CFDFFD56ECE9986089FBBB72AA0663E8
:103210008F7214409D512225AB343006B9174EEF02
:10322000C7FE5CCCD5DD6AA9E3B8788AF19B8773C9
:103230000E6295501C41A3352A24B1163807CFFFE2
:1032400046EEDDDC54CDEBB962A8F99A708B0884A8
:1032500081951AA793B62CC2A5D33EE1B7F04008DA
:10326000C919522BDB3A644EED5F766DFF7C899471
:1032700000859BB712A6ADD224C3BFF136E0C118BA
:103280004809D33B5A2AE55E6C4FF77D7E6C0AA550
:1032900083B4188691972EE3A7F23CC0B5D142299A
:1032A000CB38500AD91B666FEF7E744CFD5D8BB531
:1032B00002A499961087AFF326E2BDD034C1C3397A
:1032C0004A28D11A580BE77F6E6EF55C7C4D0CC610
:1032D00085D71EE597F42880A1913AA3B3B2444A5A
:1032E000CD5B5669DF78600CE91D722FFB3E8DD6F1
:1032F00004C79FF516E4A9902081BBB332A2C55A3A
:103300004C4BD7795E68E11C680DF33F7A2E0EE7CF
:1033100087F61CC495D52AA1A3B03882B193466B19
:10332000CF7A5448DD59622DEB3C700EF91F8FF7B0
:1033300006E69DD414C5ABB122A0B9923083C77BF9
:103340004E6AD5585C49E33D6A2CF11E780F0100A6
:1033500002000400060008000A000C001000200013
:103360004000800000010101010307010000080482
:10337000020408010101000000000102030401022F
:103380000304060708090000A83300080000002411
:103390001400000008030008BC33000814000024D7
:1033A0007C0700002403000801000000100000005A
:0C33B000000000000090D0030090D0034B
:04000005080002CD20
:00000001FF
