:020000040800F2
:100000000000052425120008FD0D0008030E00085D
:10001000090E00080F0E0008150E00080000000071
:100020000000000000000000000000001B0E00089F
:10003000270E000800000000330E00083F0E0008E5
:100040007512000875120008751200087512000874
:100050007512000875120008751200087512000864
:100060007512000875120008751200087512000854
:100070007512000875120008751200087512000844
:100080007512000875120008751200087512000834
:100090007512000875120008751200087512000824
:1000A0007512000875120008751200087512000814
:1000B0007512000875120008751200087512000804
:1000C00075120008751200087512000875120008F4
:1000D00075120008751200087512000875120008E4
:1000E0007512000875120008000000007512000863
:1000F00075120008751200087512000875120008C4
:1001000075120008751200087512000875120008B3
:1001100075120008751200087512000875120008A3
:100120007512000875120008751200087512000893
:100130007512000875120008751200087512000883
:1001400000000000000000000000000000000000AF
:100150007512000875120008751200087512000863
:100160007512000875120008751200087512000853
:1001700075120008751200087512000800000000D2
:100180007512000875120008751200087512000833
:100190007512000875120008751200087512000823
:1001A00075120008751200087512000800000000A2
:1001B0007512000875120008751200087512000803
:1001C0007512000875120008000000000000000011
:1001D0000000000000000000751200080000000090
:1001E000000000000000000000000000000000000F
:1001F00000000000000000007512000875120008E1
:100200007512000875120008000000007512000841
:1002100075120008751200087512000875120008A2
:1002200075120008000000007512000800000000B0
:100230007512000875120008000000007512000811
:100240007512000875120008751200087512000872
:100250007512000875120008751200087512000862
:100260007512000875120008751200087512000852
:1002700075120008751200087512000800000000D1
:100280007512000875120008751200087512000832
:100290000000000075120008751200080000000040
:1002A00000000000751200087512000875120008A1
:1002B0007512000875120008751200087512000802
:0C02C00075120008751200087512000885
:1002CC0080F0004002E000BF81F0004142001FBFFF
:1002DC005FEA410392EA030F7FEA226C7FEA236C08
:1002EC006AD04FEA1262D2EB1363C1BFD2184140FD
:1002FC0048404140B8BF5B42192B88BF704710F093
:10030C00004F40F4000020F07F4018BF404211F035
:10031C00004F41F4000121F07F4118BF494292EA9D
:10032C00030F3FD0A2F1010241FA03FC10EB0C00C9
:10033C00C3F1200301FA03F100F0004302D5494256
:10034C0060EB4000B0F5000F13D3B0F1807F06D303
:10035C0040084FEA310102F10102FE2A51D2B1F1FB
:10036C00004F40EBC25008BF20F0010040EA0300F0
:10037C007047490040EB0000013A28BFB0F5000F70
:10038C00EDD2B0FA80FCACF1080CB2EB0C0200FA26
:10039C000CF0AABF00EBC25052421843BCBFD04075
:1003AC001843704792F0000F81F4000106BF80F4EF
:1003BC0000000132013BB5E74FEA41037FEA226CB2
:1003CC0018BF7FEA236C21D092EA030F04D092F07D
:1003DC00000F08BF0846704790EA010F1CBF0020B1
:1003EC00704712F07F4F04D1400028BF40F000400E
:1003FC00704712F100723CBF00F50000704700F02E
:10040C00004343F0FE4040F4000070477FEA226254
:10041C0016BF08467FEA23630146420206BF5FEA25
:10042C00412390EA010F40F4800070474FF0000325
:10043C0004E000BF10F0004348BF40425FEA000CEC
:10044C0008BF704743F0964301464FF000001CE094
:10045C0050EA010208BF70474FF000030AE000BFEA
:10046C0050EA010208BF704711F0004302D5404228
:10047C0061EB41015FEA010C02BF8446014600209A
:10048C0043F0B64308BFA3F18053A3F50003BCFAB5
:10049C008CF2083AA3EBC25310DB01FA02FC634462
:1004AC0000FA02FCC2F12002BCF1004F20FA02F269
:1004BC0043EB020008BF20F00100704702F120025C
:1004CC0001FA02FCC2F1200250EA4C0021FA02F2BD
:1004DC0043EB020008BF20EADC7070474FF0FF0CC2
:1004EC001CEAD0521EBF1CEAD15392EA0C0F93EABD
:1004FC000C0F6FD01A4480EA010C400218BF5FEA5F
:10050C0041211ED04FF0006343EA501043EA5111D1
:10051C00A0FB01310CF00040B1F5000F3EBF4900CB
:10052C0041EAD3715B0040EA010062F17F02FD2ACF
:10053C001DD8B3F1004F40EBC25008BF20F00100B2
:10054C00704790F0000F0CF0004C08BF49024CEAC9
:10055C00502040EA51207F3AC2BFD2F1FF0340EA5B
:10056C00C250704740F400004FF00003013A5DDCCC
:10057C0012F1190FDCBF00F000407047C2F100020D
:10058C00410021FA02F1C2F1200200FA02FC5FEAFA
:10059C00310040F1000053EA4C0308BF20EADC7044
:1005AC00704792F0000F00F0004C02BF400010F4B6
:1005BC00000F013AF9D040EA0C0093F0000F01F063
:1005CC00004C02BF490011F4000F013BF9D041EA85
:1005DC000C018FE70CEAD15392EA0C0F18BF93EA87
:1005EC000C0F0AD030F0004C18BF31F0004CD8D1B1
:1005FC0080EA010000F00040704790F0000F17BF38
:10060C0090F0004F084691F0000F91F0004F14D07D
:10061C0092EA0C0F01D142020FD193EA0C0F03D1D5
:10062C004B0218BF084608D180EA010000F00040D8
:10063C0040F0FE4040F40000704740F0FE4040F4B3
:10064C00400070474FF0FF0C1CEAD0521EBF1CEA52
:10065C00D15392EA0C0F93EA0C0F69D0A2EB030270
:10066C0080EA010C49024FEA402037D04FF080530A
:10067C0043EA111143EA10130CF000408B4238BFCF
:10068C005B0042F17D024FF4000C8B4224BF5B1ADD
:10069C0040EA0C00B3EB510F24BFA3EB510340EA2B
:1006AC005C00B3EB910F24BFA3EB910340EA9C00D9
:1006BC00B3EBD10F24BFA3EBD10340EADC001B0149
:1006CC0018BF5FEA1C1CE0D1FD2A3FF650AF8B42ED
:1006DC0040EBC25008BF20F0010070470CF0004CFA
:1006EC004CEA50207F32C2BFD2F1FF0340EAC25025
:1006FC00704740F400004FF00003013A37E792F0E6
:10070C00000F00F0004C02BF400010F4000F013A43
:10071C00F9D040EA0C0093F0000F01F0004C02BF3E
:10072C00490011F4000F013BF9D041EA0C0195E7A7
:10073C000CEAD15392EA0C0F08D142027FF47DAF40
:10074C0093EA0C0F7FF470AF084676E793EA0C0F30
:10075C0004D14B023FF44CAF08466EE730F0004C2E
:10076C0018BF31F0004CCAD130F000427FF45CAFBE
:10077C0031F000437FF43CAF5FE700BF4FF0FF3C2C
:10078C0006E000BF4FF0010C02E000BF4FF0010C7F
:10079C004DF804CD4FEA40024FEA41037FEA226C48
:1007AC0018BF7FEA236C11D001B052EA530C18BF6A
:1007BC0090EA010F58BFB2EB030088BFC81738BFCF
:1007CC006FEAE17018BF40F0010070477FEA226CBD
:1007DC0002D15FEA402C05D17FEA236CE4D15FEAB9
:1007EC00412CE1D05DF8040B704700BF84460846ED
:1007FC006146FFE70FB5FFF7C9FF002848BF10F1AE
:10080C00000F0FBD4DF808EDFFF7F4FF0CBF0120F2
:10081C0000205DF808FB00BF4DF808EDFFF7EAFF7C
:10082C0034BF012000205DF808FB00BF4DF808ED37
:10083C00FFF7E0FF94BF012000205DF808FB00BF2C
:10084C004DF808EDFFF7D2FF94BF012000205DF8B2
:10085C0008FB00BF4DF808EDFFF7C8FF34BF0120BF
:10086C0000205DF808FB00BF4FEA4002B2F1FE4FDA
:10087C000FD34FF09E03B3EB12620DD94FEA002356
:10088C0043F0004310F0004F23FA02F018BF40422F
:10089C0070474FF00000704712F1610F01D1420216
:1008AC0005D110F0004008BF6FF0004070474FF0CA
:1008BC000000704742000ED2B2F1FE4F0BD34FF046
:1008CC009E03B3EB126209D44FEA002343F00043BA
:1008DC0023FA02F070474FF00000704712F1610FDD
:1008EC0001D1420202D14FF0FF3070474FF00000AF
:1008FC00704700BF53B94AB9002908BF00281CBF74
:10090C004FF0FF314FF0FF3000F00CB8ADF1080C98
:10091C006DE904CE05F0ECFBDDF804E0DDE9022323
:10092C0004B07047704700BF844641EA000313F0DF
:10093C0003036DD1403A41D351F8043B40F8043BDA
:10094C0051F8043B40F8043B51F8043B40F8043B9D
:10095C0051F8043B40F8043B51F8043B40F8043B8D
:10096C0051F8043B40F8043B51F8043B40F8043B7D
:10097C0051F8043B40F8043B51F8043B40F8043B6D
:10098C0051F8043B40F8043B51F8043B40F8043B5D
:10099C0051F8043B40F8043B51F8043B40F8043B4D
:1009AC0051F8043B40F8043B51F8043B40F8043B3D
:1009BC0051F8043B40F8043B403ABDD2303211D3DD
:1009CC0051F8043B40F8043B51F8043B40F8043B1D
:1009DC0051F8043B40F8043B51F8043B40F8043B0D
:1009EC00103AEDD20C3205D351F8043B40F8043BDD
:1009FC00043AF9D2043208D0D2071CBF11F8013BDB
:100A0C0000F8013B01D30B8803806046704700BFA0
:100A1C00082A13D38B078DD010F003038AD0C3F1AF
:100A2C000403D21ADB071CBF11F8013B00F8013B91
:100A3C0080D331F8023B20F8023B7BE7043AD9D350
:100A4C00013A11F8013B00F8013BF9D20B78037025
:100A5C004B7843708B788370604670470348044B27
:100A6C00834202D0034B03B1184770471400002493
:100A7C0014000024000000000548064B1B1AD90F77
:100A8C0001EBA301491002D0034B03B11847704787
:100A9C0014000024140000240000000010B5064CC3
:100AAC00237843B9FFF7DAFF044B13B10448AFF3D3
:100ABC0000800123237010BD1800002400000000EA
:100ACC00B065000808B5054B1BB105490548AFF3E7
:100ADC000080BDE80840FFF7CFBF00BF000000005A
:100AEC001C000024B065000880B58AB000AF07F187
:100AFC00140300221A605A609A60DA601A61484B3B
:100B0C00D3F8E030464A43F01003C2F8E030444BCF
:100B1C00D3F8E03003F010033B613B69404BD3F852
:100B2C00E0303F4A43F08003C2F8E0303C4BD3F84E
:100B3C00E03003F08003FB60FB68394BD3F8E03006
:100B4C00374A43F00203C2F8E030354BD3F8E030BB
:100B5C0003F00203BB60BB68314BD3F8E030304A82
:100B6C0043F00803C2F8E0302D4BD3F8E03003F02B
:100B7C0008037B607B682A4BD3F8E030284A43F0AB
:100B8C000103C2F8E030264BD3F8E03003F0010348
:100B9C003B603B6804237B610223BB610023FB6148
:100BAC0000233B6204237B6207F1140319461D48A2
:100BBC0000F0F0FC08237B610223BB610023FB6186
:100BCC0000233B620B237B6207F114031946154883
:100BDC0000F0E0FC4FF4C0737B610223BB61002387
:100BEC00FB6100233B6207237B6207F11403194668
:100BFC000C4800F0CFFC4FF4C0637B610223BB6157
:100C0C000023FB6100233B6207237B6207F1140383
:100C1C001946054800F0BEFC00BF2837BD4680BD14
:100C2C0000440258001002580000025880B500AF72
:100C3C0000F01CFB00F04EF8FFF756FF00F06EF9C9
:100C4C0000F0BCF91C4A1D4B1046194694231A4659
:100C5C00FFF76AFE184B0022A3F8B820164B0122AE
:100C6C00A3F8BA20144B4FF00002C3F8BC20124B6F
:100C7C00134AC3F8C020104B4FF00002C3F8C42035
:100C8C000D4B4FF00002C3F8C8200B4B0D4AC3F8B4
:100C9C00CC200D4B1B6801330B4A13600B490648E3
:100CAC0005F0CCF94FF4FA7000F06EFB4FF4804174
:100CBC00074800F02FFEECE7380000245401002414
:100CCC0000008C42CDCC4C3D50010024100100247E
:100CDC000004025880B59CB000AF07F124034C22ED
:100CEC000021184605F080FB3B1D202200211846F0
:100CFC0005F07AFB022000F027FE00233B602B4B13
:100D0C009B692A4A23F440439361284B9B6903F463
:100D1C0040433B603B6800BF244B9B6903F400538A
:100D2C00B3F5005FF8D101237B624FF48033BB62D3
:100D3C000223BB640223FB6402233B6528237B65EF
:100D4C000123BB650423FB6502233B660C237B66F6
:100D5C000023BB660023FB6607F12403184600F052
:100D6C002DFE0346002B01D000F022F83F237B60C0
:100D7C000323BB600023FB6008233B6140237B61A2
:100D8C004023BB614FF48063FB6140233B623B1DFE
:100D9C000321184601F0ECF90346002B01D000F0BA
:100DAC0007F800BF7037BD4680BD00BF0048025831
:100DBC0080B400AF72B600BFFEE7000080B483B011
:100DCC0000AF0A4BD3F8F430084A43F00203C2F8E0
:100DDC00F430064BD3F8F43003F002037B607B68ED
:100DEC0000BF0C37BD4680BC704700BF00440258A2
:100DFC0080B400AFFEE780B400AFFEE780B400AF74
:100E0C00FEE780B400AFFEE780B400AFFEE780B42D
:100E1C0000AF00BFBD4680BC704780B400AF00BFC0
:100E2C00BD4680BC704780B400AF00BFBD4680BCDF
:100E3C00704780B500AF00F08BFA00BF80BD00009A
:100E4C0080B400AF2E4B1B6803F00F03062B07D8A2
:100E5C002B4B1B6823F00F03294A43F00703136045
:100E6C00284B1B68274A43F001031360254B0022D3
:100E7C001A61244B1A682349234B13400B60204BF7
:100E8C001B6803F00803002B07D01D4B1B6823F0D5
:100E9C000F031B4A43F0070313601A4B00229A619D
:100EAC00184B0022DA61174B00221A62154B174AB5
:100EBC009A62144B164ADA62124B164A1A63114B99
:100ECC0000225A630F4B134A9A630E4B0022DA63CB
:100EDC000C4B104A1A640B4B00225A64094B1B68CA
:100EEC00084A23F480231360064B00221A660A4B2F
:100EFC0043F2D2021A6000BFBD4680BC704700BFEF
:100F0C0000200052004402587FEDF6EA0002020273
:100F1C000000FF01800201010040005280B500AFCB
:100F2C00234B244A1A60224B234A5A60204B00223E
:100F3C009A601F4B0022DA601D4B00221A611C4B79
:100F4C000C225A611A4B00229A61194B0022DA6169
:100F5C00174B00221A62164B00225A62144B0022C5
:100F6C009A62002300220021114804F0EDFB034695
:100F7C00002B01D0FFF71CFF00210D4804F086FC6C
:100F8C000346002B01D0FFF713FF0021084804F0A3
:100F9C00BBFC0346002B01D0FFF70AFF044804F00A
:100FAC003DFC0346002B01D0FFF702FF00BF80BDC4
:100FBC00540100240044004000093D0080B500AFFE
:100FCC00244B254A1A60234B4FF4E1325A60214BD3
:100FDC0000229A601F4B0022DA601E4B00221A611D
:100FEC001C4B0C225A611B4B00229A61194B00229C
:100FFC00DA61184B00221A62164B00225A62154B0A
:10100C0000229A62002300220021124804F09CFB6B
:10101C000346002B01D0FFF7CBFE00210D4804F056
:10102C0035FC0346002B01D0FFF7C2FE0021094816
:10103C0004F06AFC0346002B01D0FFF7B9FE05480B
:10104C0004F0ECFB0346002B01D0FFF7B1FE00BF10
:10105C0080BD00BFE80100240048004080B5BCB052
:10106C0000AF786007F1DC0300221A605A609A60C6
:10107C00DA601A6107F12003B8220021184605F046
:10108C00B3F97B681B685F4A934246D14FF002026A
:10109C004FF00003C7E908230023C7F8943007F189
:1010AC002003184601F01AFC0346002B01D0FFF771
:1010BC007FFE554BD3F8E830534A43F40033C2F863
:1010CC00E830514BD3F8E83003F40033FB61FB6993
:1010DC004D4BD3F8E0304C4A43F00803C2F8E030F3
:1010EC00494BD3F8E03003F00803BB61BB697023B4
:1010FC00C7F8DC300223C7F8E0300023C7F8E4302F
:10110C000023C7F8E8300723C7F8EC3007F1DC03FD
:10111C0019463E4800F03EFA70E07B681B683C4A7A
:10112C0093426BD14FF002024FF00003C7E9082342
:10113C000023C7F8943007F12003184601F0CEFBCA
:10114C000346002B01D0FFF733FE2F4BD3F8E830CA
:10115C002D4A43F48023C2F8E8302B4BD3F8E83007
:10116C0003F480237B617B69274BD3F8E030264A5C
:10117C0043F00203C2F8E030234BD3F8E03003F025
:10118C0002033B613B69204BD3F8E0301E4A43F02D
:10119C000803C2F8E0301C4BD3F8E03003F008032E
:1011AC00FB60FB684FF48043C7F8DC300223C7F8C0
:1011BC00E0300023C7F8E4300023C7F8E8300723F9
:1011CC00C7F8EC3007F1DC031946124800F0E2F9DD
:1011DC004FF44073C7F8DC300223C7F8E03000232B
:1011EC00C7F8E4300023C7F8E8300723C7F8EC3021
:1011FC0007F1DC031946054800F0CCF900BFF037C5
:10120C00BD4680BD0044004000440258000C02580A
:10121C000048004000040258DFF834D0FFF710FEFD
:10122C000C480D490D4A002302E0D458C450043335
:10123C00C4188C42F9D30A4A0A4C002301E013600B
:10124C000432A242FBD305F01DF9FFF7EFFC704707
:10125C000000052400000024140000241468000879
:10126C001800002418040024FEE7000080B582B0AA
:10127C0000AF032000F05CF901F030F90246154B89
:10128C009B691B0A03F00F031349CB5C03F01F038C
:10129C0022FA03F37B600F4B9B6903F00F030E4A9A
:1012AC00D35C03F01F037A6822FA03F30B4A136032
:1012BC000B4A7B6813600F2000F014F80346002BD8
:1012CC0001D0012302E0FFF779FD0023184608370F
:1012DC00BD4680BD00440258C865000804000024C7
:1012EC000000002480B582B000AF7860154B1B78ED
:1012FC00002B01D1012321E0134B1A68114B1B78F1
:10130C0019464FF47A73B3FBF1F3B2FBF3F31846BF
:10131C0000F033F90346002B01D001230EE07B686B
:10132C000F2B0AD8002279684FF0FF3000F00BF930
:10133C00064A7B681360002300E001231846083737
:10134C00BD4680BD0C0000240000002408000024D1
:10135C0080B400AF054B1B781A46054B1B68134431
:10136C00034A136000BFBD4680BC70470C000024CC
:10137C007C02002480B400AF024B1B681846BD46AB
:10138C0080BC70477C02002480B584B000AF7860CC
:10139C00FFF7F0FFB8607B68FB60FB68B3F1FF3FC1
:1013AC0005D00A4B1B781A46FB681344FB6000BF40
:1013BC00FFF7E0FF0246BB68D31AFA689A42F7D8E7
:1013CC0000BF00BF1037BD4680BD00BF0C0000241D
:1013DC0080B485B000AF78607B6803F00703FB60D6
:1013EC000B4BDB68BB60BA684FF6FF031340BB6066
:1013FC00FB681A02BB681A43064B1343BB60044AD2
:10140C00BB68D36000BF1437BD4680BC704700BFBB
:10141C0000ED00E00000FA0580B400AF044BDB687F
:10142C001B0A03F007031846BD4680BC704700BF7B
:10143C0000ED00E080B483B000AF03463960FB8060
:10144C00B7F90630002B0ADB3B68DAB20C49B7F966
:10145C0006301201D2B20B4483F800230AE03B6839
:10146C00DAB20849FB8803F00F03043B1201D2B235
:10147C000B441A7600BF0C37BD4680BC704700BFCA
:10148C0000E100E000ED00E080B489B000AFF8604E
:10149C00B9607A60FB6803F00703FB61FB69C3F179
:1014AC000703042B28BF0423BB61FB690433062B01
:1014BC0002D9FB69033B00E000237B614FF0FF3254
:1014CC00BB6902FA03F3DA43BB681A407B699A40A2
:1014DC004FF0FF317B6901FA03F3D9437B680B4072
:1014EC00134318462437BD4680BC704780B582B084
:1014FC0000AF78607B68013BB3F1807F01D301239F
:10150C000FE00A4A7B68013B53600F214FF0FF301C
:10151C00FFF790FF054B00229A60044B07221A60DC
:10152C00002318460837BD4680BD00BF10E000E020
:10153C0080B582B000AF78607868FFF749FF00BFD4
:10154C000837BD4680BD80B586B000AF0346B96094
:10155C007A60FB81FFF760FF78617A68B968786917
:10156C00FFF792FF0246B7F90E3011461846FFF707
:10157C0061FF00BF1837BD4680BD80B582B000AF9B
:10158C0078607868FFF7B2FF034618460837BD4607
:10159C0080BD000080B489B000AF78603960002352
:1015AC00FB61864B7B618CE13B681A680121FB690E
:1015BC0001FA03F313403B613B69002B00F07E8181
:1015CC003B685B6803F00303012B05D03B685B6849
:1015DC0003F00303022B30D17B689B68BB61FB6972
:1015EC005B00032202FA03F3DB43BA691340BB61CD
:1015FC003B68DA68FB695B0002FA03F3BA691343D0
:10160C00BB617B68BA699A607B685B68BB610122CD
:10161C00FB6902FA03F3DB43BA691340BB613B6815
:10162C005B681B0903F00102FB6902FA03F3BA6958
:10163C001343BB617B68BA695A603B685B6803F013
:10164C000303032B17D07B68DB68BB61FB695B0072
:10165C00032202FA03F3DB43BA691340BB613B6814
:10166C009A68FB695B0002FA03F3BA691343BB6126
:10167C007B68BA69DA603B685B6803F00303022B92
:10168C0023D1FB69DA087B68083253F82230BB613E
:10169C00FB6903F007039B000F2202FA03F3DB4301
:1016AC00BA691340BB613B681A69FB6903F0070315
:1016BC009B0002FA03F3BA691343BB61FB69DA08B6
:1016CC007B680832B96943F822107B681B68BB61E0
:1016DC00FB695B00032202FA03F3DB43BA69134094
:1016EC00BB613B685B6803F00302FB695B0002FAB9
:1016FC0003F3BA691343BB617B68BA691A603B6830
:10170C005B6803F44033002B00F0D8802C4BD3F8EB
:10171C00F4302B4A43F00203C2F8F430284BD3F8D0
:10172C00F43003F00203FB60FB68264AFB699B085C
:10173C00023352F82330BB61FB6903F003039B00B7
:10174C000F2202FA03F3DB43BA691340BB617B68D7
:10175C001D4A93424AD07B681C4A93422BD07B682B
:10176C001B4A934225D07B681A4A93421FD07B6850
:10177C00194A934219D07B68184A934213D07B685C
:10178C00174A93420DD07B68164A934207D07B6868
:10179C00154A934201D1092329E00A2327E00723A4
:1017AC0025E0062323E0052321E004231FE0032387
:1017BC001DE002231BE0012319E000BF800000584C
:1017CC00004402580004005800000258000402585B
:1017DC0000080258000C025800100258001402585D
:1017EC0000180258001C0258002402580023FA6901
:1017FC0002F0030292009340BA691343BB6138496B
:10180C00FB699B080233BA6941F823204FF0B043BF
:10181C001B68BB613B69DB43BA691340BB613B6826
:10182C005B6803F48013002B03D0BA693B69134344
:10183C00BB614FF0B042BB6913604FF0B0435B68C3
:10184C00BB613B69DB43BA691340BB613B685B68B6
:10185C0003F40013002B03D0BA693B691343BB613B
:10186C004FF0B042BB6953607B695B68BB613B69FD
:10187C00DB43BA691340BB613B685B6803F400331C
:10188C00002B03D0BA693B691343BB617B69BA690E
:10189C005A607B691B68BB613B69DB43BA691340C7
:1018AC00BB613B685B6803F48033002B03D0BA69DF
:1018BC003B691343BB617B69BA691A60FB690133ED
:1018CC00FB613B681A68FB6922FA03F3002B7FF477
:1018DC006BAE00BF00BF2437BD4680BC704700BF55
:1018EC000004005880B483B000AF78600B467B8056
:1018FC0013467B707B78002B03D07A887B689A61C7
:10190C0003E07B881A047B689A6100BF0C37BD46E4
:10191C0080BC704780B485B000AF78600B467B808C
:10192C007B685B69FB607A88FB6813401A04FB6870
:10193C00D9437B880B401A437B689A6100BF1437EC
:10194C00BD4680BC7047000080B584B000AF7860A5
:10195C00194BDB6803F00403042B0AD0164BDB682D
:10196C0003F007037A689A4201D001231FE0002399
:10197C001DE0114BDB6823F007020F497B68134312
:10198C00CB60FFF7F7FCF86009E0FFF7F3FC0246C9
:10199C00FB68D31AB3F57A7F01D9012307E0064B14
:1019AC005B6803F40053B3F5005FEED100231846D7
:1019BC001037BD4680BD00BF0048025880B58CB0C2
:1019CC0000AF78607B68002B01D10123C8E37B68F2
:1019DC001B6803F00103002B00F08780884B1B6908
:1019EC0003F03803FB62864B9B6ABB62FB6A102BCD
:1019FC0007D0FB6A182B10D1BB6A03F00303022B30
:101A0C000BD17F4B1B6803F40033002B6CD07B682D
:101A1C005B68002B68D10123A2E37B685B68B3F59C
:101A2C00803F06D1764B1B68754A43F480331360B4
:101A3C002EE07B685B68002B0CD1714B1B68704AE5
:101A4C0023F4803313606E4B1B686D4A23F48023A0
:101A5C0013601DE07B685B68B3F5A02F0CD1684B5D
:101A6C001B68674A43F480231360654B1B68644A08
:101A7C0043F4803313600BE0614B1B68604A23F422
:101A8C00803313605E4B1B685D4A23F48023136024
:101A9C007B685B68002B13D0FFF76CFC786208E066
:101AAC00FFF768FC02467B6AD31A642B01D9032327
:101ABC0056E3534B1B6803F40033002BF0D014E0B7
:101ACC00FFF758FC786208E0FFF754FC02467B6A8B
:101ADC00D31A642B01D9032342E3494B1B6803F44B
:101AEC000033002BF0D100E000BF7B681B6803F0D3
:101AFC000203002B00F08C80414B1B6903F0380370
:101B0C003B623F4B9B6AFB613B6A002B07D03B6AF5
:101B1C00182B37D1FB6903F00303002B32D1384B60
:101B2C001B6803F00403002B05D07B68DB68002BDB
:101B3C0001D1012314E3324B1B6823F019027B689B
:101B4C00DB682F4913430B60FFF714FC786208E045
:101B5C00FFF710FC02467B6AD31A022B01D9032330
:101B6C00FEE2274B1B6803F00403002BF0D0244B40
:101B7C005B6823F0FE427B681B691B0620491343FC
:101B8C004B6045E07B68DB68002B26D01C4B1B6848
:101B9C0023F019027B68DB68194913430B60FFF7CC
:101BAC00E9FB786208E0FFF7E5FB02467B6AD31A93
:101BBC00022B01D90323D3E2114B1B6803F004035E
:101BCC00002BF0D00E4B5B6823F0FE427B681B6948
:101BDC001B060B4913434B601AE0094B1B68084A60
:101BEC0023F001031360FFF7C5FB78620AE0FFF7EF
:101BFC00C1FB02467B6AD31A022B03D90323AFE243
:101C0C0000440258964B1B6803F00403002BEED1E2
:101C1C007B681B6803F01003002B6AD0904B1B6988
:101C2C0003F03803BB618E4B9B6A7B61BB69082B4D
:101C3C0007D0BB69182B1BD17B6903F00303012B65
:101C4C0016D1874B1B6803F48073002B05D07B687F
:101C5C00DB69802B01D0012382E2814BDB6823F00E
:101C6C007C527B681B6A1B067D491343CB6040E0AA
:101C7C007B68DB69002B23D0794B1B68784A43F0D7
:101C8C0080031360FFF776FB786208E0FFF772FBC6
:101C9C0002467B6AD31A022B01D9032360E2704BF4
:101CAC001B6803F48073002BF0D06D4BDB6823F0C2
:101CBC007C527B681B6A1B0669491343CB6018E096
:101CCC00674B1B68664A23F080031360FFF752FBD7
:101CDC00786208E0FFF74EFB02467B6AD31A022BB0
:101CEC0001D903233CE25E4B1B6803F48073002B89
:101CFC00F0D17B681B6803F00803002B36D07B689F
:101D0C005B69002B19D0564B5B6F554A43F00103AE
:101D1C005367FFF72FFB786208E0FFF72BFB0246B7
:101D2C007B6AD31A022B01D9032319E24C4B5B6F4C
:101D3C0003F00203002BF0D018E0494B5B6F484ACC
:101D4C0023F001035367FFF715FB786208E0FFF7F8
:101D5C0011FB02467B6AD31A022B01D90323FFE144
:101D6C003F4B5B6F03F00203002BF0D17B681B68C9
:101D7C0003F02003002B36D07B689B69002B19D015
:101D8C00374B1B68364A43F480531360FFF7F2FA63
:101D9C00786208E0FFF7EEFA02467B6AD31A022B50
:101DAC0001D90323DCE12E4B1B6803F40053002BF9
:101DBC00F0D018E02A4B1B68294A23F48053136097
:101DCC00FFF7D8FA786208E0FFF7D4FA02467B6A8C
:101DDC00D31A022B01D90323C2E1214B1B6803F454
:101DEC000053002BF0D17B681B6803F00403002B1D
:101DFC0000F086801B4B1B681A4A43F480731360F7
:101E0C00FFF7B8FA786208E0FFF7B4FA02467B6A8B
:101E1C00D31A642B01D90323A2E1124B1B6803F4E0
:101E2C008073002BF0D07B689B68012B06D10C4B88
:101E3C001B6F0B4A43F00103136732E07B689B680E
:101E4C00002B11D1064B1B6F054A23F001031367BE
:101E5C00034B1B6F024A23F00403136721E000BFFE
:101E6C0000440258004802587B689B68052B0CD133
:101E7C00834B1B6F824A43F004031367804B1B6F29
:101E8C007F4A43F0010313670BE07D4B1B6F7C4AC9
:101E9C0023F0010313677A4B1B6F794A23F0040379
:101EAC0013677B689B68002B15D0FFF763FA786289
:101EBC000AE0FFF75FFA02467B6AD31A41F28832D6
:101ECC00934201D903234BE16D4B1B6F03F00203CB
:101EDC00002BEED014E0FFF74DFA78620AE0FFF722
:101EEC0049FA02467B6AD31A41F28832934201D9ED
:101EFC00032335E1624B1B6F03F00203002BEED181
:101F0C007B685B6A002B00F02A815D4B1B6903F038
:101F1C003803182B00F0BA807B685B6A022B40F008
:101F2C009580574B1B68564A23F080731360FFF75C
:101F3C0021FA786208E0FFF71DFA02467B6AD31A91
:101F4C00022B01D903230BE14D4B1B6803F00073EB
:101F5C00002BF0D14A4B9A6A4A4B13407A68916A2B
:101F6C007A68D26A12010A43454913438B627B6833
:101F7C001B6B013BC3F308027B685B6B013B5B0291
:101F8C009BB21A437B689B6B013B1B0403F4FE035F
:101F9C001A437B68DB6B013B1B0603F0FE4338499D
:101FAC0013430B63364BDB6A354A23F00103D362D0
:101FBC00334B5A6B344B13407A68926CD2003049D5
:101FCC0013434B632E4BDB6A23F00C027B681B6CB8
:101FDC002B491343CB622A4BDB6A23F002027B684A
:101FEC005B6C27491343CB62254BDB6A244A43F4D1
:101FFC008033D362224BDB6A214A43F40033D36231
:10200C001F4BDB6A1E4A43F48023D3621C4BDB6AF2
:10201C001B4A43F00103D362194B1B68184A43F067
:10202C0080731360FFF7A6F9786208E0FFF7A2F956
:10203C0002467B6AD31A022B01D9032390E0104B82
:10204C001B6803F00073002BF0D088E00C4B1B686E
:10205C000B4A23F080731360FFF78CF9786208E069
:10206C00FFF788F902467B6AD31A022B01D90323A6
:10207C0076E0034B1B6803F00073002BF0D16EE08D
:10208C00004402580CFCFFFF0700FFFF364B9B6A15
:10209C003B61354B1B6BFB607B685B6A012B31D062
:1020AC003B6903F003027B689B6A9A422AD13B6925
:1020BC001B0903F03F027B68DB6A9A4222D1FB6862
:1020CC00C3F308027B681B6B013B9A421AD1FB6875
:1020DC005B0A03F07F027B685B6B013B9A4211D178
:1020EC00FB681B0C03F07F027B689B6B013B9A42E5
:1020FC0008D1FB681B0E03F07F027B68DB6B013B96
:10210C009A4201D001232BE0174B5B6BDB08C3F326
:10211C000C033B617B689B6C3A699A421FD0124B53
:10212C00DB6A114A23F00103D362FFF723F97862CB
:10213C0000BFFFF71FF902467B6A9342F9D00A4BA6
:10214C005A6B0A4B13407A68926CD20006491343BF
:10215C004B63054BDB6A044A43F00103D362002353
:10216C0018463037BD4680BD004402580700FFFFBB
:10217C0080B586B000AF786039607B68002B01D1E8
:10218C0001239CE18A4B1B6803F00F033A689A42C7
:10219C0010D9874B1B6823F00F0285493B6813430A
:1021AC000B60834B1B6803F00F033A689A4201D013
:1021BC00012384E17B681B6803F00403002B10D01F
:1021CC007B681A697B4B9B6903F070039A4208D9B0
:1021DC00784B9B6923F070027B681B69754913432C
:1021EC008B617B681B6803F00803002B10D07B68A5
:1021FC005A69704BDB6903F070039A4208D96D4B36
:10220C00DB6923F070027B685B696A491343CB611D
:10221C007B681B6803F01003002B10D07B689A6955
:10222C00644BDB6903F4E0639A4208D9614BDB69C8
:10223C0023F4E0627B689B695E491343CB617B6846
:10224C001B6803F02003002B10D07B68DA69594B14
:10225C001B6A03F070039A4208D9564B1B6A23F091
:10226C0070027B68DB69534913430B627B681B6804
:10227C0003F00203002B10D07B68DA684D4B9B698E
:10228C0003F00F039A4208D94A4B9B6923F00F02C3
:10229C007B68DB68474913438B617B681B6803F0E1
:1022AC000103002B55D0434B9B6923F470627B6870
:1022BC009B68404913438B617B685B68022B07D199
:1022CC003C4B1B6803F40033002B21D10123F6E0B7
:1022DC007B685B68032B07D1364B1B6803F00073DC
:1022EC00002B15D10123EAE07B685B68012B07D139
:1022FC00304B1B6803F48073002B09D10123DEE003
:10230C002C4B1B6803F00403002B01D10123D6E0F6
:10231C00284B1B6923F007027B685B682549134334
:10232C000B61FFF727F878610AE0FFF723F8024604
:10233C007B69D31A41F28832934201D90323BEE060
:10234C001C4B1B6903F038027B685B68DB009A420C
:10235C00EBD17B681B6803F00203002B10D07B6869
:10236C00DA68144B9B6903F00F039A4208D2114BA5
:10237C009B6923F00F027B68DB680E4913438B616A
:10238C000B4B1B6803F00F033A689A4214D2084BAC
:10239C001B6823F00F0206493B6813430B60044B88
:1023AC001B6803F00F033A689A4205D0012386E0BC
:1023BC0000200052004402587B681B6803F00403A1
:1023CC00002B10D07B681A693F4B9B6903F070039C
:1023DC009A4208D23C4B9B6923F070027B681B69C4
:1023EC00394913438B617B681B6803F00803002B8E
:1023FC0010D07B685A69344BDB6903F070039A4246
:10240C0008D2314BDB6923F070027B685B692E4983
:10241C001343CB617B681B6803F01003002B10D0B7
:10242C007B689A69284BDB6903F4E0639A4208D213
:10243C00254BDB6923F4E0627B689B6922491343DB
:10244C00CB617B681B6803F02003002B10D07B68EA
:10245C00DA691D4B1B6A03F070039A4208D21A4BBF
:10246C001B6A23F070027B68DB69174913430B620C
:10247C0000F034F80246144B9B691B0A03F00F035F
:10248C001249CB5C03F01F0322FA03F33B610E4BA2
:10249C009B6903F00F030D4AD35C03F01F033A69E9
:1024AC0022FA03F30A4A13600A4A3B6913600A4B87
:1024BC001B681846FEF716FF0346FB73FB7B18469A
:1024CC001837BD4680BD00BF00440258C8650008DF
:1024DC00040000240000002408000024B0B588B0DB
:1024EC0000AFA04B1B6903F03803182B00F28B8153
:1024FC0001A252F823F000BF692500081328000838
:10250C0013280008132800081328000813280008B3
:10251C0013280008132800088F250008132800082A
:10252C001328000813280008132800081328000893
:10253C001328000813280008952500081328000804
:10254C001328000813280008132800081328000873
:10255C0013280008132800089B250008814B1B68D2
:10256C0003F02003002B09D07E4B1B68DB0803F023
:10257C0003037D4A22FA03F3BB6147E17A4BBB614B
:10258C0044E17A4BBB6141E1794BBB613EE1754B58
:10259C009B6A03F003037B61724B9B6A1B0903F07C
:1025AC003F033B616F4BDB6A03F00103FB606D4B38
:1025BC005B6BDB08C3F30C03FA6802FB03F31846EE
:1025CC00FDF734FF0346BB603B69002B00F018811C
:1025DC007B69022B00F09C807B69022B00F2D0807F
:1025EC007B69002B03D07B69012B67D0C8E05D4B66
:1025FC001B6803F02003002B36D05A4B1B68DB08FA
:10260C0003F00303584A22FA03F37B607868FDF762
:10261C000DFF04463869FDF709FF034619462046AD
:10262C00FEF710F803461D464E4B1B6BC3F3080315
:10263C001846FDF7FBFE04464FF08C41B868FEF7D8
:10264C0001F8034619462046FDF740FE03464FF0BD
:10265C007E511846FDF73AFE034619462846FDF70B
:10266C003DFF0346FB61B5E03869FDF7DFFE03462D
:10267C0019464048FDF7E6FF03461D46394B1B6BD8
:10268C00C3F308031846FDF7D1FE04464FF08C4106
:10269C00B868FDF7D7FF034619462046FDF716FE2E
:1026AC0003464FF07E511846FDF710FE03461946BF
:1026BC002846FDF713FF0346FB618BE03869FDF7F5
:1026CC00B5FE034619462C48FDF7BCFF03461D46D4
:1026DC00244B1B6BC3F308031846FDF7A7FE0446F7
:1026EC004FF08C41B868FDF7ADFF03461946204604
:1026FC00FDF7ECFD03464FF07E511846FDF7E6FD65
:10270C00034619462846FDF7E9FE0346FB6161E0E6
:10271C003869FDF78BFE034619461848FDF792FF02
:10272C0003461D460F4B1B6BC3F308031846FDF7FE
:10273C007DFE04464FF08C41B868FDF783FF0346DD
:10274C0019462046FDF7C2FD03464FF07E51184650
:10275C00FDF7BCFD034619462846FDF7BFFE0346B0
:10276C00FB6137E0004402580090D00300093D00A3
:10277C0000366E010024744C0024744A001BB74BC5
:10278C003869FDF753FE034619462348FDF75AFFF7
:10279C0003461D46214B1B6BC3F308031846FDF77C
:1027AC0045FE04464FF08C41B868FDF74BFF0346DD
:1027BC0019462046FDF78AFD03464FF07E51184618
:1027CC00FDF784FD034619462846FDF787FE0346B0
:1027DC00FB6100BF114B1B6B5B0A03F07F030133E2
:1027EC003B603868FDF722FE03461946F869FDF791
:1027FC0029FF03461846FEF75DF80346BB6105E06A
:10280C000023BB6102E0064BBB6100BFBB691846ED
:10281C002037BD46B0BD00BF0024744A00440258A6
:10282C0000093D0080B582B000AFFFF757FE0246AD
:10283C00104B9B691B0A03F00F030F49CB5C03F091
:10284C001F0322FA03F37B600A4B9B6903F00F030F
:10285C00094AD35C03F01F037A6822FA03F3074A90
:10286C001360074A7B681360044B1B6818460837D3
:10287C00BD4680BD00440258C86500080400002411
:10288C000000002480B500AFFFF7CCFF0246064BDA
:10289C00DB691B0903F007030449CB5C03F01F033E
:1028AC0022FA03F3184680BD00440258C86500089C
:1028BC0080B500AFFFF7B6FF0246064BDB691B0A7B
:1028CC0003F007030449CB5C03F01F0322FA03F364
:1028DC00184680BD00440258C86500082DE9B04F69
:1028EC00C6B000AFC7F80401002387F817310023E6
:1028FC0087F81631D7F80431D3E9002302F00064CD
:10290C00002554EA050349D0D7F804315B6EB3F5C2
:10291C00401F2FD0B3F5401F28D8B3F5001F1AD095
:10292C00B3F5001F22D8002B03D0B3F5801F07D0BE
:10293C001CE0AB4BDB6AAA4A43F40033D3621AE0C7
:10294C00D7F8043108330221184601F085FC034600
:10295C0087F817310FE0D7F80431283302211846D5
:10296C0001F02CFD034687F8173104E0012387F8AA
:10297C00173100E000BF97F81731002B0AD1984BA4
:10298C001B6D23F44011D7F804315B6E944A0B4352
:10299C00136503E097F8173187F81631D7F804312F
:1029AC00D3E9002302F480784FF0000958EA0903B8
:1029BC0047D0D7F804319B6D042B2AD801A252F8CA
:1029CC0023F000BFE5290008F3290008092A0008B4
:1029DC00272A0008272A0008814BDB6A804A43F427
:1029EC000033D3621AE0D7F80431083300211846BB
:1029FC0001F032FC034687F817310FE0D7F80431A9
:102A0C0028330021184601F0D9FC034687F817310A
:102A1C0004E0012387F8173100E000BF97F8173165
:102A2C00002B0AD16E4B1B6D23F00701D7F8043134
:102A3C009B6D6B4A0B43136503E097F8173187F8CE
:102A4C001631D7F80431D3E9002302F4806A4FF031
:102A5C00000B5AEA0B035BD0D7F80431D3F8A4303F
:102A6C00B3F5200F3BD0B3F5200F34D8B3F5000FDE
:102A7C0037D0B3F5000F2ED8B3F5C00F33D0B3F564
:102A8C00C00F28D8B3F5800F1AD0B3F5800F22D819
:102A9C00002B03D0B3F5001F07D01CE0504BDB6AB2
:102AAC004F4A43F40033D3621EE0D7F804310833A5
:102ABC000021184601F0D0FB034687F8173113E0CC
:102ACC00D7F8043128330021184601F077FC03466F
:102ADC0087F8173108E0012387F8173104E000BFAD
:102AEC0002E000BF00E000BF97F81731002B0BD1BC
:102AFC003B4B9B6D23F46001D7F80431D3F8A43021
:102B0C00374A0B43936503E097F8173187F8163172
:102B1C00D7F80431D3E9002302F40063C7F8F83086
:102B2C000023C7F8FC30D7E93E120B4613435DD0A7
:102B3C00D7F80431D3F8A830B3F1A06F3BD0B3F180
:102B4C00A06F34D8B3F1806F37D0B3F1806F2ED82B
:102B5C00B3F1407F33D0B3F1407F28D8B3F1007F7D
:102B6C001AD0B3F1007F22D8002B03D0B3F1807FB1
:102B7C0007D01CE01A4BDB6A194A43F40033D362CA
:102B8C001EE0D7F8043108330021184601F064FB2D
:102B9C00034687F8173113E0D7F8043128330021A6
:102BAC00184601F00BFC034687F8173108E00123A7
:102BBC0087F8173104E000BF02E000BF00E000BF5F
:102BCC0097F81731002B0DD1054B9B6D23F0E0616D
:102BDC00D7F80431D3F8A830014A0B43936505E0CC
:102BEC000044025897F8173187F81631D7F804319A
:102BFC00D3E9002302F00073C7F8F0300023C7F8C4
:102C0C00F430D7E93C120B4613433AD0D7F80431D1
:102C1C00DB6C302B1FD0302B19D8202B0CD0202B59
:102C2C0015D8002B19D0102B11D1AA4BDB6AA94A4D
:102C3C0043F40033D36211E0D7F804310833022196
:102C4C00184601F009FB034687F8173106E001230B
:102C5C0087F8173102E000BF00E000BF97F817318A
:102C6C00002B0AD19B4BDB6C23F03001D7F80431DD
:102C7C00DB6C984A0B43D36403E097F8173187F861
:102C8C001631D7F80431D3E9002302F48053C7F886
:102C9C00E8300023C7F8EC30D7E93A120B4613435F
:102CAC0051D0D7F80431DB6DB3F5804F35D0B3F587
:102CBC00804F2ED8B3F5405F31D0B3F5405F28D8A4
:102CCC00B3F5005F1AD0B3F5005F22D8002B03D008
:102CDC00B3F5805F07D01CE07E4BDB6A7D4A43F482
:102CEC000033D3621CE0D7F80431083300211846B6
:102CFC0001F0B2FA034687F8173111E0D7F8043126
:102D0C0028330021184601F059FB034687F8173188
:102D1C0006E0012387F8173102E000BF00E000BF96
:102D2C0097F81731002B0AD16A4B1B6D23F4E04145
:102D3C00D7F80431DB6D674A0B43136503E097F852
:102D4C00173187F81631D7F80431D3E9002302F490
:102D5C000053C7F8E0300023C7F8E430D7E9381245
:102D6C000B46134353D0D7F804311B6EB3F5A02F89
:102D7C0033D0B3F5A02F2CD8B3F5802F2FD0B3F5CB
:102D8C00802F26D8B3F5403F2BD0B3F5403F20D849
:102D9C00B3F5003F12D0B3F5003F1AD8002B22D068
:102DAC00B3F5803F15D1D7F804310833012118460B
:102DBC0001F052FA034687F8173115E0D7F80431C1
:102DCC0028330121184601F0F9FA034687F8173128
:102DDC000AE0012387F8173106E000BF04E000BFCA
:102DEC0002E000BF00E000BF97F81731002B0AD1BA
:102DFC00384B1B6D23F4E021D7F804311B6E354A98
:102E0C000B43136503E097F8173187F81631D7F8A1
:102E1C000431D3E9002302F48043C7F8D8300023EF
:102E2C00C7F8DC30D7E936120B46134358D0D7F825
:102E3C000431D3F8AC30B3F1A04F33D0B3F1A04F81
:102E4C002CD8B3F1804F2FD0B3F1804F26D8B3F1EB
:102E5C00405F2BD0B3F1405F20D8B3F1005F12D0AC
:102E6C00B3F1005F1AD8002B22D0B3F1805F15D1DB
:102E7C00D7F8043108330121184601F0EDF9034667
:102E8C0087F8173115E0D7F804312833012118469B
:102E9C0001F094FA034687F817310AE0012387F80A
:102EAC00173106E000BF04E000BF02E000BF00E005
:102EBC0000BF97F81731002B0ED1064B9B6D23F0FA
:102ECC00E041D7F80431D3F8AC30024A0B43936598
:102EDC0006E000BF0044025897F8173187F8163106
:102EEC00D7F80431D3E9002302F40043C7F8D030FB
:102EFC000023C7F8D430D7E934120B46134337D02C
:102F0C00D7F80431DB6EB3F1005F0ED0B3F1005F84
:102F1C0016D8002B18D0B3F1805F11D18C4BDB6A23
:102F2C008B4A43F40033D3620FE0D7F804310833F3
:102F3C000121184601F090F9034687F8173104E097
:102F4C00012387F8173100E000BF97F81731002BE9
:102F5C000AD17F4B1B6D23F04051D7F80431DB6E47
:102F6C007B4A0B43136503E097F8173187F816314A
:102F7C00D7F80431D3E9002302F08073C7F8C830C6
:102F8C000023C7F8CC30D7E932120B46134339D0A3
:102F9C00D7F804319B6C032B1CD801A252F823F0F8
:102FAC00E92F0008BD2F0008CB2F0008E92F0008DF
:102FBC00674BDB6A664A43F40033D3620FE0D7F801
:102FCC00043108330221184601F046F9034687F80C
:102FDC00173104E0012387F8173100E000BF97F8A0
:102FEC001731002B0AD15A4BDB6C23F00301D7F8B5
:102FFC0004319B6C564A0B43D36403E097F81731AA
:10300C0087F81631D7F80431D3E9002302F4800392
:10301C00C7F8C0300023C7F8C430D7E930120B46CC
:10302C00134300F09F804B4B1B684A4A43F4807358
:10303C001360FEF79FF9C7F810010BE0FEF79AF941
:10304C000246D7F81031D31A642B03D9032387F81F
:10305C00173105E03F4B1B6803F48073002BEDD058
:10306C0097F81731002B79D1394B1A6FD7F80431F7
:10307C00D3F8B030534003F44073002B15D0344BCD
:10308C001B6F23F44073C7F80C31314B1B6F304A64
:10309C0043F4803313672E4B1B6F2D4A23F480337C
:1030AC0013672B4AD7F80C311367D7F80431D3F8D0
:1030BC00B030B3F5807F18D1FEF75CF9C7F810017A
:1030CC000DE0FEF757F90246D7F81031D21A41F24B
:1030DC0088339A4203D9032387F8173105E01C4B38
:1030EC001B6F03F00203002BEBD097F81731002B6A
:1030FC0029D1D7F80431D3F8B03003F44073B3F5C9
:10310C00407F0ED1124B1B6923F47C51D7F804314C
:10311C00D3F8B0301A09104B13400D4A0B4313610E
:10312C0005E00B4B1B690A4A23F47C531361084BD3
:10313C00196FD7F80431D3F8B030C3F30B03044A3A
:10314C000B4313670EE097F8173187F8163109E037
:10315C000044025800480258CFFFFF0097F817317F
:10316C0087F81631D7F80431D3E9002302F00103B4
:10317C00C7F8B8300023C7F8BC30D7E92E120B467D
:10318C00134300F08980D7F804319B6F282B6BD840
:10319C0001A252F823F000BF7D32000875320008FE
:1031AC007532000875320008753200087532000857
:1031BC007532000875320008493200087532000873
:1031CC007532000875320008753200087532000837
:1031DC0075320008753200085F320008753200083D
:1031EC007532000875320008753200087532000817
:1031FC0075320008753200087D32000875320008FF
:10320C0075320008753200087532000875320008F6
:10321C0075320008753200087D32000875320008DE
:10322C0075320008753200087532000875320008D6
:10323C0075320008753200087D320008D7F8043169
:10324C0008330121184601F007F8034687F81731B7
:10325C000FE0D7F8043128330121184601F0AEF8FD
:10326C00034687F8173104E0012387F8173100E093
:10327C0000BF97F81731002B0AD1BF4B5B6D23F0C1
:10328C003801D7F804319B6FBB4A0B43536503E0FD
:10329C0097F8173187F81631D7F80431D3E90023A2
:1032AC0002F00203C7F8B0300023C7F8B430D7E9F6
:1032BC002C120B46134341D0D7F804315B6F052B0E
:1032CC0024D801A252F823F021330008ED32000873
:1032DC000333000821330008213300082133000890
:1032EC00D7F8043108330121184600F0B5FF034626
:1032FC0087F817310FE0D7F804312833012118462D
:10330C0001F05CF8034687F8173104E0012387F8D5
:10331C00173100E000BF97F81731002B0AD1964BFC
:10332C005B6D23F00701D7F804315B6F924A0B43B6
:10333C00536503E097F8173187F81631D7F8043145
:10334C00D3E9002302F00403C7F8A8300023C7F820
:10335C00AC30D7E92A120B46134344D0D7F80431CA
:10336C00D3F89030052B25D801A252F823F000BFDA
:10337C00C933000895330008AB330008C933000883
:10338C00C9330008C9330008D7F8043108330121C8
:10339C00184600F061FF034687F817310FE0D7F8A5
:1033AC00043128330121184601F008F8034687F848
:1033BC00173104E0012387F8173100E000BF97F8BC
:1033CC001731002B0BD16C4B9B6D23F00701D7F8F9
:1033DC000431D3F89030684A0B43936503E097F8B7
:1033EC00173187F81631D7F80431D3E9002302F0EE
:1033FC002003C7F8A0300023C7F8A430D7E928125F
:10340C000B46134355D0D7F80431D3F88C30B3F1B5
:10341C00A04F33D0B3F1A04F2CD8B3F1804F2FD0A5
:10342C00B3F1804F26D8B3F1405F2BD0B3F1405F9E
:10343C0020D8B3F1005F12D0B3F1005F1AD8002B83
:10344C0022D0B3F1805F15D1D7F8043108330021B5
:10345C00184600F001FF034687F8173115E0D7F83E
:10346C00043128330221184600F0A8FF034687F8E0
:10347C0017310AE0012387F8173106E000BF04E09A
:10348C0000BF02E000BF00E000BF97F81731002B2F
:10349C000BD1394B5B6D23F0E041D7F80431D3F8F5
:1034AC008C30354A0B43536503E097F8173187F896
:1034BC001631D7F80431D3E9002302F04003C7F8E2
:1034CC0098300023C7F89C30D7E926120B461343DB
:1034DC0058D0D7F80431D3F89830B3F5A05F33D077
:1034EC00B3F5A05F2CD8B3F5805F2FD0B3F5805F18
:1034FC0026D8B3F5406F2BD0B3F5406F20D8B3F579
:10350C00006F12D0B3F5006F1AD8002B22D0B3F590
:10351C00806F15D1D7F8043108330021184600F01C
:10352C009BFE034687F8173115E0D7F80431283392
:10353C000221184600F042FF034687F817310AE0D3
:10354C00012387F8173106E000BF04E000BF02E05A
:10355C0000BF00E000BF97F81731002B0ED1064BCF
:10356C009B6D23F4E051D7F80431D3F89830024A1C
:10357C000B43936506E000BF0044025897F81731DF
:10358C0087F81631D7F80431D3E9002302F0800311
:10359C00C7F890300023C7F89430D7E924120B46B3
:1035AC00134355D0D7F80431D3F89C30B3F5204FE2
:1035BC0033D0B3F5204F2CD8B3F5004F2FD0B3F543
:1035CC00004F26D8B3F5C04F2BD0B3F5C04F20D841
:1035DC00B3F5804F12D0B3F5804F1AD8002B22D000
:1035EC00B3F5005F15D1D7F8043108330021184624
:1035FC0000F032FE034687F8173115E0D7F8043196
:10360C0028330221184600F0D9FE034687F81731FB
:10361C000AE0012387F8173106E000BF04E000BF81
:10362C0002E000BF00E000BF97F81731002B0BD170
:10363C00A04B9B6D23F46041D7F80431D3F89C3038
:10364C009C4A0B43936503E097F8173187F81631C2
:10365C00D7F80431D3E9002302F00803C7F8883007
:10366C000023C7F88C30D7E922120B4613431ED027
:10367C00D7F80431D3F88030B3F5805F0CD1D7F88C
:10368C00043128330221184600F098FE0346002B23
:10369C0002D0012387F81631864B5B6D23F4405121
:1036AC00D7F80431D3F88030824A0B435365D7F8EE
:1036BC000431D3E9002302F01003C7F88030002353
:1036CC00C7F88430D7E920120B4613431ED0D7F825
:1036DC000431D3F89430B3F5807F0CD1D7F8043192
:1036EC0028330221184600F069FE0346002B02D055
:1036FC00012387F816316F4B9B6D23F44071D7F87B
:10370C000431D3F894306B4A0B439365D7F80431EA
:10371C00D3E9002302F40023BB670023FB67D7E93E
:10372C001E120B4613433ED0D7F80431D3F8A03009
:10373C00B3F5003F22D0B3F5003F1BD8002B03D0CC
:10374C00B3F5803F0BD015E0D7F8043108330021D6
:10375C00184600F081FD034687F817310FE0D7F8C3
:10376C00043128330221184600F028FE034687F85E
:10377C00173104E0012387F8173100E000BF97F8F8
:10378C001731002B0BD14B4B9B6D23F44031D7F8E9
:10379C000431D3F8A030474A0B43936503E097F804
:1037AC00173187F81631D7F80431D3E9002302F426
:1037BC0080233B6700237B67D7E91C120B4613431E
:1037CC003BD0D7F80431D3F88430B3F5401F1FD069
:1037DC00B3F5401F18D8B3F5801F03D0B3F5001F05
:1037EC0007D011E0334BDB6A324A43F40033D36227
:1037FC000FE0D7F8043128330121184600F0DEFD24
:10380C00034687F8173104E0012387F8173100E0ED
:10381C0000BF97F81731002B0BD1264B5B6D23F4AF
:10382C004011D7F80431D3F88430224A0B43536546
:10383C0003E097F8173187F81631D7F80431D3E93C
:10384C00002302F48033BB660023FB66D7E91A120F
:10385C000B46134334D0D7F804311B6D002B03D027
:10386C00B3F5803F07D011E0124BDB6A114A43F4E9
:10387C000033D3620EE0D7F8043108330221184626
:10388C0000F0EAFC034687F8173103E0012387F8C0
:10389C00173100BF97F81731002B0DD1054BDB6C9E
:1038AC0023F48031D7F804311B6D024A0B43D364E7
:1038BC0006E000BF0044025897F8173187F816311C
:1038CC00D7F80431D3E9002302F000533B66002300
:1038DC007B66D7E918120B4613430CD0D7F804318A
:1038EC0028330221184600F069FD0346002B02D054
:1038FC00012387F81631D7F80431D3E9002302F4F9
:10390C000033BB650023FB65D7E916120B46134346
:10391C0036D0D7F80431DB6FB3F5407F18D0B3F550
:10392C00407F11D8B3F5007F14D0B3F5007F0BD8CE
:10393C00002B11D0B3F5807F06D1B34BDB6AB24AB2
:10394C0043F40033D36208E0012387F8173104E015
:10395C0000BF02E000BF00E000BF97F81731002B5A
:10396C000AD1A94B5B6D23F44071D7F80431DB6F9E
:10397C00A54A0B43536503E097F8173187F81631C6
:10398C00D7F80431D3E9002302F480133B650023FC
:10399C007B65D7E914120B46134309D09A4B1B6D68
:1039AC0023F00041D7F804311B6F974A0B43136582
:1039BC00D7F80431D3E9002302F40013BB640023CD
:1039CC00FB64D7E912120B46134309D08E4B1B6DC7
:1039DC0023F08071D7F804319B6E8B4A0B4313652F
:1039EC00D7F80431D3E9002302F080433B64002371
:1039FC007B64D7E910120B4613430ED0824B1B6924
:103A0C00814A23F4004313617F4B1969D7F80431C1
:103A1C00D3F8B4307C4A0B431361D7F80431D3E9A3
:103A2C00002302F00043BB630023FB63D7E90E12B3
:103A3C000B46134309D0744BDB6C23F04051D7F881
:103A4C0004315B6D704A0B43D364D7F80431D3E96E
:103A5C00002302F400033B6300237B63D7E90C12C1
:103A6C000B4613430AD0684B5B6D23F44001D7F827
:103A7C000431D3F88830644A0B435365D7F80431CA
:103A8C00D3E900230021B96203F00103FB62D7E9FB
:103A9C000A120B46134311D0D7F804310833002116
:103AAC00184600F0D9FB034687F8173197F8173101
:103ABC00002B03D097F8173187F81631D7F804315B
:103ACC00D3E900230021396203F002037B62D7E9BA
:103ADC0008120B46134311D0D7F8043108330121D7
:103AEC00184600F0B9FB034687F8173197F81731E1
:103AFC00002B03D097F8173187F81631D7F804311B
:103B0C00D3E900230021B96103F00403FB61D7E979
:103B1C0006120B46134311D0D7F804310833022197
:103B2C00184600F099FB034687F8173197F81731C0
:103B3C00002B03D097F8173187F81631D7F80431DA
:103B4C00D3E900230021396103F008037B61D7E935
:103B5C0004120B46134311D0D7F80431283300213B
:103B6C00184600F02BFC034687F8173197F81731ED
:103B7C00002B03D097F8173187F81631D7F804319A
:103B8C00D3E900230021B96003F01003FB60D7E9EF
:103B9C0002120B46134311D0D7F8043128330121FC
:103BAC00184600F00BFC034687F8173197F81731CD
:103BBC00002B03D097F8173187F81631D7F804315A
:103BCC00D3E900230021396003F020037B60D7E99F
:103BDC0000120B46134311D0D7F8043128330221BD
:103BEC00184600F0EBFB034687F8173197F81731AE
:103BFC00002B03D097F8173187F8163197F8163148
:103C0C00002B03D1002302E0004402580123184684
:103C1C0007F58C77BD46BDE8B08F00BF80B500AF0F
:103C2C00FEF700FE0246064B1B6A1B0903F0070356
:103C3C000449CB5C03F01F0322FA03F3184680BD42
:103C4C0000440258C8650008B0B588B000AF786071
:103C5C00754B9B6A03F00303BB61734B9B6A1B0B95
:103C6C0003F03F037B61704BDB6A1B0903F001031C
:103C7C003B616D4BDB6BDB08C3F30C033A6902FB56
:103C8C0003F31846FCF7D2FB0346FB607B69002B61
:103C9C0000F04D81BB69022B00F09C80BB69022BAC
:103CAC0000F2CC80BB69002B03D0BB69012B67D021
:103CBC00C4E05D4B1B6803F02003002B36D05A4B3D
:103CCC001B68DB0803F00303584A22FA03F3BB60BA
:103CDC00B868FCF7ABFB04467869FCF7A7FB034616
:103CEC0019462046FCF7AEFC03461D464E4B9B6B1B
:103CFC00C3F308031846FCF799FB04464FF08C41BC
:103D0C00F868FCF79FFC034619462046FCF7DEFAE0
:103D1C0003464FF07E511846FCF7D8FA0346194675
:103D2C002846FCF7DBFB0346FB61B1E07869FCF746
:103D3C007DFB034619463E48FCF784FC03461D46B2
:103D4C00394B9B6BC3F308031846FCF76FFB044617
:103D5C004FF08C41F868FCF775FC03461946204679
:103D6C00FCF7B4FA03464FF07E511846FCF7AEFA56
:103D7C00034619462846FCF7B1FB0346FB6187E076
:103D8C007869FCF753FB034619462A48FCF75AFCA2
:103D9C0003461D46244B9B6BC3F308031846FCF7E4
:103DAC0045FB04464FF08C41F868FCF74BFC03468E
:103DBC0019462046FCF78AFA03464FF07E51184606
:103DCC00FCF784FA034619462846FCF787FB0346A2
:103DDC00FB615DE07869FCF729FB03461946164840
:103DEC00FCF730FC03461D460F4B9B6BC3F30803DB
:103DFC001846FCF71BFB04464FF08C41F868FCF7A7
:103E0C0021FC034619462046FCF760FA03464FF0A6
:103E1C007E511846FCF75AFA034619462846FCF719
:103E2C005DFB0346FB6133E0004402580090D00375
:103E3C000024744C0024744A001BB74B7869FCF7BF
:103E4C00F5FA034619464048FCF7FCFB03461D46B1
:103E5C003E4B9B6BC3F308031846FCF7E7FA04468A
:103E6C004FF08C41F868FCF7EDFB034619462046F1
:103E7C00FCF72CFA03464FF07E511846FCF726FA55
:103E8C00034619462846FCF729FB0346FB6100BF95
:103E9C002E4B9B6B5B0A03F07F031846FCF7C6FAAC
:103EAC0003464FF07E511846FCF710FA03461946AC
:103EBC00F869FCF7C7FB03461846FCF7FBFC024607
:103ECC007B681A60214B9B6B1B0C03F07F0318461D
:103EDC00FCF7ACFA03464FF07E511846FCF7F6F9A6
:103EEC0003461946F869FCF7ADFB03461846FCF788
:103EFC00E1FC02467B685A60144B9B6B1B0E03F073
:103F0C007F031846FCF792FA03464FF07E51184691
:103F1C00FCF7DCF903461946F869FCF793FB0346FA
:103F2C001846FCF7C7FC02467B689A6008E07B6881
:103F3C0000221A607B6800225A607B6800229A601B
:103F4C0000BF2037BD46B0BD0024744A004402585F
:103F5C00B0B588B000AF7860754B9B6A03F0030373
:103F6C00BB61734B9B6A1B0D03F03F037B61704B72
:103F7C00DB6A1B0A03F001033B616D4B5B6CDB08D6
:103F8C00C3F30C033A6902FB03F31846FCF74EFA31
:103F9C000346FB607B69002B00F04D81BB69022B53
:103FAC0000F09C80BB69022B00F2CC80BB69002B1B
:103FBC0003D0BB69012B67D0C4E05D4B1B6803F0D9
:103FCC002003002B36D05A4B1B68DB0803F003038D
:103FDC00584A22FA03F3BB60B868FCF727FA044688
:103FEC007869FCF723FA034619462046FCF72AFBAE
:103FFC0003461D464E4B1B6CC3F308031846FCF7D7
:10400C0015FA04464FF08C41F868FCF71BFB03468D
:10401C0019462046FCF75AF903464FF07E511846D4
:10402C00FCF754F9034619462846FCF757FA0346A1
:10403C00FB61B1E07869FCF7F9F9034619463E4893
:10404C00FCF700FB03461D46394B1B6CC3F30803FE
:10405C001846FCF7EBF904464FF08C41F868FCF776
:10406C00F1FA034619462046FCF730F903464FF0A7
:10407C007E511846FCF72AF9034619462846FCF7E8
:10408C002DFA0346FB6187E07869FCF7CFF903460C
:10409C0019462A48FCF7D6FA03461D46244B1B6CDE
:1040AC00C3F308031846FCF7C1F904464FF08C41E2
:1040BC00F868FCF7C7FA034619462046FCF706F9E0
:1040CC0003464FF07E511846FCF700F9034619469B
:1040DC002846FCF703FA0346FB615DE07869FCF7C0
:1040EC00A5F9034619461648FCF7ACFA03461D46DB
:1040FC000F4B1B6CC3F308031846FCF797F90446E7
:10410C004FF08C41F868FCF79DFA0346194620469F
:10411C00FCF7DCF803464FF07E511846FCF7D6F856
:10412C00034619462846FCF7D9F90346FB6133E0F0
:10413C00004402580090D0030024744C0024744AAC
:10414C00001BB74B7869FCF771F9034619464048D8
:10415C00FCF778FA03461D463E4B1B6CC3F3080371
:10416C001846FCF763F904464FF08C41F868FCF7ED
:10417C0069FA034619462046FCF7A8F803464FF0A7
:10418C007E511846FCF7A2F8034619462846FCF760
:10419C00A5F90346FB6100BF2E4B1B6C5B0A03F0B9
:1041AC007F031846FCF742F903464FF07E51184640
:1041BC00FCF78CF803461946F869FCF743FA0346FA
:1041CC001846FCF777FB02467B681A60214B1B6C88
:1041DC001B0C03F07F031846FCF728F903464FF03D
:1041EC007E511846FCF772F803461946F869FCF73D
:1041FC0029FA03461846FCF75DFB02467B685A60B9
:10420C00144B1B6C1B0E03F07F031846FCF70EF9C6
:10421C0003464FF07E511846FCF758F803461946F2
:10422C00F869FCF70FFA03461846FCF743FB024605
:10423C007B689A6008E07B6800221A607B68002229
:10424C005A607B6800229A6000BF2037BD46B0BD23
:10425C000024744A0044025880B584B000AF7860E2
:10426C0039600023FB73534B9B6A03F00303032B4E
:10427C0001D1012399E04F4B1B684E4A23F0806318
:10428C001360FDF777F8B86008E0FDF773F80246A5
:10429C00BB68D31A022B01D9032386E0454B1B685C
:1042AC0003F00063002BF0D1424B9B6A23F47C3269
:1042BC007B681B681B033F4913438B627B685B68FD
:1042CC00013BC3F308027B689B68013B5B029BB21A
:1042DC001A437B68DB68013B1B0403F4FE031A439F
:1042EC007B681B69013B1B0603F0FE4331491343FA
:1042FC008B63304BDB6A23F0C0027B685B692D4912
:10430C001343CB622B4BDB6A23F020027B689B6947
:10431C0028491343CB62274BDB6A264A23F0100350
:10432C00D362244BDA6B244B13407A68D269D200E7
:10433C0020491343CB631F4BDB6A1E4A43F0100327
:10434C00D3623B68002B06D11A4BDB6A194A43F443
:10435C000023D3620FE03B68012B06D1154BDB6ABF
:10436C00144A43F48013D36205E0124BDB6A114A02
:10437C0043F40013D3620F4B1B680E4A43F0806367
:10438C001360FCF7F7FFB86008E0FCF7F3FF024698
:10439C00BB68D31A022B01D9032306E0054B1B681B
:1043AC0003F00063002BF0D0FB7B18461037BD46A2
:1043BC0080BD00BF004402580700FFFF80B584B0E9
:1043CC0000AF786039600023FB73534B9B6A03F09A
:1043DC000303032B01D1012399E04F4B1B684E4A79
:1043EC0023F080531360FCF7C5FFB86008E0FCF7BE
:1043FC00C1FF0246BB68D31A022B01D9032386E006
:10440C00454B1B6803F00053002BF0D1424B9B6AC9
:10441C0023F07C727B681B681B053F4913438B623E
:10442C007B685B68013BC3F308027B689B68013BBC
:10443C005B029BB21A437B68DB68013B1B0403F4F1
:10444C00FE031A437B681B69013B1B0603F0FE430A
:10445C00314913430B64304BDB6A23F440627B68B5
:10446C005B692D491343CB622B4BDB6A23F400723F
:10447C007B689B6928491343CB62274BDB6A264A2E
:10448C0023F48073D362244B5A6C244B13407A6808
:10449C00D269D200204913434B641F4BDB6A1E4A7E
:1044AC0043F48073D3623B68002B06D11A4BDB6A52
:1044BC00194A43F48003D3620FE03B68012B06D109
:1044CC00154BDB6A144A43F40003D36205E0124B2C
:1044DC00DB6A114A43F08073D3620F4B1B680E4AA0
:1044EC0043F080531360FCF745FFB86008E0FCF71D
:1044FC0041FF0246BB68D31A022B01D9032306E005
:10450C00054B1B6803F00053002BF0D0FB7B1846C7
:10451C001037BD4680BD00BF004402580700FFFFA6
:10452C0080B58AB002AFF860B9603B601346FB807F
:10453C00FB68D3F88830202B7BD1BB68002B02D0D2
:10454C00FB88002B01D1012374E0FB680022C3F827
:10455C009020FB682122C3F88820FCF70BFF7861C0
:10456C00FB68FA88A3F85420FB68FA88A3F8562055
:10457C00FB689B68B3F5805F08D1FB681B69002B57
:10458C0004D10023FB61BB68BB6103E0BB68FB612A
:10459C000023BB6130E03B6800937B6900228021E3
:1045AC00F86801F004F80346002B05D0FB682022C4
:1045BC00C3F8882003233DE0FB69002B0BD1BB69BA
:1045CC001B881A46FB681B68C2F308029A62BB6917
:1045DC000233BB6107E0FB691A78FB681B689A62BF
:1045EC00FB690133FB61FB68B3F856309BB2013BAE
:1045FC009AB2FB68A3F85620FB68B3F856309BB20E
:10460C00002BC8D13B6800937B6900224021F868DD
:10461C0000F0CDFF0346002B05D0FB682022C3F829
:10462C008820032306E0FB682022C3F8882000239F
:10463C0000E0022318462037BD4680BD2DE9B04F5F
:10464C0092B000AF7861002387F842307B699A689A
:10465C007B691B691A437B695B691A437B69DB695C
:10466C0013437B647B691B681A68BE4B13407A69E1
:10467C001268796C0B4313607B691B685B6823F4CD
:10468C0040517B69DA687B691B680A435A607B6915
:10469C009B697B647B691B68B34A934204D07B693A
:1046AC001B6A7A6C13437B647B691B689A68AF4BFB
:1046BC0013407A691268796C0B4393607B691B68B1
:1046CC00DB6A23F00F017B695A6A7B691B680A431A
:1046DC00DA627B691B68A64A934277D1A54B5B6D66
:1046EC0003F03803282B6DD801A252F823F000BF39
:1046FC00A1470008D1470008D1470008D14700085E
:10470C00D1470008D1470008D1470008D14700081D
:10471C00A9470008D1470008D1470008D147000835
:10472C00D1470008D1470008D1470008D1470008FD
:10473C00B1470008D1470008D1470008D14700080D
:10474C00D1470008D1470008D1470008D1470008DD
:10475C00B9470008D1470008D1470008D1470008E5
:10476C00D1470008D1470008D1470008D1470008BD
:10477C00C1470008D1470008D1470008D1470008BD
:10478C00D1470008D1470008D1470008D14700089D
:10479C00C9470008012387F8433026E3042387F830
:1047AC00433022E3082387F843301EE3102387F8B5
:1047BC0043301AE3202387F8433016E3402387F86D
:1047CC00433012E3802387F843300EE37B691B6888
:1047DC00694A934230D1674B5B6D03F00703052B9D
:1047EC0026D801A252F823F00D48000815480008FD
:1047FC001D480008254800082D48000835480008C9
:10480C00002387F84330F0E2042387F84330ECE2CE
:10481C00082387F84330E8E2102387F84330E4E2BA
:10482C00202387F84330E0E2402387F84330DCE272
:10483C00802387F84330D8E27B691B684F4A934248
:10484C0030D14C4B5B6D03F00703052B26D801A22E
:10485C0052F823F07948000881480008894800087C
:10486C009148000899480008A1480008002387F8DF
:10487C004330BAE2042387F84330B6E2082387F8C2
:10488C004330B2E2102387F84330AEE2202387F89E
:10489C004330AAE2402387F84330A6E2802387F80E
:1048AC004330A2E27B691B68354A934230D1314BCD
:1048BC005B6D03F00703052B26D801A252F823F0F9
:1048CC00E5480008ED480008F5480008FD480008D8
:1048DC00054900080D490008002387F8433084E29D
:1048EC00042387F8433080E2082387F843307CE2C6
:1048FC00102387F8433078E2202387F8433074E2A2
:10490C00402387F8433070E2802387F843306CE211
:10491C007B691B681B4A934242D1164B5B6D03F0BB
:10492C000703052B38D801A252F823F0514900088F
:10493C00594900086149000869490008954900086F
:10494C009D490008002387F843304EE2042387F882
:10495C0043304AE2082387F8433046E2102387F8B5
:10496C00433042E2F369FFCF000C0058FFF4FF1113
:10497C000010014000440258004400400048004030
:10498C00004C004000500040202387F843302CE2BC
:10499C00402387F8433028E2802387F8433024E211
:1049AC007B691B68B14A934276D1B14B5B6D03F0C6
:1049BC003803282B6CD801A252F823F06D4A00085A
:1049CC009D4A00089D4A00089D4A00089D4A00081F
:1049DC009D4A00089D4A00089D4A0008754A000837
:1049EC009D4A00089D4A00089D4A00089D4A0008FF
:1049FC009D4A00089D4A00089D4A00087D4A00080F
:104A0C009D4A00089D4A00089D4A00089D4A0008DE
:104A1C009D4A00089D4A00089D4A0008854A0008E6
:104A2C009D4A00089D4A00089D4A00089D4A0008BE
:104A3C009D4A00089D4A00089D4A00088D4A0008BE
:104A4C009D4A00089D4A00089D4A00089D4A00089E
:104A5C009D4A00089D4A00089D4A0008954A000896
:104A6C00012387F84330C0E1042387F84330BCE1CD
:104A7C00082387F84330B8E1102387F84330B4E1BA
:104A8C00202387F84330B0E1402387F84330ACE172
:104A9C00802387F84330A8E17B691B68754A9342F1
:104AAC0030D1734B5B6D03F00703052B26D801A2A5
:104ABC0052F823F0D94A0008E14A0008E94A0008F4
:104ACC00F14A0008F94A0008014B0008002387F856
:104ADC0043308AE1042387F8433086E1082387F8C2
:104AEC00433082E1102387F843307EE1202387F89E
:104AFC0043307AE1402387F8433076E1802387F80E
:104B0C00433072E17B691B685B4A934230D1584B4E
:104B1C005B6D03F00703052B26D801A252F823F096
:104B2C00454B00084D4B0008554B00085D4B0008E9
:104B3C00654B00086D4B0008002387F8433054E1A7
:104B4C00042387F8433050E1082387F843304CE1C5
:104B5C00102387F8433048E1202387F8433044E1A1
:104B6C00402387F8433040E1802387F843303CE111
:104B7C007B691B68414A934240F082803C4B5B6DE1
:104B8C0003F03803282B6DD801A252F823F000BF94
:104B9C00414C0008714C0008714C0008714C000825
:104BAC00714C0008714C0008714C0008714C0008E5
:104BBC00494C0008714C0008714C0008714C0008FD
:104BCC00714C0008714C0008714C0008714C0008C5
:104BDC00514C0008714C0008714C0008714C0008D5
:104BEC00714C0008714C0008714C0008714C0008A5
:104BFC00594C0008714C0008714C0008714C0008AD
:104C0C00714C0008714C0008714C0008714C000884
:104C1C00614C0008714C0008714C0008714C000884
:104C2C00714C0008714C0008714C0008714C000864
:104C3C00694C0008012387F84330D6E0042387F839
:104C4C004330D2E0082387F84330CEE0102387F8B6
:104C5C004330CAE0202387F84330C6E0402387F86E
:104C6C004330C2E0802387F84330BEE0001401409B
:104C7C000044025800780040007C004000180140BD
:104C8C007B691B68AD4A934276D1AD4B5B6D03F0EB
:104C9C003803282B6CD801A252F823F04D4D000894
:104CAC007D4D00087D4D00087D4D00087D4D0008B0
:104CBC007D4D00087D4D00087D4D0008554D0008C8
:104CCC007D4D00087D4D00087D4D00087D4D000890
:104CDC007D4D00087D4D00087D4D00085D4D0008A0
:104CEC007D4D00087D4D00087D4D00087D4D000870
:104CFC007D4D00087D4D00087D4D0008654D000878
:104D0C007D4D00087D4D00087D4D00087D4D00084F
:104D1C007D4D00087D4D00087D4D00086D4D00084F
:104D2C007D4D00087D4D00087D4D00087D4D00082F
:104D3C007D4D00087D4D00087D4D0008754D000827
:104D4C00012387F8433050E0042387F843304CE0CC
:104D5C00082387F8433048E0102387F8433044E0B9
:104D6C00202387F8433040E0402387F843303CE071
:104D7C00802387F8433038E07B691B68714A934283
:104D8C0030D16F4B9B6D03F00703052B26D801A286
:104D9C0052F823F0B94D0008C14D0008C94D000868
:104DAC00D14D0008D94D0008E14D0008022387F8C9
:104DBC0043301AE0042387F8433016E0082387F8C1
:104DCC00433012E0102387F843300EE0202387F89D
:104DDC0043300AE0402387F8433006E0802387F80D
:104DEC00433002E0802387F843307B691B68554AC7
:104DFC00934240F0F88097F84330202B46DC022B8E
:104E0C0075DB023B1E2B72D801A252F823F000BFB7
:104E1C009F4E0008FB4E0008A74E0008FB4E0008F2
:104E2C00FB4E0008FB4E0008B74E0008FB4E000876
:104E3C00FB4E0008FB4E0008FB4E0008FB4E000822
:104E4C00FB4E0008FB4E0008C74E0008FB4E000846
:104E5C00FB4E0008FB4E0008FB4E0008FB4E000802
:104E6C00FB4E0008FB4E0008FB4E0008FB4E0008F2
:104E7C00FB4E0008FB4E0008FB4E0008FB4E0008E2
:104E8C00FB4E0008FB4E0008ED4E0008402B2AD0CC
:104E9C002DE0FEF7C3FEF8632FE007F1240318465C
:104EAC00FEF7D2FEBB6AFB6327E007F11803184636
:104EBC00FFF74EF8FB69FB631FE0214B1B6803F007
:104ECC002003002B09D01E4B1B68DB0803F00303E7
:104EDC001D4A22FA03F3FB630FE01B4BFB630CE050
:104EEC001A4BFB6309E04FF40043FB6305E000231E
:104EFC00FB63012387F8423000BFFB6B002B00F0F3
:104F0C00EE817B695B6A124A32F813301A46FB6BEE
:104F1C00B3FBF2F33B637B695A6813465B001344A3
:104F2C003A6B9A4205D37B695B681B033A6B9A42D6
:104F3C0010D9012387F84230D1E100BF001C014099
:104F4C0000440258000C00580090D00300093D00AA
:104F5C00D8650008FB6B0022BB60FA607B695B6A5A
:104F6C00B84A32F813309BB200223B607A60D7E922
:104F7C000023D7E90201FBF7BDFC02460B461046A5
:104F8C0019464FF000024FF000030B0243EA106386
:104F9C00020279694968490800200C46054612EB63
:104FAC00040843EB05097B695B6800229A4693462B
:104FBC0052465B4640464946FBF79CFC02460B4674
:104FCC001346BB63BB6BB3F5407F08D3BB6BB3F528
:104FDC00801F04D27B691B68BA6BDA607FE1012306
:104FEC0087F842307BE17B69DB69B3F5004F40F019
:104FFC00BD8097F84330202B48DC002B7BDB202B2B
:10500C0079D801A252F823F09F500008A75000084D
:10501C000351000803510008AF5000080351000869
:10502C000351000803510008BF5000080351000849
:10503C0003510008035100080351000803510008F4
:10504C000351000803510008CF5000080351000819
:10505C0003510008035100080351000803510008D4
:10506C0003510008035100080351000803510008C4
:10507C0003510008035100080351000803510008B4
:10508C000351000803510008F5500008402B2ED0A6
:10509C0031E0FDF7F7FBF86333E0FDF709FCF8634B
:1050AC002FE007F124031846FEF7CEFDBB6AFB6325
:1050BC0027E007F118031846FEF74AFFFB69FB636C
:1050CC001FE0614B1B6803F02003002B09D05E4BE3
:1050DC001B68DB0803F003035C4A22FA03F3FB634F
:1050EC000FE05A4BFB630CE0594BFB6309E04FF4A8
:1050FC000043FB6305E00023FB63012387F8423088
:10510C0000BFFB6B002B00F0EA807B695B6A4D4AA9
:10511C0032F813301A46FB6BB3FBF2F35A007B697F
:10512C005B685B081A447B695B68B2FBF3F3BB6397
:10513C00BB6B0F2B16D9BB6BB3F5803F12D2BB6B7D
:10514C009BB223F00F03FB86BB6B5B089BB203F097
:10515C0007039AB2FB8E1343FB867B691B68FA8E9E
:10516C00DA60BCE0012387F84230B8E097F84330AE
:10517C00202B4BDC002BC0F28780202B00F284808C
:10518C0001A252F823F000BF1F520008275200085A
:10519C0095520008955200082F52000895520008AD
:1051AC0095520008955200083F520008955200088D
:1051BC009552000895520008955200089552000827
:1051CC00955200089552000861520008955200084B
:1051DC009552000895520008955200089552000807
:1051EC0095520008955200089552000895520008F7
:1051FC0095520008955200089552000895520008E7
:10520C00955200089552000887520008402B37D061
:10521C003AE0FDF737FBF8633CE0FDF749FBF86338
:10522C0038E007F124031846FEF70EFDBB6AFB635A
:10523C0030E007F118031846FEF78AFEFB69FB63A2
:10524C0028E000BFD8650008004402580090D00345
:10525C0000093D002C4B1B6803F02003002B09D0E8
:10526C00294B1B68DB0803F00303284A22FA03F3DB
:10527C00FB630FE0254BFB630CE0254BFB6309E064
:10528C004FF40043FB6305E00023FB63012387F825
:10529C00423000BFFB6B002B21D07B695B6A1D4A3F
:1052AC0032F813301A46FB6BB3FBF2F27B695B6886
:1052BC005B081A447B695B68B2FBF3F3BB63BB6BA3
:1052CC000F2B09D9BB6BB3F5803F05D2BB6B9AB2E0
:1052DC007B691B68DA6002E0012387F842307B6946
:1052EC000122A3F86A207B690122A3F868207B695C
:1052FC0000225A677B6900229A6797F84230184659
:10530C004837BD46BDE8B08F004402580090D0032A
:10531C0000093D00D865000880B483B000AF786008
:10532C007B689B6A03F00103002B0AD07B681B6827
:10533C005B6823F400317B68DA6A7B681B680A437C
:10534C005A607B689B6A03F00203002B0AD07B68CF
:10535C001B685B6823F480317B681A6B7B681B6865
:10536C000A435A607B689B6A03F00403002B0AD043
:10537C007B681B685B6823F480217B685A6B7B68B5
:10538C001B680A435A607B689B6A03F00803002B76
:10539C000AD07B681B685B6823F400417B689A6BBE
:1053AC007B681B680A435A607B689B6A03F0100396
:1053BC00002B0AD07B681B689B6823F480517B68A8
:1053CC00DA6B7B681B680A439A607B689B6A03F004
:1053DC002003002B0AD07B681B689B6823F40051C8
:1053EC007B681A6C7B681B680A439A607B689B6AB3
:1053FC0003F04003002B1AD07B681B685B6823F416
:10540C0080117B685A6C7B681B680A435A607B6806
:10541C005B6CB3F5801F0AD17B681B685B6823F457
:10542C00C0017B689A6C7B681B680A435A607B6876
:10543C009B6A03F08003002B0AD07B681B685B68B7
:10544C0023F400217B68DA6C7B681B680A435A6082
:10545C0000BF0C37BD4680BC704780B598B002AF1A
:10546C0078607B680022C3F89020FBF783FF786597
:10547C007B681B681B6803F00803082B2FD16FF0A7
:10548C007E4300937B6D00224FF40011786800F08E
:10549C008EF80346002B22D07B681B68BB63BB6B6A
:1054AC0053E8003F7B637B6B23F080033B657B6899
:1054BC001B681A463B6D7B643A64396C7A6C41E824
:1054CC000023FB63FB6B002BE6D17B682022C3F827
:1054DC0088207B68002283F88420032363E07B68A8
:1054EC001B681B6803F00403042B49D16FF07E4347
:1054FC0000937B6D00224FF48001786800F057F820
:10550C000346002B3CD07B681B687B627B6A53E8AC
:10551C00003F3B623B6A23F49073FB647B681B681F
:10552C001A46FB6C3B63FA62F96A3A6B41E800235A
:10553C00BB62BB6A002BE6D17B681B6808333B61FE
:10554C003B6953E8003FFB60FB6823F00103BB643D
:10555C007B681B680833BA6CFA61BB61B969FA697C
:10556C0041E800237B617B69002BE5D17B6820221D
:10557C00C3F88C207B68002283F88420032312E07C
:10558C007B682022C3F888207B682022C3F88C20FB
:10559C007B680022DA667B6800221A677B6800222F
:1055AC0083F88420002318465837BD4680BD80B54B
:1055BC0084B000AFF860B9603B601346FB7149E002
:1055CC00BB69B3F1FF3F45D0FBF7D4FE02463B6805
:1055DC00D31ABA699A4202D3BB69002B01D10323B7
:1055EC0048E0FB681B681B6803F00403002B31D0F8
:1055FC00FB681B68DB6903F00803082B10D1FB6800
:10560C001B6808221A62F86800F038F8FB68082258
:10561C00C3F89020FB68002283F88420012329E042
:10562C00FB681B68DB6903F40063B3F5006F11D1F1
:10563C00FB681B684FF400621A62F86800F01EF8F1
:10564C00FB682022C3F89020FB68002283F884209A
:10565C0003230FE0FB681B68DA69BB681340BA6868
:10566C009A420CBF01230023DBB21A46FB799A4203
:10567C00A6D0002318461037BD4680BD80B495B027
:10568C0000AF78607B681B687B637B6B53E8003FE3
:10569C003B633B6B23F49073FB647B681B681A467B
:1056AC00FB6C3B64FA63F96B3A6C41E80023BB6317
:1056BC00BB6B002BE6D17B681B6808333B623B6AF3
:1056CC0053E8003FFB61FA691E4B1340BB647B68D7
:1056DC001B680833BA6CFA62BB62B96AFA6A41E8B1
:1056EC0000237B627B6A002BE5D17B68DB6E012B90
:1056FC0018D17B681B68FB60FB6853E8003FBB60FC
:10570C00BB6823F010037B647B681B681A467B6CB8
:10571C00BB617A617969BA6941E800233B613B69F5
:10572C00002BE6D17B682022C3F88C207B680022FA
:10573C00DA667B6800225A6700BF5437BD4680BCCE
:10574C00704700BFFEFFFFEF80B586B000AFF8607A
:10575C00B9607A603B60FB68002B01D1012356E0F5
:10576C00FB68D3F88830002B06D1FB68002283F845
:10577C008420F868FBF772FCFB682422C3F88820AD
:10578C00FB681B681A68FB681B6822F001021A6030
:10579C00F868FEF753FF0346012B01D1012336E0D5
:1057AC00FB689B6A002B02D0F868FFF7B5FDFB681D
:1057BC001B689A68FB681B6842F480429A60FB681D
:1057CC001B689B6823F40041FB681B68BA680A439A
:1057DC009A607B685B057B613B681B047A691343A9
:1057EC007B61FB681B681A680B4B1340FA681268E4
:1057FC0079690B431360FB681B681A68FB681B68AC
:10580C0042F001021A60F868FFF727FE03461846BB
:10581C001837BD4680BD00BFFFFF00FC80B485B0CB
:10582C0000AF78607B6893F88430012B01D10223A0
:10583C0027E07B68012283F884207B682422C3F84C
:10584C0088207B681B681B68FB607B681B681A6878
:10585C007B681B6822F001021A60FB6823F000537E
:10586C00FB607B6800225A667B681B68FA681A60CA
:10587C007B682022C3F888207B68002283F8842070
:10588C00002318461437BD4680BC704780B584B0E1
:10589C0000AF786039607B6893F88430012B01D1BC
:1058AC0002232DE07B68012283F884207B6824226C
:1058BC00C3F888207B681B681B68FB607B681B68CF
:1058CC001A687B681B6822F001021A607B681B68EF
:1058DC009B6823F060417B681B683A680A439A60B6
:1058EC00786800F051F97B681B68FA681A607B686D
:1058FC002022C3F888207B68002283F884200023B0
:10590C0018461037BD4680BD80B584B000AF7860B6
:10591C0039607B6893F88430012B01D102232DE090
:10592C007B68012283F884207B682422C3F88820BA
:10593C007B681B681B68FB607B681B681A687B684C
:10594C001B6822F001021A607B681B689B6823F0BD
:10595C0060617B681B683A680A439A60786800F05B
:10596C0013F97B681B68FA681A607B682022C3F8FD
:10597C0088207B68002283F8842000231846103787
:10598C00BD4680BD80B588B000AFF860B9603B60A3
:10599C001346FB80FB68D3F88C30202B40F0EF8053
:1059AC00BB68002B02D0FB88002B01D10123E7E060
:1059BC00FB680022C3F89020FB682222C3F88C20DD
:1059CC00FB680122DA66FB6800221A67FBF7D2FC3F
:1059DC007861FB68FA88A3F85C20FB68FA88A3F866
:1059EC005E20FB689B68B3F5805F0ED1FB681B697A
:1059FC00002B05D1FB6840F2FF12A3F860202DE0CC
:105A0C00FB68FF22A3F8602028E0FB689B68002B52
:105A1C000DD1FB681B69002B04D1FB68FF22A3F896
:105A2C0060201BE0FB687F22A3F8602016E0FB6877
:105A3C009B68B3F1805F0DD1FB681B69002B04D10F
:105A4C00FB687F22A3F8602008E0FB683F22A3F8E4
:105A5C00602003E0FB680022A3F86020FB68B3F829
:105A6C0060307B82FB689B68B3F5805F08D1FB6874
:105A7C001B69002B04D10023FB61BB68BB6103E0F5
:105A8C00BB68FB610023BB613B6800221A805FE0AE
:105A9C00FB681B68DB6903F01003102B10D1FB684B
:105AAC001B6810221A623B681B88002B08D0FB680D
:105ABC0002221A67FB682022C3F88C2000235FE0C7
:105ACC00FB681B68DB6903F02003202B2BD1FB69DF
