:020000040800F2
:1000000000000524F51600086112000867120008B8
:100010006D12000873120008791200080000000039
:100020000000000000000000000000007F12000837
:100030008B1200080000000097120008A3120008AD
:100040004517000845170008451700084517000820
:100050004517000845170008451700084517000810
:100060004517000845170008451700084517000800
:1000700045170008451700084517000845170008F0
:1000800045170008451700084517000845170008E0
:1000900045170008451700084517000845170008D0
:1000A00045170008451700084517000845170008C0
:1000B00045170008451700084517000845170008B0
:1000C00045170008451700084517000845170008A0
:1000D0004517000845170008451700084517000890
:1000E00045170008451700080000000045170008E4
:1000F0004517000845170008451700084517000870
:10010000451700084517000845170008451700085F
:10011000451700084517000845170008451700084F
:10012000451700084517000845170008451700083F
:10013000451700084517000845170008451700082F
:1001400000000000000000000000000000000000AF
:10015000451700084517000845170008451700080F
:1001600045170008451700084517000845170008FF
:100170004517000845170008451700080000000053
:1001800045170008451700084517000845170008DF
:1001900045170008451700084517000845170008CF
:1001A0004517000845170008451700080000000023
:1001B00045170008451700084517000845170008AF
:1001C0004517000845170008000000000000000067
:1001D00000000000000000004517000800000000BB
:1001E000000000000000000000000000000000000F
:1001F0000000000000000000451700084517000837
:1002000045170008451700080000000045170008C2
:10021000451700084517000845170008451700084E
:100220004517000800000000451700080000000006
:100230004517000845170008000000004517000892
:10024000451700084517000845170008451700081E
:10025000451700084517000845170008451700080E
:1002600045170008451700084517000845170008FE
:100270004517000845170008451700080000000052
:1002800045170008451700084517000845170008DE
:100290000000000045170008451700080000000096
:1002A0000000000045170008451700084517000822
:1002B00045170008451700084517000845170008AE
:0C02C00045170008451700084517000806
:1002CC0080F0004002E000BF81F0004142001FBFFF
:1002DC005FEA410392EA030F7FEA226C7FEA236C08
:1002EC006AD04FEA1262D2EB1363C1BFD2184140FD
:1002FC0048404140B8BF5B42192B88BF704710F093
:10030C00004F40F4000020F07F4018BF404211F035
:10031C00004F41F4000121F07F4118BF494292EA9D
:10032C00030F3FD0A2F1010241FA03FC10EB0C00C9
:10033C00C3F1200301FA03F100F0004302D5494256
:10034C0060EB4000B0F5000F13D3B0F1807F06D303
:10035C0040084FEA310102F10102FE2A51D2B1F1FB
:10036C00004F40EBC25008BF20F0010040EA0300F0
:10037C007047490040EB0000013A28BFB0F5000F70
:10038C00EDD2B0FA80FCACF1080CB2EB0C0200FA26
:10039C000CF0AABF00EBC25052421843BCBFD04075
:1003AC001843704792F0000F81F4000106BF80F4EF
:1003BC0000000132013BB5E74FEA41037FEA226CB2
:1003CC0018BF7FEA236C21D092EA030F04D092F07D
:1003DC00000F08BF0846704790EA010F1CBF0020B1
:1003EC00704712F07F4F04D1400028BF40F000400E
:1003FC00704712F100723CBF00F50000704700F02E
:10040C00004343F0FE4040F4000070477FEA226254
:10041C0016BF08467FEA23630146420206BF5FEA25
:10042C00412390EA010F40F4800070474FF0000325
:10043C0004E000BF10F0004348BF40425FEA000CEC
:10044C0008BF704743F0964301464FF000001CE094
:10045C0050EA010208BF70474FF000030AE000BFEA
:10046C0050EA010208BF704711F0004302D5404228
:10047C0061EB41015FEA010C02BF8446014600209A
:10048C0043F0B64308BFA3F18053A3F50003BCFAB5
:10049C008CF2083AA3EBC25310DB01FA02FC634462
:1004AC0000FA02FCC2F12002BCF1004F20FA02F269
:1004BC0043EB020008BF20F00100704702F120025C
:1004CC0001FA02FCC2F1200250EA4C0021FA02F2BD
:1004DC0043EB020008BF20EADC7070474FF0FF0CC2
:1004EC001CEAD0521EBF1CEAD15392EA0C0F93EABD
:1004FC000C0F6FD01A4480EA010C400218BF5FEA5F
:10050C0041211ED04FF0006343EA501043EA5111D1
:10051C00A0FB01310CF00040B1F5000F3EBF4900CB
:10052C0041EAD3715B0040EA010062F17F02FD2ACF
:10053C001DD8B3F1004F40EBC25008BF20F00100B2
:10054C00704790F0000F0CF0004C08BF49024CEAC9
:10055C00502040EA51207F3AC2BFD2F1FF0340EA5B
:10056C00C250704740F400004FF00003013A5DDCCC
:10057C0012F1190FDCBF00F000407047C2F100020D
:10058C00410021FA02F1C2F1200200FA02FC5FEAFA
:10059C00310040F1000053EA4C0308BF20EADC7044
:1005AC00704792F0000F00F0004C02BF400010F4B6
:1005BC00000F013AF9D040EA0C0093F0000F01F063
:1005CC00004C02BF490011F4000F013BF9D041EA85
:1005DC000C018FE70CEAD15392EA0C0F18BF93EA87
:1005EC000C0F0AD030F0004C18BF31F0004CD8D1B1
:1005FC0080EA010000F00040704790F0000F17BF38
:10060C0090F0004F084691F0000F91F0004F14D07D
:10061C0092EA0C0F01D142020FD193EA0C0F03D1D5
:10062C004B0218BF084608D180EA010000F00040D8
:10063C0040F0FE4040F40000704740F0FE4040F4B3
:10064C00400070474FF0FF0C1CEAD0521EBF1CEA52
:10065C00D15392EA0C0F93EA0C0F69D0A2EB030270
:10066C0080EA010C49024FEA402037D04FF080530A
:10067C0043EA111143EA10130CF000408B4238BFCF
:10068C005B0042F17D024FF4000C8B4224BF5B1ADD
:10069C0040EA0C00B3EB510F24BFA3EB510340EA2B
:1006AC005C00B3EB910F24BFA3EB910340EA9C00D9
:1006BC00B3EBD10F24BFA3EBD10340EADC001B0149
:1006CC0018BF5FEA1C1CE0D1FD2A3FF650AF8B42ED
:1006DC0040EBC25008BF20F0010070470CF0004CFA
:1006EC004CEA50207F32C2BFD2F1FF0340EAC25025
:1006FC00704740F400004FF00003013A37E792F0E6
:10070C00000F00F0004C02BF400010F4000F013A43
:10071C00F9D040EA0C0093F0000F01F0004C02BF3E
:10072C00490011F4000F013BF9D041EA0C0195E7A7
:10073C000CEAD15392EA0C0F08D142027FF47DAF40
:10074C0093EA0C0F7FF470AF084676E793EA0C0F30
:10075C0004D14B023FF44CAF08466EE730F0004C2E
:10076C0018BF31F0004CCAD130F000427FF45CAFBE
:10077C0031F000437FF43CAF5FE700BF4FF0FF3C2C
:10078C0006E000BF4FF0010C02E000BF4FF0010C7F
:10079C004DF804CD4FEA40024FEA41037FEA226C48
:1007AC0018BF7FEA236C11D001B052EA530C18BF6A
:1007BC0090EA010F58BFB2EB030088BFC81738BFCF
:1007CC006FEAE17018BF40F0010070477FEA226CBD
:1007DC0002D15FEA402C05D17FEA236CE4D15FEAB9
:1007EC00412CE1D05DF8040B704700BF84460846ED
:1007FC006146FFE70FB5FFF7C9FF002848BF10F1AE
:10080C00000F0FBD4DF808EDFFF7F4FF0CBF0120F2
:10081C0000205DF808FB00BF4DF808EDFFF7EAFF7C
:10082C0034BF012000205DF808FB00BF4DF808ED37
:10083C00FFF7E0FF94BF012000205DF808FB00BF2C
:10084C004DF808EDFFF7D2FF94BF012000205DF8B2
:10085C0008FB00BF4DF808EDFFF7C8FF34BF0120BF
:10086C0000205DF808FB00BF4FEA4002B2F1FE4FDA
:10087C000FD34FF09E03B3EB12620DD94FEA002356
:10088C0043F0004310F0004F23FA02F018BF40422F
:10089C0070474FF00000704712F1610F01D1420216
:1008AC0005D110F0004008BF6FF0004070474FF0CA
:1008BC000000704742000ED2B2F1FE4F0BD34FF046
:1008CC009E03B3EB126209D44FEA002343F00043BA
:1008DC0023FA02F070474FF00000704712F1610FDD
:1008EC0001D1420202D14FF0FF3070474FF00000AF
:1008FC00704700BF53B94AB9002908BF00281CBF74
:10090C004FF0FF314FF0FF3000F00CB8ADF1080C98
:10091C006DE904CE05F0ACFCDDF804E0DDE9022362
:10092C0004B07047704700BF844641EA000313F0DF
:10093C0003036DD1403A41D351F8043B40F8043BDA
:10094C0051F8043B40F8043B51F8043B40F8043B9D
:10095C0051F8043B40F8043B51F8043B40F8043B8D
:10096C0051F8043B40F8043B51F8043B40F8043B7D
:10097C0051F8043B40F8043B51F8043B40F8043B6D
:10098C0051F8043B40F8043B51F8043B40F8043B5D
:10099C0051F8043B40F8043B51F8043B40F8043B4D
:1009AC0051F8043B40F8043B51F8043B40F8043B3D
:1009BC0051F8043B40F8043B403ABDD2303211D3DD
:1009CC0051F8043B40F8043B51F8043B40F8043B1D
:1009DC0051F8043B40F8043B51F8043B40F8043B0D
:1009EC00103AEDD20C3205D351F8043B40F8043BDD
:1009FC00043AF9D2043208D0D2071CBF11F8013BDB
:100A0C0000F8013B01D30B8803806046704700BFA0
:100A1C00082A13D38B078DD010F003038AD0C3F1AF
:100A2C000403D21ADB071CBF11F8013B00F8013B91
:100A3C0080D331F8023B20F8023B7BE7043AD9D350
:100A4C00013A11F8013B00F8013BF9D20B78037025
:100A5C004B7843708B788370604670470348044B27
:100A6C00834202D0034B03B1184770476C05002436
:100A7C006C050024000000000548064B1B1AD90F1A
:100A8C0001EBA301491002D0034B03B11847704787
:100A9C006C0500246C0500240000000010B5064C09
:100AAC00237843B9FFF7DAFF044B13B10448AFF3D3
:100ABC0000800123237010BD6C0500240000000091
:100ACC00E46F000808B5054B1BB105490548AFF3A9
:100ADC000080BDE80840FFF7CFBF00BF000000005A
:100AEC0070050024E46F000880B483B000AF0346A7
:100AFC000A46FB8013467B71FB881B0A9AB2F98865
:100B0C007B794B40DBB2054931F8133053409BB233
:100B1C0018460C37BD4680BC704700BFFC6F000800
:100B2C0080B586B000AF0346B9607A60FB81FB8963
:100B3C00FB820AE0BB685A1CBA601A78FB8A114621
:100B4C001846FFF7D1FF0346FB827B685A1E7A607A
:100B5C00002BEFD1FB8A18461837BD4680BD00002C
:100B6C0080B582B000AF78607B681122C3F8A820F2
:100B7C007B68FE2283F894207B68EE2283F8952014
:100B8C007B68D3F8C8304FF000011846FFF744FEDD
:100B9C000346002B05D07B684FF00002C3F8C82039
:100BAC000DE07B68D3F8C83089491846FFF752FE30
:100BBC000346002B03D07B68854AC3F8C8207B68AA
:100BCC00D3F8CC304FF000011846FFF725FE034652
:100BDC00002B05D07B684FF00002C3F8CC200DE051
:100BEC007B68D3F8CC307A491846FFF733FE0346BE
:100BFC00002B03D07B68764AC3F8CC207B68D3F8F3
:100C0C00BC3074491846FFF707FE0346002B04D08E
:100C1C007B68704AC3F8BC200DE07B68D3F8BC300D
:100C2C006D491846FFF716FE0346002B03D07B6870
:100C3C00694AC3F8BC207B68D3F8C03067491846B2
:100C4C00FFF7EAFD0346002B04D07B68634AC3F828
:100C5C00C0200DE07B68D3F8C03061491846FFF71F
:100C6C00F9FD0346002B03D07B685D4AC3F8C02016
:100C7C007B68D3F8C4305B491846FFF7CDFD0346BB
:100C8C00002B04D07B68574AC3F8C4200DE07B6866
:100C9C00D3F8C43054491846FFF7DCFD0346002B4B
:100CAC0003D07B68504AC3F8C4207B68B3F8B830D3
:100CBC0003F00F03D9B27A6892F8963061F303030C
:100CCC0082F896307B68B3F8BA3003F00703D9B2D8
:100CDC007A6892F8963061F3061382F896307B6846
:100CEC00D3F8C83041491846FFF7ACFC03464FF027
:100CFC008E411846FFF7F2FB03461846FFF7B4FD8A
:100D0C0003461AB27B68A3F89F207B68D3F8CC30DB
:100D1C0036491846FFF796FC03464FF08E411846AD
:100D2C00FFF7DCFB03461846FFF79EFD03461AB29D
:100D3C007B68A3F8A1207B68D3F8C4302C491846F3
:100D4C00FFF780FC03464FF08E411846FFF7C6FBB9
:100D5C0003461846FFF788FD02467B68C3F89B20C4
:100D6C007B68D3F8C03022491846FFF76BFC03466A
:100D7C004FF087411846FFF7B1FB03461846FFF7C3
:100D8C0073FD03461AB27B68A3F899207B68D3F8ED
:100D9C00BC304FF087411846FFF7A0FB03461846BE
:100DAC00FFF762FD03461AB27B68A3F897207B68B5
:100DBC0094330F2219460020FFF7B2FE03461A4661
:100DCC007B68A3F8A320002318460837BD4680BDD6
:100DDC00C1CACC41E1FAFFC2E1FAFF42000049C4AA
:100DEC0000004944C00FC9C8C00FC948CDCCCC4184
:100DFC00F90FC94090B583B000AF78607B68DC898F
:100E0C007B680E2219460020FFF78AFE03469C429F
:100E1C0005D07B6800221A627B681B6A6CE07B68D9
:100E2C009B78C3F30303DBB21A467B6883F8242058
:100E3C007B689B78C3F30213DBB21A467B6883F89A
:100E4C0025207B6893F90B301A467B689A627B6885
:100E5C001B7BC3F30203DBB21A467B6883F82C209E
:100E6C007B68B3F905301BB21846FFF7E3FA03466B
:100E7C004FF087411846FFF7E5FB0346204918461B
:100E8C00FFF72CFB03461A467B685A637B68B3F961
:100E9C0003301BB21846FFF7CDFA03464FF08741DB
:100EAC001846FFF7CFFB03461A467B681A637B682C
:100EBC00D3F807301846FFF7BDFA03461049184619
:100ECC00FFF70CFB03464FF08E411846FFF7BAFBB9
:100EDC0003461A467B689A637B689B89C3F3CB03F2
:100EEC009BB21846FFF7A2FA02467B68DA637B686E
:100EFC0001221A627B681B6A18460C37BD4690BDEE
:100F0C00F90FC94080B586B002AF78603960002314
:100F1C007B817868FFF724FE01221021254800F020
:100F2C0049FF01224FF48041234800F043FF7868C9
:100F3C007B6803F194010A23112203F03FFD002288
:100F4C004FF480411C4800F035FF00221021194855
:100F5C0000F030FF7868396807F10A030A22009222
:100F6C00102204F05DFF7B89002B01D103231CE0D0
:100F7C007B89102B01D0012317E03B68FB60FB68D9
:100F8C001B78FE2B03D0FB681B78FD2B0CD1FB6868
:100F9C0001331B78EE2B07D13B6801221A623868AB
:100FAC00FFF728FF002300E0012318461037BD4649
:100FBC0080BD00BF000C02580004025880B58AB0F6
:100FCC0000AF07F1140300221A605A609A60DA60CD
:100FDC001A61484BD3F8E030464A43F01003C2F88C
:100FEC00E030444BD3F8E03003F010033B613B6935
:100FFC00404BD3F8E0303F4A43F08003C2F8E03076
:10100C003C4BD3F8E03003F08003FB60FB68394BBA
:10101C00D3F8E030374A43F00203C2F8E030354BE6
:10102C00D3F8E03003F00203BB60BB68314BD3F85C
:10103C00E030304A43F00803C2F8E0302D4BD3F8CF
:10104C00E03003F008037B607B682A4BD3F8E03078
:10105C00284A43F00103C2F8E030264BD3F8E030C5
:10106C0003F001033B603B6804237B610223BB61FB
:10107C000023FB6100233B6204237B6207F1140312
:10108C0019461D4800F0EEFC08237B610223BB616E
:10109C000023FB6100233B620B237B6207F11403EB
:1010AC001946154800F0DEFC4FF4C0737B61022337
:1010BC00BB610023FB6100233B6207237B6207F1CA
:1010CC00140319460C4800F0CDFC4FF4C0637B614F
:1010DC000223BB610023FB6100233B6207237B627D
:1010EC0007F114031946054800F0BCFC00BF283773
:1010FC00BD4680BD00440258001002580000025842
:10110C0080B500AF00F01AFB00F016F8FFF756FFA1
:10111C0000F06CF900F0BAF904F0D0FF054B1B6835
:10112C000133044A136005F075F8642000F094FB59
:10113C00F4E700BF8805002480B59CB000AF07F130
:10114C0024034C220021184605F0EEFC3B1D202206
:10115C000021184605F0E8FC022000F043FE0023B5
:10116C003B602B4B9B692A4A23F440439361284BE9
:10117C009B6903F440433B603B6800BF244B9B6975
:10118C0003F40053B3F5005FF8D101237B624FF4F5
:10119C008033BB620223BB640223FB6402233B65E6
:1011AC0028237B650123BB650423FB6502233B6677
:1011BC000C237B660023BB660023FB6607F124032C
:1011CC00184600F049FE0346002B01D000F022F82F
:1011DC003F237B600323BB600023FB6008233B6140
:1011EC0040237B614023BB614FF48063FB61402350
:1011FC003B623B1D0321184601F008FA0346002B05
:10120C0001D000F007F800BF7037BD4680BD00BFAD
:10121C000048025880B400AF72B600BFFEE7000071
:10122C0080B483B000AF0A4BD3F8F430084A43F0D3
:10123C000203C2F8F430064BD3F8F43003F0020387
:10124C007B607B6800BF0C37BD4680BC704700BF1D
:10125C000044025880B400AFFEE780B400AFFEE754
:10126C0080B400AFFEE780B400AFFEE780B400AFFF
:10127C00FEE780B400AF00BFBD4680BC704780B4B1
:10128C0000AF00BFBD4680BC704780B400AF00BF4C
:10129C00BD4680BC704780B500AF00F0C1FA00BFFE
:1012AC0080BD000080B586B000AF7860144A154B45
:1012BC00D31A7B617B693B61134B1B68002B02D1FA
:1012CC00114B124A1A60104B1A687B6813443A6926
:1012DC009A4207D205F088FC03460C221A604FF0A4
:1012EC00FF3309E0084B1B68FB60074B1A687B68EF
:1012FC001344054A1360FB6818461837BD4680BD79
:10130C0000000524000400008C050024F8090024CA
:10131C0080B400AF2E4B1B6803F00F03062B07D8CD
:10132C002B4B1B6823F00F03294A43F00703136070
:10133C00284B1B68274A43F001031360254B0022FE
:10134C001A61244B1A682349234B13400B60204B22
:10135C001B6803F00803002B07D01D4B1B6823F000
:10136C000F031B4A43F0070313601A4B00229A61C8
:10137C00184B0022DA61174B00221A62154B174AE0
:10138C009A62144B164ADA62124B164A1A63114BC4
:10139C0000225A630F4B134A9A630E4B0022DA63F6
:1013AC000C4B104A1A640B4B00225A64094B1B68F5
:1013BC00084A23F480231360064B00221A660A4B5A
:1013CC0043F2D2021A6000BFBD4680BC704700BF1A
:1013DC0000200052004402587FEDF6EA000202029F
:1013EC000000FF01800201010040005280B500AFF7
:1013FC00234B244A1A60224B234A5A60204B00226A
:10140C009A601F4B0022DA601D4B00221A611C4BA4
:10141C000C225A611A4B00229A61194B0022DA6194
:10142C00174B00221A62164B00225A62144B0022F0
:10143C009A62002300220021114804F0D3FB0346DA
:10144C00002B01D0FFF7E6FE00210D4804F06CFCE8
:10145C000346002B01D0FFF7DDFE0021084804F005
:10146C00A1FC0346002B01D0FFF7D4FE044804F086
:10147C0023FC0346002B01D0FFF7CCFE00BF80BD40
:10148C00900500240044004000093D0080B500AFE9
:10149C00234B244A1A60224B234A5A60204B0022C9
:1014AC009A601F4B0022DA601D4B00221A611C4B04
:1014BC000C225A611A4B00229A61194B0022DA61F4
:1014CC00174B00221A62164B00225A62144B002250
:1014DC009A62002300220021114804F083FB03468A
:1014EC00002B01D0FFF796FE00210D4804F01CFCE8
:1014FC000346002B01D0FFF78DFE0021084804F0B5
:10150C0051FC0346002B01D0FFF784FE044804F085
:10151C00D3FB0346002B01D0FFF77CFE00BF80BD40
:10152C00240600240048004000093D0080B5BCB0F2
:10153C0000AF786007F1DC0300221A605A609A60F1
:10154C00DA601A6107F12003B8220021184605F071
:10155C00EBFA7B681B685F4A934246D14FF002025C
:10156C004FF00003C7E908230023C7F8943007F1B4
:10157C002003184601F000FC0346002B01D0FFF7B6
:10158C0049FE554BD3F8E830534A43F40033C2F8C4
:10159C00E830514BD3F8E83003F40033FB61FB69BE
:1015AC004D4BD3F8E0304C4A43F00803C2F8E0301E
:1015BC00494BD3F8E03003F00803BB61BB697023DF
:1015CC00C7F8DC300223C7F8E0300023C7F8E4305A
:1015DC000023C7F8E8300723C7F8EC3007F1DC0329
:1015EC0019463E4800F03EFA70E07B681B683C4AA6
:1015FC0093426BD14FF002024FF00003C7E908236E
:10160C000023C7F8943007F12003184601F0B4FB0F
:10161C000346002B01D0FFF7FDFD2F4BD3F8E8302C
:10162C002D4A43F48023C2F8E8302B4BD3F8E83032
:10163C0003F480237B617B69274BD3F8E030264A87
:10164C0043F00203C2F8E030234BD3F8E03003F050
:10165C0002033B613B69204BD3F8E0301E4A43F058
:10166C000803C2F8E0301C4BD3F8E03003F0080359
:10167C00FB60FB684FF48043C7F8DC300223C7F8EB
:10168C00E0300023C7F8E4300023C7F8E830072324
:10169C00C7F8EC3007F1DC031946124800F0E2F908
:1016AC004FF44073C7F8DC300223C7F8E030002356
:1016BC00C7F8E4300023C7F8E8300723C7F8EC304C
:1016CC0007F1DC031946054800F0CCF900BFF037F0
:1016DC00BD4680BD0044004000440258000C025836
:1016EC000048004000040258DFF834D0FFF710FE29
:1016FC000C480D490D4A002302E0D458C450043361
:10170C00C4188C42F9D30A4A0A4C002301E0136036
:10171C000432A242FBD305F06DFAFFF7F1FC7047DF
:10172C0000000524000000246C0500244872000809
:10173C006C050024F4090024FEE7000080B582B09B
:10174C0000AF032000F05CF901F016F90246154BCE
:10175C009B691B0A03F00F031349CB5C03F01F03B7
:10176C0022FA03F37B600F4B9B6903F00F030E4AC5
:10177C00D35C03F01F037A6822FA03F30B4A13605D
:10178C000B4A7B6813600F2000F014F80346002B03
:10179C0001D0012302E0FFF743FD00231846083770
:1017AC00BD4680BD00440258FC71000804000024B2
:1017BC000000002480B582B000AF7860154B1B7818
:1017CC00002B01D1012321E0134B1A68114B1B781C
:1017DC0019464FF47A73B3FBF1F3B2FBF3F31846EB
:1017EC0000F033F90346002B01D001230EE07B6897
:1017FC000F2B0AD8002279684FF0FF3000F00BF95C
:10180C00064A7B681360002300E001231846083762
:10181C00BD4680BD0C0000240000002408000024FC
:10182C0080B400AF054B1B781A46054B1B6813445C
:10183C00034A136000BFBD4680BC70470C000024F7
:10184C00B806002480B400AF024B1B681846BD4696
:10185C0080BC7047B806002480B584B000AF7860B7
:10186C00FFF7F0FFB8607B68FB60FB68B3F1FF3FEC
:10187C0005D00A4B1B781A46FB681344FB6000BF6B
:10188C00FFF7E0FF0246BB68D31AFA689A42F7D812
:10189C0000BF00BF1037BD4680BD00BF0C00002448
:1018AC0080B485B000AF78607B6803F00703FB6001
:1018BC000B4BDB68BB60BA684FF6FF031340BB6091
:1018CC00FB681A02BB681A43064B1343BB60044AFD
:1018DC00BB68D36000BF1437BD4680BC704700BFE7
:1018EC0000ED00E00000FA0580B400AF044BDB68AB
:1018FC001B0A03F007031846BD4680BC704700BFA7
:10190C0000ED00E080B483B000AF03463960FB808B
:10191C00B7F90630002B0ADB3B68DAB20C49B7F991
:10192C0006301201D2B20B4483F800230AE03B6864
:10193C00DAB20849FB8803F00F03043B1201D2B260
:10194C000B441A7600BF0C37BD4680BC704700BFF5
:10195C0000E100E000ED00E080B489B000AFF86079
:10196C00B9607A60FB6803F00703FB61FB69C3F1A4
:10197C000703042B28BF0423BB61FB690433062B2C
:10198C0002D9FB69033B00E000237B614FF0FF327F
:10199C00BB6902FA03F3DA43BB681A407B699A40CD
:1019AC004FF0FF317B6901FA03F3D9437B680B409D
:1019BC00134318462437BD4680BC704780B582B0AF
:1019CC0000AF78607B68013BB3F1807F01D30123CA
:1019DC000FE00A4A7B68013B53600F214FF0FF3048
:1019EC00FFF790FF054B00229A60044B07221A6008
:1019FC00002318460837BD4680BD00BF10E000E04C
:101A0C0080B582B000AF78607868FFF749FF00BFFF
:101A1C000837BD4680BD80B586B000AF0346B960BF
:101A2C007A60FB81FFF760FF78617A68B968786942
:101A3C00FFF792FF0246B7F90E3011461846FFF732
:101A4C0061FF00BF1837BD4680BD80B582B000AFC6
:101A5C0078607868FFF7B2FF034618460837BD4632
:101A6C0080BD000080B489B000AF7860396000237D
:101A7C00FB61864B7B618CE13B681A680121FB6939
:101A8C0001FA03F313403B613B69002B00F07E81AC
:101A9C003B685B6803F00303012B05D03B685B6874
:101AAC0003F00303022B30D17B689B68BB61FB699D
:101ABC005B00032202FA03F3DB43BA691340BB61F8
:101ACC003B68DA68FB695B0002FA03F3BA691343FB
:101ADC00BB617B68BA699A607B685B68BB610122F9
:101AEC00FB6902FA03F3DB43BA691340BB613B6841
:101AFC005B681B0903F00102FB6902FA03F3BA6984
:101B0C001343BB617B68BA695A603B685B6803F03E
:101B1C000303032B17D07B68DB68BB61FB695B009D
:101B2C00032202FA03F3DB43BA691340BB613B683F
:101B3C009A68FB695B0002FA03F3BA691343BB6151
:101B4C007B68BA69DA603B685B6803F00303022BBD
:101B5C0023D1FB69DA087B68083253F82230BB6169
:101B6C00FB6903F007039B000F2202FA03F3DB432C
:101B7C00BA691340BB613B681A69FB6903F0070340
:101B8C009B0002FA03F3BA691343BB61FB69DA08E1
:101B9C007B680832B96943F822107B681B68BB610B
:101BAC00FB695B00032202FA03F3DB43BA691340BF
:101BBC00BB613B685B6803F00302FB695B0002FAE4
:101BCC0003F3BA691343BB617B68BA691A603B685B
:101BDC005B6803F44033002B00F0D8802C4BD3F817
:101BEC00F4302B4A43F00203C2F8F430284BD3F8FC
:101BFC00F43003F00203FB60FB68264AFB699B0888
:101C0C00023352F82330BB61FB6903F003039B00E2
:101C1C000F2202FA03F3DB43BA691340BB617B6802
:101C2C001D4A93424AD07B681C4A93422BD07B6856
:101C3C001B4A934225D07B681A4A93421FD07B687B
:101C4C00194A934219D07B68184A934213D07B6887
:101C5C00174A93420DD07B68164A934207D07B6893
:101C6C00154A934201D1092329E00A2327E00723CF
:101C7C0025E0062323E0052321E004231FE00323B2
:101C8C001DE002231BE0012319E000BF8000005877
:101C9C000044025800040058000002580004025886
:101CAC0000080258000C0258001002580014025888
:101CBC0000180258001C0258002402580023FA692C
:101CCC0002F0030292009340BA691343BB61384996
:101CDC00FB699B080233BA6941F823204FF0B043EB
:101CEC001B68BB613B69DB43BA691340BB613B6852
:101CFC005B6803F48013002B03D0BA693B69134370
:101D0C00BB614FF0B042BB6913604FF0B0435B68EE
:101D1C00BB613B69DB43BA691340BB613B685B68E1
:101D2C0003F40013002B03D0BA693B691343BB6166
:101D3C004FF0B042BB6953607B695B68BB613B6928
:101D4C00DB43BA691340BB613B685B6803F4003347
:101D5C00002B03D0BA693B691343BB617B69BA6939
:101D6C005A607B691B68BB613B69DB43BA691340F2
:101D7C00BB613B685B6803F48033002B03D0BA690A
:101D8C003B691343BB617B69BA691A60FB69013318
:101D9C00FB613B681A68FB6922FA03F3002B7FF4A2
:101DAC006BAE00BF00BF2437BD4680BC704700BF80
:101DBC000004005880B483B000AF78600B467B8081
:101DCC0013467B707B78002B03D07A887B689A61F2
:101DDC0003E07B881A047B689A6100BF0C37BD4610
:101DEC0080BC704780B584B000AF7860194BDB685D
:101DFC0003F00403042B0AD0164BDB6803F0070333
:101E0C007A689A4201D001231FE000231DE0114B98
:101E1C00DB6823F007020F497B681343CB60FFF7A5
:101E2C0011FDF86009E0FFF70DFD0246FB68D31ABF
:101E3C00B3F57A7F01D9012307E0064B5B6803F405
:101E4C000053B3F5005FEED1002318461037BD46A2
:101E5C0080BD00BF0048025880B58CB000AF7860E0
:101E6C007B68002B01D10123C8E37B681B6803F05E
:101E7C000103002B00F08780884B1B6903F03803AB
:101E8C00FB62864B9B6ABB62FB6A102B07D0FB6A1A
:101E9C00182B10D1BB6A03F00303022B0BD17F4B21
:101EAC001B6803F40033002B6CD07B685B68002B41
:101EBC0068D10123A2E37B685B68B3F5803F06D150
:101ECC00764B1B68754A43F4803313602EE07B68B5
:101EDC005B68002B0CD1714B1B68704A23F4803368
:101EEC0013606E4B1B686D4A23F4802313601DE056
:101EFC007B685B68B3F5A02F0CD1684B1B68674AF5
:101F0C0043F480231360654B1B68644A43F48033AD
:101F1C0013600BE0614B1B68604A23F48033136041
:101F2C005E4B1B685D4A23F4802313607B685B68FF
:101F3C00002B13D0FFF786FC786208E0FFF782FCD9
:101F4C0002467B6AD31A642B01D9032356E3534B05
:101F5C001B6803F40033002BF0D014E0FFF772FC85
:101F6C00786208E0FFF76EFC02467B6AD31A642B9A
:101F7C0001D9032342E3494B1B6803F40033002BC4
:101F8C00F0D100E000BF7B681B6803F00203002B5C
:101F9C0000F08C80414B1B6903F038033B623F4BD4
:101FAC009B6AFB613B6A002B07D03B6A182B37D12D
:101FBC00FB6903F00303002B32D1384B1B6803F091
:101FCC000403002B05D07B68DB68002B01D10123B7
:101FDC0014E3324B1B6823F019027B68DB682F4932
:101FEC0013430B60FFF72EFC786208E0FFF72AFC26
:101FFC0002467B6AD31A022B01D90323FEE2274B3C
:10200C001B6803F00403002BF0D0244B5B6823F017
:10201C00FE427B681B691B06204913434B6045E05D
:10202C007B68DB68002B26D01C4B1B6823F0190245
:10203C007B68DB68194913430B60FFF703FC78627C
:10204C0008E0FFF7FFFB02467B6AD31A022B01D98B
:10205C000323D3E2114B1B6803F00403002BF0D0D5
:10206C000E4B5B6823F0FE427B681B691B060B4919
:10207C0013434B601AE0094B1B68084A23F0010319
:10208C001360FFF7DFFB78620AE0FFF7DBFB024629
:10209C007B6AD31A022B03D90323AFE20044025804
:1020AC00964B1B6803F00403002BEED17B681B6876
:1020BC0003F01003002B6AD0904B1B6903F038031C
:1020CC00BB618E4B9B6A7B61BB69082B07D0BB69DC
:1020DC00182B1BD17B6903F00303012B16D1874B03
:1020EC001B6803F48073002B05D07B68DB69802BA5
:1020FC0001D0012382E2814BDB6823F07C527B68A8
:10210C001B6A1B067D491343CB6040E07B68DB698F
:10211C00002B23D0794B1B68784A43F08003136063
:10212C00FFF790FB786208E0FFF78CFB02467B6AB6
:10213C00D31A022B01D9032360E2704B1B6803F402
:10214C008073002BF0D06D4BDB6823F07C527B68E6
:10215C001B6A1B0669491343CB6018E0674B1B686D
:10216C00664A23F080031360FFF76CFB786208E08B
:10217C00FFF768FB02467B6AD31A022B01D90323B3
:10218C003CE25E4B1B6803F48073002BF0D17B6840
:10219C001B6803F00803002B36D07B685B69002BAF
:1021AC0019D0564B5B6F554A43F001035367FFF749
:1021BC0049FB786208E0FFF745FB02467B6AD31ABD
:1021CC00022B01D9032319E24C4B5B6F03F0020382
:1021DC00002BF0D018E0494B5B6F484A23F0010309
:1021EC005367FFF72FFB786208E0FFF72BFB0246E3
:1021FC007B6AD31A022B01D90323FFE13F4B5B6FA0
:10220C0003F00203002BF0D17B681B6803F0200362
:10221C00002B36D07B689B69002B19D0374B1B6881
:10222C00364A43F480531360FFF70CFB786208E0E6
:10223C00FFF708FB02467B6AD31A022B01D9032352
:10224C00DCE12E4B1B6803F40053002BF0D018E09C
:10225C002A4B1B68294A23F480531360FFF7F2FAC8
:10226C00786208E0FFF7EEFA02467B6AD31A022B7B
:10227C0001D90323C2E1214B1B6803F40053002B4B
:10228C00F0D17B681B6803F00403002B00F0868000
:10229C001B4B1B681A4A43F480731360FFF7D2FA86
:1022AC00786208E0FFF7CEFA02467B6AD31A642BF9
:1022BC0001D90323A2E1124B1B6803F48073002B9A
:1022CC00F0D07B689B68012B06D10C4B1B6F0B4A23
:1022DC0043F00103136732E07B689B68002B11D13C
:1022EC00064B1B6F054A23F001031367034B1B6F4F
:1022FC00024A23F00403136721E000BF0044025894
:10230C00004802587B689B68052B0CD1834B1B6FD4
:10231C00824A43F004031367804B1B6F7F4A43F0E0
:10232C00010313670BE07D4B1B6F7C4A23F0010309
:10233C0013677A4B1B6F794A23F0040313677B688E
:10234C009B68002B15D0FFF77DFA78620AE0FFF747
:10235C0079FA02467B6AD31A41F28832934201D948
:10236C0003234BE16D4B1B6F03F00203002BEED0EC
:10237C0014E0FFF767FA78620AE0FFF763FA0246A7
:10238C007B6AD31A41F28832934201D9032335E197
:10239C00624B1B6F03F00203002BEED17B685B6A70
:1023AC00002B00F02A815D4B1B6903F03803182BBE
:1023BC0000F0BA807B685B6A022B40F09580574B2B
:1023CC001B68564A23F080731360FFF73BFA786260
:1023DC0008E0FFF737FA02467B6AD31A022B01D9C1
:1023EC0003230BE14D4B1B6803F00073002BF0D162
:1023FC004A4B9A6A4A4B13407A68916A7A68D26A55
:10240C0012010A43454913438B627B681B6B013BEA
:10241C00C3F308027B685B6B013B5B029BB21A4304
:10242C007B689B6B013B1B0403F4FE031A437B6824
:10243C00DB6B013B1B0603F0FE43384913430B6374
:10244C00364BDB6A354A23F00103D362334B5A6BAC
:10245C00344B13407A68926CD200304913434B636F
:10246C002E4BDB6A23F00C027B681B6C2B4913434D
:10247C00CB622A4BDB6A23F002027B685B6C274938
:10248C001343CB62254BDB6A244A43F48033D3627B
:10249C00224BDB6A214A43F40033D3621F4BDB6AC5
:1024AC001E4A43F48023D3621C4BDB6A1B4A43F065
:1024BC000103D362194B1B68184A43F080731360F5
:1024CC00FFF7C0F9786208E0FFF7BCF902467B6AB7
:1024DC00D31A022B01D9032390E0104B1B6803F095
:1024EC000073002BF0D088E00C4B1B680B4A23F0D8
:1024FC0080731360FFF7A6F9786208E0FFF7A2F982
:10250C0002467B6AD31A022B01D9032376E0034BD4
:10251C001B6803F00073002BF0D16EE000440258EE
:10252C000CFCFFFF0700FFFF364B9B6A3B61354BF2
:10253C001B6BFB607B685B6A012B31D03B6903F042
:10254C0003027B689B6A9A422AD13B691B0903F000
:10255C003F027B68DB6A9A4222D1FB68C3F3080214
:10256C007B681B6B013B9A421AD1FB685B0A03F038
:10257C007F027B685B6B013B9A4211D1FB681B0CA1
:10258C0003F07F027B689B6B013B9A4208D1FB688E
:10259C001B0E03F07F027B68DB6B013B9A4201D080
:1025AC0001232BE0174B5B6BDB08C3F30C033B6184
:1025BC007B689B6C3A699A421FD0124BDB6A114ABA
:1025CC0023F00103D362FFF73DF9786200BFFFF7F8
:1025DC0039F902467B6A9342F9D00A4B5A6B0A4B83
:1025EC0013407A68926CD200064913434B63054B37
:1025FC00DB6A044A43F00103D362002318463037E8
:10260C00BD4680BD004402580700FFFF80B586B070
:10261C0000AF786039607B68002B01D101239CE10D
:10262C008A4B1B6803F00F033A689A4210D9874B08
:10263C001B6823F00F0285493B6813430B60834BE7
:10264C001B6803F00F033A689A4201D0012384E11E
:10265C007B681B6803F00403002B10D07B681A699D
:10266C007B4B9B6903F070039A4208D9784B9B69AA
:10267C0023F070027B681B69754913438B617B687F
:10268C001B6803F00803002B10D07B685A69704B51
:10269C00DB6903F070039A4208D96D4BDB6923F0B8
:1026AC0070027B685B696A491343CB617B681B686A
:1026BC0003F01003002B10D07B689A69644BDB6924
:1026CC0003F4E0639A4208D9614BDB6923F4E062BE
:1026DC007B689B695E491343CB617B681B6803F085
:1026EC002003002B10D07B68DA69594B1B6A03F06E
:1026FC0070039A4208D9564B1B6A23F070027B6810
:10270C00DB69534913430B627B681B6803F00203BC
:10271C00002B10D07B68DA684D4B9B6903F00F03DC
:10272C009A4208D94A4B9B6923F00F027B68DB68FD
:10273C00474913438B617B681B6803F00103002B33
:10274C0055D0434B9B6923F470627B689B6840496E
:10275C0013438B617B685B68022B07D13C4B1B6876
:10276C0003F40033002B21D10123F6E07B685B6876
:10277C00032B07D1364B1B6803F00073002B15D1CC
:10278C000123EAE07B685B68012B07D1304B1B68A7
:10279C0003F48073002B09D10123DEE02C4B1B6862
:1027AC0003F00403002B01D10123D6E0284B1B6955
:1027BC0023F007027B685B68254913430B61FFF725
:1027CC0041F878610AE0FFF73DF802467B69D31ABD
:1027DC0041F28832934201D90323BEE01C4B1B69A2
:1027EC0003F038027B685B68DB009A42EBD17B68B4
:1027FC001B6803F00203002B10D07B68DA68144BC3
:10280C009B6903F00F039A4208D2114B9B6923F08A
:10281C000F027B68DB680E4913438B610B4B1B6803
:10282C0003F00F033A689A4214D2084B1B6823F04A
:10283C000F0206493B6813430B60044B1B6803F003
:10284C000F033A689A4205D0012386E0002000521B
:10285C00004402587B681B6803F00403002B10D063
:10286C007B681A693F4B9B6903F070039A4208D24C
:10287C003C4B9B6923F070027B681B6939491343FD
:10288C008B617B681B6803F00803002B10D07B68FE
:10289C005A69344BDB6903F070039A4208D2314B0E
:1028AC00DB6923F070027B685B692E491343CB61B3
:1028BC007B681B6803F01003002B10D07B689A69AF
:1028CC00284BDB6903F4E0639A4208D2254BDB69A1
:1028DC0023F4E0627B689B6922491343CB617B68DC
:1028EC001B6803F02003002B10D07B68DA691D4BAA
:1028FC001B6A03F070039A4208D21A4B1B6A23F02E
:10290C0070027B68DB69174913430B6200F034F8E3
:10291C000246144B9B691B0A03F00F031249CB5C54
:10292C0003F01F0322FA03F33B610E4B9B6903F088
:10293C000F030D4AD35C03F01F033A6922FA03F329
:10294C000A4A13600A4A3B6913600A4B1B68184613
:10295C00FEF730FF0346FB73FB7B18461837BD466A
:10296C0080BD00BF00440258FC7100080400002424
:10297C000000002408000024B0B588B000AFA04BC4
:10298C001B6903F03803182B00F28B8101A252F85B
:10299C0023F000BF052A0008AF2C0008AF2C00085C
:1029AC00AF2C0008AF2C0008AF2C0008AF2C00088F
:1029BC00AF2C00082B2A0008AF2C0008AF2C000805
:1029CC00AF2C0008AF2C0008AF2C0008AF2C00086F
:1029DC00AF2C0008312A0008AF2C0008AF2C0008DF
:1029EC00AF2C0008AF2C0008AF2C0008AF2C00084F
:1029FC00AF2C0008372A0008814B1B6803F020031A
:102A0C00002B09D07E4B1B68DB0803F003037D4AC7
:102A1C0022FA03F3BB6147E17A4BBB6144E17A4B89
:102A2C00BB6141E1794BBB613EE1754B9B6A03F0A5
:102A3C0003037B61724B9B6A1B0903F03F033B61F1
:102A4C006F4BDB6A03F00103FB606D4B5B6BDB08C8
:102A5C00C3F30C03FA6802FB03F31846FDF7E6FC1C
:102A6C000346BB603B69002B00F018817B69022B8D
:102A7C0000F09C807B69022B00F2D0807B69002BDC
:102A8C0003D07B69012B67D0C8E05D4B1B6803F05A
:102A9C002003002B36D05A4B1B68DB0803F00303D2
:102AAC00584A22FA03F37B607868FDF7BFFC0446B2
:102ABC003869FDF7BBFC034619462046FDF7C2FDFD
:102ACC0003461D464E4B1B6BC3F308031846FDF71C
:102ADC00ADFC04464FF08C41B868FDF7B3FD0346DE
:102AEC0019462046FDF7F2FB03464FF07E5118467F
:102AFC00FDF7ECFB034619462846FDF7EFFC0346B1
:102B0C00FB61B5E03869FDF791FC03461946404876
:102B1C00FDF798FD03461D46394B1B6BC3F30803A9
:102B2C001846FDF783FC04464FF08C41B868FDF75E
:102B3C0089FD034619462046FDF7C8FB03464FF0B6
:102B4C007E511846FDF7C2FB034619462846FDF791
:102B5C00C5FC0346FB618BE03869FDF767FC034657
:102B6C0019462C48FDF76EFD03461D46244B1B6B86
:102B7C00C3F308031846FDF759FC04464FF08C418B
:102B8C00B868FDF75FFD034619462046FDF79EFB2E
:102B9C0003464FF07E511846FDF798FB0346194645
:102BAC002846FDF79BFC0346FB6161E03869FDF7A5
:102BBC003DFC034619461848FDF744FD03461D46E7
:102BCC000F4B1B6BC3F308031846FDF72FFC044691
:102BDC004FF08C41B868FDF735FD03461946204689
:102BEC00FDF774FB03464FF07E511846FDF76EFB64
:102BFC00034619462846FDF771FC0346FB6137E096
:102C0C00004402580090D00300093D0000366E01CC
:102C1C000024744C0024744A001BB74B3869FDF730
:102C2C0005FC034619462348FDF70CFD03461D46DB
:102C3C00214B1B6BC3F308031846FDF7F7FB044647
:102C4C004FF08C41B868FDF7FDFC03461946204651
:102C5C00FDF73CFB03464FF07E511846FDF736FB63
:102C6C00034619462846FDF739FC0346FB6100BFB5
:102C7C00114B1B6B5B0A03F07F0301333B6038681D
:102C8C00FDF7D4FB03461946F869FDF7DBFC034658
:102C9C001846FDF70FFE0346BB6105E00023BB6140
:102CAC0002E0064BBB6100BFBB6918462037BD462E
:102CBC00B0BD00BF0024744A0044025800093D0016
:102CCC0080B582B000AFFFF757FE0246104B9B69F0
:102CDC001B0A03F00F030F49CB5C03F01F0322FA0E
:102CEC0003F37B600A4B9B6903F00F03094AD35C27
:102CFC0003F01F037A6822FA03F3074A1360074AAA
:102D0C007B681360044B1B6818460837BD4680BDB2
:102D1C0000440258FC710008040000240000002448
:102D2C0080B500AFFFF7CCFF0246064BDB691B09F1
:102D3C0003F007030449CB5C03F01F0322FA03F3EF
:102D4C00184680BD00440258FC71000880B500AFE5
:102D5C00FFF7B6FF0246064BDB691B0A03F00703BD
:102D6C000449CB5C03F01F0322FA03F3184680BD21
:102D7C0000440258FC7100082DE9B04FC6B000AFFA
:102D8C00C7F80401002387F81731002387F81631A0
:102D9C00D7F80431D3E9002302F00064002554EA8B
:102DAC00050349D0D7F804315B6EB3F5401F2FD023
:102DBC00B3F5401F28D8B3F5001F1AD0B3F5001F88
:102DCC0022D8002B03D0B3F5801F07D01CE0AB4BEF
:102DDC00DB6AAA4A43F40033D3621AE0D7F8043111
:102DEC0008330221184601F085FC034687F8173199
:102DFC000FE0D7F8043128330221184601F02CFDDE
:102E0C00034687F8173104E0012387F8173100E0F7
:102E1C0000BF97F81731002B0AD1984B1B6D23F488
:102E2C004011D7F804315B6E944A0B43136503E0F1
:102E3C0097F8173187F81631D7F80431D3E9002306
:102E4C0002F480784FF0000958EA090347D0D7F80C
:102E5C0004319B6D042B2AD801A252F823F000BF39
:102E6C00812E00088F2E0008A52E0008C32E000806
:102E7C00C32E0008814BDB6A804A43F40033D362D3
:102E8C001AE0D7F8043108330021184601F032FC5F
:102E9C00034687F817310FE0D7F8043128330021A7
:102EAC00184601F0D9FC034687F8173104E00123DA
:102EBC0087F8173100E000BF97F81731002B0AD1C3
:102ECC006E4B1B6D23F00701D7F804319B6D6B4AD9
:102EDC000B43136503E097F8173187F81631D7F8D1
:102EEC000431D3E9002302F4806A4FF0000B5AEA54
:102EFC000B035BD0D7F80431D3F8A430B3F5200F13
:102F0C003BD0B3F5200F34D8B3F5000F37D0B3F561
:102F1C00000F2ED8B3F5C00F33D0B3F5C00F28D89F
:102F2C00B3F5800F1AD0B3F5800F22D8002B03D045
:102F3C00B3F5001F07D01CE0504BDB6A4F4A43F43B
:102F4C000033D3621EE0D7F8043108330021184651
:102F5C0001F0D0FB034687F8173113E0D7F80431A2
:102F6C0028330021184601F077FC034687F8173107
:102F7C0008E0012387F8173104E000BF02E000BF2E
:102F8C0000E000BF97F81731002B0BD13B4B9B6D2A
:102F9C0023F46001D7F80431D3F8A430374A0B433B
:102FAC00936503E097F8173187F81631D7F8043199
:102FBC00D3E9002302F40063C7F8F8300023C7F804
:102FCC00FC30D7E93E120B4613435DD0D7F80431E1
:102FDC00D3F8A830B3F1A06F3BD0B3F1A06F34D8C5
:102FEC00B3F1806F37D0B3F1806F2ED8B3F1407F3F
:102FFC0033D0B3F1407F28D8B3F1007F1AD0B3F1AE
:10300C00007F22D8002B03D0B3F1807F07D01CE0C7
:10301C001A4BDB6A194A43F40033D3621EE0D7F82B
:10302C00043108330021184601F064FB034687F88D
:10303C00173113E0D7F8043128330021184601F07A
:10304C000BFC034687F8173108E0012387F817318A
:10305C0004E000BF02E000BF00E000BF97F81731AA
:10306C00002B0DD1054B9B6D23F0E061D7F804319B
:10307C00D3F8A830014A0B43936505E0004402588D
:10308C0097F8173187F81631D7F80431D3E90023B4
:10309C0002F00073C7F8F0300023C7F8F430D7E91A
:1030AC003C120B4613433AD0D7F80431DB6C302B6F
:1030BC001FD0302B19D8202B0CD0202B15D8002B3F
:1030CC0019D0102B11D1AA4BDB6AA94A43F4003357
:1030DC00D36211E0D7F8043108330221184601F00D
:1030EC0009FB034687F8173106E0012387F81731EF
:1030FC0002E000BF00E000BF97F81731002B0AD1A7
:10310C009B4BDB6C23F03001D7F80431DB6C984A15
:10311C000B43D36403E097F8173187F81631D7F8CF
:10312C000431D3E9002302F48053C7F8E8300023BC
:10313C00C7F8EC30D7E93A120B46134351D0D7F805
:10314C000431DB6DB3F5804F35D0B3F5804F2ED8FD
:10315C00B3F5405F31D0B3F5405F28D8B3F5005FCD
:10316C001AD0B3F5005F22D8002B03D0B3F5805FE3
:10317C0007D01CE07E4BDB6A7D4A43F40033D362FC
:10318C001CE0D7F8043108330021184601F0B2FADC
:10319C00034687F8173111E0D7F8043128330021A2
:1031AC00184601F059FB034687F8173106E0012356
:1031BC0087F8173102E000BF00E000BF97F8173125
:1031CC00002B0AD16A4B1B6D23F4E041D7F8043174
:1031DC00DB6D674A0B43136503E097F8173187F8EB
:1031EC001631D7F80431D3E9002302F40053C7F8A1
:1031FC00E0300023C7F8E430D7E938120B4613430C
:10320C0053D0D7F804311B6EB3F5A02F33D0B3F5E0
:10321C00A02F2CD8B3F5802F2FD0B3F5802F26D824
:10322C00B3F5403F2BD0B3F5403F20D8B3F5003F6A
:10323C0012D0B3F5003F1AD8002B22D0B3F5803F43
:10324C0015D1D7F8043108330121184601F052FA90
:10325C00034687F8173115E0D7F8043128330121DC
:10326C00184601F0F9FA034687F817310AE00123F2
:10327C0087F8173106E000BF04E000BF02E000BF92
:10328C0000E000BF97F81731002B0AD1384B1B6DAB
:10329C0023F4E021D7F804311B6E354A0B43136538
:1032AC0003E097F8173187F81631D7F80431D3E9D2
:1032BC00002302F48043C7F8D8300023C7F8DC3071
:1032CC00D7E936120B46134358D0D7F80431D3F84C
:1032DC00AC30B3F1A04F33D0B3F1A04F2CD8B3F135
:1032EC00804F2FD0B3F1804F26D8B3F1405F2BD055
:1032FC00B3F1405F20D8B3F1005F12D0B3F1005F9F
:10330C001AD8002B22D0B3F1805F15D1D7F8043135
:10331C0008330121184601F0EDF9034687F81731FF
:10332C0015E0D7F8043128330121184601F094FA3E
:10333C00034687F817310AE0012387F8173106E0B6
:10334C0000BF04E000BF02E000BF00E000BF97F840
:10335C001731002B0ED1064B9B6D23F0E041D7F8B3
:10336C000431D3F8AC30024A0B43936506E000BF3E
:10337C000044025897F8173187F81631D7F8043102
:10338C00D3E9002302F40043C7F8D0300023C7F878
:10339C00D430D7E934120B46134337D0D7F8043165
:1033AC00DB6EB3F1005F0ED0B3F1005F16D8002BCB
:1033BC0018D0B3F1805F11D18C4BDB6A8B4A43F48C
:1033CC000033D3620FE0D7F80431083301211846DB
:1033DC0001F090F9034687F8173104E0012387F8D0
:1033EC00173100E000BF97F81731002B0AD17F4B43
:1033FC001B6D23F04051D7F80431DB6E7B4A0B4335
:10340C00136503E097F8173187F81631D7F80431B4
:10341C00D3E9002302F08073C7F8C8300023C7F843
:10342C00CC30D7E932120B46134339D0D7F80431DC
:10343C009B6C032B1CD801A252F823F08534000896
:10344C00593400086734000885340008674BDB6A80
:10345C00664A43F40033D3620FE0D7F804310833E3
:10346C000221184601F046F9034687F8173104E0AB
:10347C00012387F8173100E000BF97F81731002BB4
:10348C000AD15A4BDB6C23F00301D7F804319B6C47
:10349C00564A0B43D36403E097F8173187F816317B
:1034AC00D7F80431D3E9002302F48003C7F8C03005
:1034BC000023C7F8C430D7E930120B46134300F091
:1034CC009F804B4B1B684A4A43F480731360FEF792
:1034DC00B9F9C7F810010BE0FEF7B4F90246D7F8BA
:1034EC001031D31A642B03D9032387F8173105E065
:1034FC003F4B1B6803F48073002BEDD097F817310A
:10350C00002B79D1394B1A6FD7F80431D3F8B0307E
:10351C00534003F44073002B15D0344B1B6F23F432
:10352C004073C7F80C31314B1B6F304A43F4803376
:10353C0013672E4B1B6F2D4A23F4803313672B4AD2
:10354C00D7F80C311367D7F80431D3F8B030B3F592
:10355C00807F18D1FEF776F9C7F810010DE0FEF761
:10356C0071F90246D7F81031D21A41F288339A42D7
:10357C0003D9032387F8173105E01C4B1B6F03F0AD
:10358C000203002BEBD097F81731002B29D1D7F879
:10359C000431D3F8B03003F44073B3F5407F0ED14F
:1035AC00124B1B6923F47C51D7F80431D3F8B0309B
:1035BC001A09104B13400D4A0B43136105E00B4BDA
:1035CC001B690A4A23F47C531361084B196FD7F813
:1035DC000431D3F8B030C3F30B03044A0B43136725
:1035EC000EE097F8173187F8163109E000440258BD
:1035FC0000480258CFFFFF0097F8173187F81631B3
:10360C00D7F80431D3E9002302F00103C7F8B8302E
:10361C000023C7F8BC30D7E92E120B46134300F039
:10362C008980D7F804319B6F282B6BD801A252F8F4
:10363C0023F000BF193700081137000811370008B4
:10364C00113700081137000811370008113700082E
:10365C0011370008E536000811370008113700084B
:10366C00113700081137000811370008113700080E
:10367C0011370008FB360008113700081137000815
:10368C0011370008113700081137000811370008EE
:10369C0011370008193700081137000811370008D6
:1036AC0011370008113700081137000811370008CE
:1036BC0011370008193700081137000811370008B6
:1036CC0011370008113700081137000811370008AE
:1036DC001137000819370008D7F8043108330121D5
:1036EC00184601F007F8034687F817310FE0D7F8B2
:1036FC00043128330121184601F0AEF8034687F84F
:10370C00173104E0012387F8173100E000BF97F868
:10371C001731002B0AD1BF4B5B6D23F03801D7F862
:10372C0004319B6FBB4A0B43536503E097F8173189
:10373C0087F81631D7F80431D3E9002302F00203DD
:10374C00C7F8B0300023C7F8B430D7E92C120B46B9
:10375C00134341D0D7F804315B6F052B24D801A259
:10376C0052F823F0BD370008893700089F3700084E
:10377C00BD370008BD370008BD370008D7F8043145
:10378C0008330121184600F0B5FF034687F81731BE
:10379C000FE0D7F8043128330121184601F05CF80A
:1037AC00034687F8173104E0012387F8173100E04E
:1037BC0000BF97F81731002B0AD1964B5B6D23F0A5
:1037CC000701D7F804315B6F924A0B43536503E052
:1037DC0097F8173187F81631D7F80431D3E900235D
:1037EC0002F00403C7F8A8300023C7F8AC30D7E9BF
:1037FC002A120B46134344D0D7F80431D3F8903037
:10380C00052B25D801A252F823F000BF653800081B
:10381C00313800084738000865380008653800085A
:10382C0065380008D7F8043108330121184600F038
:10383C0061FF034687F817310FE0D7F804312833BE
:10384C000121184601F008F8034687F8173104E007
:10385C00012387F8173100E000BF97F81731002BD0
:10386C000BD16C4B9B6D23F00701D7F80431D3F8C7
:10387C009030684A0B43936503E097F8173187F84B
:10388C001631D7F80431D3E9002302F02003C7F82E
:10389C00A0300023C7F8A430D7E928120B461343F5
:1038AC0055D0D7F80431D3F88C30B3F1A04F33D0C6
:1038BC00B3F1A04F2CD8B3F1804F2FD0B3F1804F80
:1038CC0026D8B3F1405F2BD0B3F1405F20D8B3F1D1
:1038DC00005F12D0B3F1005F1AD8002B22D0B3F1E5
:1038EC00805F15D1D7F8043108330021184600F059
:1038FC0001FF034687F8173115E0D7F80431283358
:10390C000221184600F0A8FF034687F817310AE099
:10391C00012387F8173106E000BF04E000BF02E086
:10392C0000BF00E000BF97F81731002B0BD1394BCB
:10393C005B6D23F0E041D7F80431D3F88C30354A75
:10394C000B43536503E097F8173187F81631D7F816
:10395C000431D3E9002302F04003C7F89830002368
:10396C00C7F89C30D7E926120B46134358D0D7F82A
:10397C000431D3F89830B3F5A05F33D0B3F5A05F22
:10398C002CD8B3F5805F2FD0B3F5805F26D8B3F574
:10399C00406F2BD0B3F5406F20D8B3F5006F12D029
:1039AC00B3F5006F1AD8002B22D0B3F5806F15D168
:1039BC00D7F8043108330021184600F09BFE03466B
:1039CC0087F8173115E0D7F804312833022118464F
:1039DC0000F042FF034687F817310AE0012387F80D
:1039EC00173106E000BF04E000BF02E000BF00E0BA
:1039FC0000BF97F81731002B0ED1064B9B6D23F4AB
:103A0C00E051D7F80431D3F89830024A0B43936550
:103A1C0006E000BF0044025897F8173187F81631BA
:103A2C00D7F80431D3E9002302F08003C7F89030B3
:103A3C000023C7F89430D7E924120B46134355D012
:103A4C00D7F80431D3F89C30B3F5204F33D0B3F50D
:103A5C00204F2CD8B3F5004F2FD0B3F5004F26D8FC
:103A6C00B3F5C04F2BD0B3F5C04F20D8B3F5804F72
:103A7C0012D0B3F5804F1AD8002B22D0B3F5005FCB
:103A8C0015D1D7F8043108330021184600F032FE66
:103A9C00034687F8173115E0D7F804312833022193
:103AAC00184600F0D9FE034687F817310AE00123C7
:103ABC0087F8173106E000BF04E000BF02E000BF4A
:103ACC0000E000BF97F81731002B0BD1A04B9B6D7A
:103ADC0023F46041D7F80431D3F89C309C4A0B4353
:103AEC00936503E097F8173187F81631D7F804314E
:103AFC00D3E9002302F00803C7F888300023C7F885
:103B0C008C30D7E922120B4613431ED0D7F8043160
:103B1C00D3F88030B3F5805F0CD1D7F8043128335B
:103B2C000221184600F098FE0346002B02D0012318
:103B3C0087F81631864B5B6D23F44051D7F804316E
:103B4C00D3F88030824A0B435365D7F80431D3E95C
:103B5C00002302F01003C7F880300023C7F884302C
:103B6C00D7E920120B4613431ED0D7F80431D3F8F3
:103B7C009430B3F5807F0CD1D7F80431283302216F
:103B8C00184600F069FE0346002B02D0012387F88B
:103B9C0016316F4B9B6D23F44071D7F80431D3F879
:103BAC0094306B4A0B439365D7F80431D3E9002367
:103BBC0002F40023BB670023FB67D7E91E120B46F8
:103BCC0013433ED0D7F80431D3F8A030B3F5003FFF
:103BDC0022D0B3F5003F1BD8002B03D0B3F5803FA8
:103BEC000BD015E0D7F8043108330021184600F04B
:103BFC0081FD034687F817310FE0D7F804312833DD
:103C0C000221184600F028FE034687F8173104E01D
:103C1C00012387F8173100E000BF97F81731002B0C
:103C2C000BD14B4B9B6D23F44031D7F80431D3F8B7
:103C3C00A030474A0B43936503E097F8173187F898
:103C4C001631D7F80431D3E9002302F480233B6703
:103C5C0000237B67D7E91C120B4613433BD0D7F8E4
:103C6C000431D3F88430B3F5401F1FD0B3F5401F97
:103C7C0018D8B3F5801F03D0B3F5001F07D011E09F
:103C8C00334BDB6A324A43F40033D3620FE0D7F88C
:103C9C00043128330121184600F0DEFD034687F875
:103CAC00173104E0012387F8173100E000BF97F8C3
:103CBC001731002B0BD1264B5B6D23F44011D7F839
:103CCC000431D3F88430224A0B43536503E097F850
:103CDC00173187F81631D7F80431D3E9002302F4F1
:103CEC008033BB660023FB66D7E91A120B461343DD
:103CFC0034D0D7F804311B6D002B03D0B3F5803FC3
:103D0C0007D011E0124BDB6A114A43F40033D36243
:103D1C000EE0D7F8043108330221184600F0EAFC13
:103D2C00034687F8173103E0012387F8173100BFEA
:103D3C0097F81731002B0DD1054BDB6C23F4803138
:103D4C00D7F804311B6D024A0B43D36406E000BF65
:103D5C000044025897F8173187F81631D7F8043118
:103D6C00D3E9002302F000533B6600237B66D7E9BE
:103D7C0018120B4613430CD0D7F804312833022108
:103D8C00184600F069FD0346002B02D0012387F88A
:103D9C001631D7F80431D3E9002302F40033BB65A4
:103DAC000023FB65D7E916120B46134336D0D7F820
:103DBC000431DB6FB3F5407F18D0B3F5407F11D8D9
:103DCC00B3F5007F14D0B3F5007F0BD8002B11D0C6
:103DDC00B3F5807F06D1B34BDB6AB24A43F40033B0
:103DEC00D36208E0012387F8173104E000BF02E03A
:103DFC0000BF00E000BF97F81731002B0AD1A94B88
:103E0C005B6D23F44071D7F80431DB6FA54A0B438B
:103E1C00536503E097F8173187F81631D7F804315A
:103E2C00D3E9002302F480133B6500237B65D7E9BB
:103E3C0014120B46134309D09A4B1B6D23F000410F
:103E4C00D7F804311B6F974A0B431365D7F804312D
:103E5C00D3E9002302F40013BB640023FB64D7E90D
:103E6C0012120B46134309D08E4B1B6D23F080713D
:103E7C00D7F804319B6E8B4A0B431365D7F804318A
:103E8C00D3E9002302F080433B6400237B64D7E931
:103E9C0010120B4613430ED0824B1B69814A23F43C
:103EAC00004313617F4B1969D7F80431D3F8B43050
:103EBC007C4A0B431361D7F80431D3E9002302F099
:103ECC000043BB630023FB63D7E90E120B4613437D
:103EDC0009D0744BDB6C23F04051D7F804315B6D87
:103EEC00704A0B43D364D7F80431D3E9002302F4AE
:103EFC0000033B6300237B63D7E90C120B4613438F
:103F0C000AD0684B5B6D23F44001D7F80431D3F829
:103F1C008830644A0B435365D7F80431D3E9002346
:103F2C000021B96203F00103FB62D7E90A120B46C8
:103F3C00134311D0D7F8043108330021184600F090
:103F4C00D9FB034687F8173197F81731002B03D0AC
:103F5C0097F8173187F81631D7F80431D3E90023D5
:103F6C000021396203F002037B62D7E908120B4689
:103F7C00134311D0D7F8043108330121184600F04F
:103F8C00B9FB034687F8173197F81731002B03D08C
:103F9C0097F8173187F81631D7F80431D3E9002395
:103FAC000021B96103F00403FB61D7E906120B464B
:103FBC00134311D0D7F8043108330221184600F00E
:103FCC0099FB034687F8173197F81731002B03D06C
:103FDC0097F8173187F81631D7F80431D3E9002355
:103FEC000021396103F008037B61D7E904120B4609
:103FFC00134311D0D7F8043128330021184600F0B0
:10400C002BFC034687F8173197F81731002B03D098
:10401C0097F8173187F81631D7F80431D3E9002314
:10402C000021B96003F01003FB60D7E902120B46C4
:10403C00134311D0D7F8043128330121184600F06E
:10404C000BFC034687F8173197F81731002B03D078
:10405C0097F8173187F81631D7F80431D3E90023D4
:10406C000021396003F020037B60D7E900120B4676
:10407C00134311D0D7F8043128330221184600F02D
:10408C00EBFB034687F8173197F81731002B03D059
:10409C0097F8173187F8163197F81631002B03D1A2
:1040AC00002302E0004402580123184607F58C77E0
:1040BC00BD46BDE8B08F00BF80B500AFFEF700FE77
:1040CC000246064B1B6A1B0903F007030449CB5C31
:1040DC0003F01F0322FA03F3184680BD0044025874
:1040EC00FC710008B0B588B000AF7860754B9B6A66
:1040FC0003F00303BB61734B9B6A1B0B03F03F0381
:10410C007B61704BDB6A1B0903F001033B616D4B58
:10411C00DB6BDB08C3F30C033A6902FB03F31846B1
:10412C00FCF784F90346FB607B69002B00F04D81A2
:10413C00BB69022B00F09C80BB69022B00F2CC8087
:10414C00BB69002B03D0BB69012B67D0C4E05D4B6E
:10415C001B6803F02003002B36D05A4B1B68DB087E
:10416C0003F00303584A22FA03F3BB60B868FCF768
:10417C005DF904467869FCF759F90346194620465F
:10418C00FCF760FA03461D464E4B9B6BC3F30803CA
:10419C001846FCF74BF904464FF08C41F868FCF7D5
:1041AC0051FA034619462046FCF790F803464FF0A7
:1041BC007E511846FCF78AF8034619462846FCF748
:1041CC008DF90346FB61B1E07869FCF72FF90346E2
:1041DC0019463E48FCF736FA03461D46394B9B6B95
:1041EC00C3F308031846FCF721F904464FF08C4141
:1041FC00F868FCF727FA034619462046FCF766F8E0
:10420C0003464FF07E511846FCF760F803461946FA
:10421C002846FCF763F90346FB6187E07869FCF7F5
:10422C0005F9034619462A48FCF70CFA03461D46C5
:10423C00244B9B6BC3F308031846FCF7F7F80446B2
:10424C004FF08C41F868FCF7FDF9034619462046FF
:10425C00FCF73CF803464FF07E511846FCF736F855
:10426C00034619462846FCF739F90346FB615DE025
:10427C007869FCF7DBF8034619461648FCF7E2F9B7
:10428C0003461D460F4B9B6BC3F308031846FCF704
:10429C00CDF804464FF08C41F868FCF7D3F903468F
:1042AC0019462046FCF712F803464FF07E5118468B
:1042BC00FCF70CF8034619462846FCF70FF90346A1
:1042CC00FB6133E0004402580090D0030024744C8E
:1042DC000024744A001BB74B7869FCF7A7F8034617
:1042EC0019464048FCF7AEF903461D463E4B9B6B06
:1042FC00C3F308031846FCF799F804464FF08C41B9
:10430C00F868FCF79FF9034619462046FBF7DEFFD9
:10431C0003464FF07E511846FBF7D8FF034619466B
:10432C002846FCF7DBF80346FB6100BF2E4B9B6B6A
:10433C005B0A03F07F031846FCF778F803464FF04E
:10434C007E511846FBF7C2FF03461946F869FCF785
:10435C0079F903461846FCF7ADFA02467B681A60F9
:10436C00214B9B6B1B0C03F07F031846FCF75EF88C
:10437C0003464FF07E511846FBF7A8FF034619463B
:10438C00F869FCF75FF903461846FCF793FA024606
:10439C007B685A60144B9B6B1B0E03F07F03184613
:1043AC00FCF744F803464FF07E511846FBF78EFF9E
:1043BC0003461946F869FCF745F903461846FCF71D
:1043CC0079FA02467B689A6008E07B6800221A60E2
:1043DC007B6800225A607B6800229A6000BF2037FD
:1043EC00BD46B0BD0024744A00440258B0B588B034
:1043FC0000AF7860754B9B6A03F00303BB61734B92
:10440C009B6A1B0D03F03F037B61704BDB6A1B0A3D
:10441C0003F001033B616D4B5B6CDB08C3F30C03D6
:10442C003A6902FB03F31846FCF700F80346FB60FD
:10443C007B69002B00F04D81BB69022B00F09C8046
:10444C00BB69022B00F2CC80BB69002B03D0BB698B
:10445C00012B67D0C4E05D4B1B6803F02003002BDD
:10446C0036D05A4B1B68DB0803F00303584A22FA78
:10447C0003F3BB60B868FBF7D9FF04467869FBF718
:10448C00D5FF034619462046FCF7DCF803461D46CB
:10449C004E4B1B6CC3F308031846FBF7C7FF0446CF
:1044AC004FF08C41F868FCF7CDF8034619462046CE
:1044BC00FBF70CFF03464FF07E511846FBF706FF47
:1044CC00034619462846FCF709F80346FB61B1E0A0
:1044DC007869FBF7ABFF034619463E48FCF7B2F888
:1044EC0003461D46394B1B6CC3F308031846FBF7F8
:1044FC009DFF04464FF08C41F868FCF7A3F8034687
:10450C0019462046FBF7E2FE03464FF07E51184653
:10451C00FBF7DCFE034619462846FBF7DFFF034694
:10452C00FB6187E07869FBF781FF034619462A484F
:10453C00FCF788F803461D46244B1B6CC3F3080399
:10454C001846FBF773FF04464FF08C41F868FCF7F4
:10455C0079F8034619462046FBF7B8FE03464FF0A0
:10456C007E511846FBF7B2FE034619462846FBF768
:10457C00B5FF0346FB615DE07869FBF757FF034627
:10458C0019461648FCF75EF803461D460F4B1B6C8C
:10459C00C3F308031846FBF749FF04464FF08C4160
:1045AC00F868FCF74FF8034619462046FBF78EFED9
:1045BC0003464FF07E511846FBF788FE034619461A
:1045CC002846FBF78BFF0346FB6133E0004402589F
:1045DC000090D0030024744C0024744A001BB74B89
:1045EC007869FBF723FF034619464048FCF72AF885
:1045FC0003461D463E4B1B6CC3F308031846FBF7E2
:10460C0015FF04464FF08C41F868FCF71BF8034685
:10461C0019462046FBF75AFE03464FF07E511846CA
:10462C00FBF754FE034619462846FBF757FF034693
:10463C00FB6100BF2E4B1B6C5B0A03F07F0318461B
:10464C00FBF7F4FE03464FF07E511846FBF73EFE97
:10465C0003461946F869FBF7F5FF03461846FCF7C5
:10466C0029F902467B681A60214B1B6C1B0C03F06A
:10467C007F031846FBF7DAFE03464FF07E511846CF
:10468C00FBF724FE03461946F869FBF7DBFF0346EC
:10469C001846FCF70FF902467B685A60144B1B6CEA
:1046AC001B0E03F07F031846FBF7C0FE03464FF0CA
:1046BC007E511846FBF70AFE03461946F869FBF7CC
:1046CC00C1FF03461846FCF7F5F802467B689A6072
:1046DC0008E07B6800221A607B6800225A607B68C5
:1046EC0000229A6000BF2037BD46B0BD0024744A3A
:1046FC000044025880B584B000AF78603960002364
:10470C00FB73534B9B6A03F00303032B01D101236F
:10471C0099E04F4B1B684E4A23F080631360FDF702
:10472C0091F8B86008E0FDF78DF80246BB68D31A23
:10473C00022B01D9032386E0454B1B6803F0006371
:10474C00002BF0D1424B9B6A23F47C327B681B68B4
:10475C001B033F4913438B627B685B68013BC3F3CC
:10476C0008027B689B68013B5B029BB21A437B6827
:10477C00DB68013B1B0403F4FE031A437B681B69D3
:10478C00013B1B0603F0FE43314913438B63304B53
:10479C00DB6A23F0C0027B685B692D491343CB6253
:1047AC002B4BDB6A23F020027B689B69284913435F
:1047BC00CB62274BDB6A264A23F01003D362244BCF
:1047CC00DA6B244B13407A68D269D2002049134328
:1047DC00CB631F4BDB6A1E4A43F01003D3623B686A
:1047EC00002B06D11A4BDB6A194A43F40023D3621F
:1047FC000FE03B68012B06D1154BDB6A144A43F4DE
:10480C008013D36205E0124BDB6A114A43F40013A8
:10481C00D3620F4B1B680E4A43F080631360FDF7A5
:10482C0011F8B86008E0FDF70DF80246BB68D31A22
:10483C00022B01D9032306E0054B1B6803F0006330
:10484C00002BF0D0FB7B18461037BD4680BD00BF57
:10485C00004402580700FFFF80B584B000AF7860B9
:10486C0039600023FB73534B9B6A03F00303032B48
:10487C0001D1012399E04F4B1B684E4A23F0805322
:10488C001360FCF7DFFFB86008E0FCF7DBFF0246C3
:10489C00BB68D31A022B01D9032386E0454B1B6856
:1048AC0003F00053002BF0D1424B9B6A23F07C7237
:1048BC007B681B681B053F4913438B627B685B68F5
:1048CC00013BC3F308027B689B68013B5B029BB214
:1048DC001A437B68DB68013B1B0403F4FE031A4399
:1048EC007B681B69013B1B0603F0FE4331491343F4
:1048FC000B64304BDB6A23F440627B685B692D49A7
:10490C001343CB622B4BDB6A23F400727B689B69ED
:10491C0028491343CB62274BDB6A264A23F4807366
:10492C00D362244B5A6C244B13407A68D269D20060
:10493C00204913434B641F4BDB6A1E4A43F48073BC
:10494C00D3623B68002B06D11A4BDB6A194A43F43D
:10495C008003D3620FE03B68012B06D1154BDB6A59
:10496C00144A43F40003D36205E0124BDB6A114A8C
:10497C0043F08073D3620F4B1B680E4A43F0805395
:10498C001360FCF75FFFB86008E0FCF75BFF0246C2
:10499C00BB68D31A022B01D9032306E0054B1B6815
:1049AC0003F00053002BF0D0FB7B18461037BD46AC
:1049BC0080BD00BF004402580700FFFF80B58AB0DD
:1049CC0002AFF860B9603B601346FB80FB68D3F81C
:1049DC008830202B7BD1BB68002B02D0FB88002BAE
:1049EC0001D1012374E0FB680022C3F89020FB681E
:1049FC002122C3F88820FCF725FF7861FB68FA8830
:104A0C00A3F85420FB68FA88A3F85620FB689B682F
:104A1C00B3F5805F08D1FB681B69002B04D1002320
:104A2C00FB61BB68BB6103E0BB68FB610023BB613E
:104A3C0030E03B6800937B6900228021F86801F02C
:104A4C0004F80346002B05D0FB682022C3F888200D
:104A5C0003233DE0FB69002B0BD1BB691B881A4675
:104A6C00FB681B68C2F308029A62BB690233BB6124
:104A7C0007E0FB691A78FB681B689A62FB690133D3
:104A8C00FB61FB68B3F856309BB2013B9AB2FB68F2
:104A9C00A3F85620FB68B3F856309BB2002BC8D154
:104AAC003B6800937B6900224021F86800F0CDFF41
:104ABC000346002B05D0FB682022C3F88820032373
:104ACC0006E0FB682022C3F88820002300E00223C4
:104ADC0018462037BD4680BD2DE9B04F92B000AFCF
:104AEC007861002387F842307B699A687B691B697F
:104AFC001A437B695B691A437B69DB6913437B64EB
:104B0C007B691B681A68BE4B13407A691268796C12
:104B1C000B4313607B691B685B6823F440517B6912
:104B2C00DA687B691B680A435A607B699B697B6402
:104B3C007B691B68B34A934204D07B691B6A7A6C0D
:104B4C0013437B647B691B689A68AF4B13407A698B
:104B5C001268796C0B4393607B691B68DB6A23F0EA
:104B6C000F017B695A6A7B691B680A43DA627B69AD
:104B7C001B68A64A934277D1A54B5B6D03F03803B3
:104B8C00282B6DD801A252F823F000BF3D4C000831
:104B9C006D4C00086D4C00086D4C00086D4C000805
:104BAC006D4C00086D4C00086D4C0008454C00081D
:104BBC006D4C00086D4C00086D4C00086D4C0008E5
:104BCC006D4C00086D4C00086D4C00084D4C0008F5
:104BDC006D4C00086D4C00086D4C00086D4C0008C5
:104BEC006D4C00086D4C00086D4C0008554C0008CD
:104BFC006D4C00086D4C00086D4C00086D4C0008A5
:104C0C006D4C00086D4C00086D4C00085D4C0008A4
:104C1C006D4C00086D4C00086D4C00086D4C000884
:104C2C006D4C00086D4C00086D4C0008654C00087C
:104C3C00012387F8433026E3042387F8433022E32B
:104C4C00082387F843301EE3102387F843301AE318
:104C5C00202387F8433016E3402387F8433012E3D0
:104C6C00802387F843300EE37B691B68694A9342C3
:104C7C0030D1674B5B6D03F00703052B26D801A2DF
:104C8C0052F823F0A94C0008B14C0008B94C0008AC
:104C9C00C14C0008C94C0008D14C0008002387F80F
:104CAC004330F0E2042387F84330ECE2082387F822
:104CBC004330E8E2102387F84330E4E2202387F8FE
:104CCC004330E0E2402387F84330DCE2802387F86E
:104CDC004330D8E27B691B684F4A934230D14C4B2E
:104CEC005B6D03F00703052B26D801A252F823F0C5
:104CFC00154D00081D4D0008254D00082D4D0008D0
:104D0C00354D00083D4D0008002387F84330BAE2CA
:104D1C00042387F84330B6E2082387F84330B2E225
:104D2C00102387F84330AEE2202387F84330AAE201
:104D3C00402387F84330A6E2802387F84330A2E271
:104D4C007B691B68354A934230D1314B5B6D03F064
:104D5C000703052B26D801A252F823F0814D000839
:104D6C00894D0008914D0008994D0008A14D00088F
:104D7C00A94D0008002387F8433084E2042387F808
:104D8C00433080E2082387F843307CE2102387F815
:104D9C00433078E2202387F8433074E2402387F8CD
:104DAC00433070E2802387F843306CE27B691B68E8
:104DBC001B4A934242D1164B5B6D03F00703052B44
:104DCC0038D801A252F823F0ED4D0008F54D00083B
:104DDC00FD4D0008054E0008314E0008394E000804
:104DEC00002387F843304EE2042387F843304AE22D
:104DFC00082387F8433046E2102387F8433042E219
:104E0C00F369FFCF000C0058FFF4FF1100100140B4
:104E1C00004402580044004000480040004C004050
:104E2C0000500040202387F843302CE2402387F8C1
:104E3C00433028E2802387F8433024E27B691B68E7
:104E4C00B14A934276D1B14B5B6D03F03803282BFA
:104E5C006CD801A252F823F0094F0008394F000812
:104E6C00394F0008394F0008394F0008394F0008F6
:104E7C00394F0008394F0008114F0008394F00080E
:104E8C00394F0008394F0008394F0008394F0008D6
:104E9C00394F0008394F0008194F0008394F0008E6
:104EAC00394F0008394F0008394F0008394F0008B6
:104EBC00394F0008394F0008214F0008394F0008BE
:104ECC00394F0008394F0008394F0008394F000896
:104EDC00394F0008394F0008294F0008394F000896
:104EEC00394F0008394F0008394F0008394F000876
:104EFC00394F0008394F0008314F0008012387F85B
:104F0C004330C0E1042387F84330BCE1082387F821
:104F1C004330B8E1102387F84330B4E1202387F8FD
:104F2C004330B0E1402387F84330ACE1802387F86D
:104F3C004330A8E17B691B68754A934230D1734BAF
:104F4C005B6D03F00703052B26D801A252F823F062
:104F5C00754F00087D4F0008854F00088D4F0008E5
:104F6C00954F00089D4F0008002387F843308AE1D5
:104F7C00042387F8433086E1082387F8433082E125
:104F8C00102387F843307EE1202387F843307AE101
:104F9C00402387F8433076E1802387F8433072E171
:104FAC007B691B685B4A934230D1584B5B6D03F0B5
:104FBC000703052B26D801A252F823F0E14F000875
:104FCC00E94F0008F14F0008F94F000801500008A4
:104FDC0009500008002387F8433054E1042387F874
:104FEC00433050E1082387F843304CE1102387F815
:104FFC00433048E1202387F8433044E1402387F8CD
:10500C00433040E1802387F843303CE17B691B68E7
:10501C00414A934240F082803C4B5B6D03F0380375
:10502C00282B6DD801A252F823F000BFDD500008E8
:10503C000D5100080D5100080D5100080D510008CC
:10504C000D5100080D5100080D510008E5500008E5
:10505C000D5100080D5100080D5100080D510008AC
:10506C000D5100080D5100080D510008ED500008BD
:10507C000D5100080D5100080D5100080D5100088C
:10508C000D5100080D5100080D510008F550000895
:10509C000D5100080D5100080D5100080D5100086C
:1050AC000D5100080D5100080D510008FD5000086D
:1050BC000D5100080D5100080D5100080D5100084C
:1050CC000D5100080D5100080D5100080551000844
:1050DC00012387F84330D6E0042387F84330D2E02D
:1050EC00082387F84330CEE0102387F84330CAE01A
:1050FC00202387F84330C6E0402387F84330C2E0D2
:10510C00802387F84330BEE000140140004402586D
:10511C0000780040007C0040001801407B691B684F
:10512C00AD4A934276D1AD4B5B6D03F03803282B1F
:10513C006CD801A252F823F0E9510008195200086A
:10514C001952000819520008195200081952000887
:10515C001952000819520008F151000819520008A0
:10516C001952000819520008195200081952000867
:10517C001952000819520008F95100081952000878
:10518C001952000819520008195200081952000847
:10519C00195200081952000801520008195200084F
:1051AC001952000819520008195200081952000827
:1051BC001952000819520008095200081952000827
:1051CC001952000819520008195200081952000807
:1051DC00195200081952000811520008012387F8CF
:1051EC00433050E0042387F843304CE0082387F821
:1051FC00433048E0102387F8433044E0202387F8FD
:10520C00433040E0402387F843303CE0802387F86C
:10521C00433038E07B691B68714A934230D16F4B45
:10522C009B6D03F00703052B26D801A252F823F03F
:10523C00555200085D520008655200086D52000876
:10524C00755200087D520008022387F843301AE09B
:10525C00042387F8433016E0082387F8433012E024
:10526C00102387F843300EE0202387F843300AE000
:10527C00402387F8433006E0802387F8433002E070
:10528C00802387F843307B691B68554A934240F072
:10529C00F88097F84330202B46DC022B75DB023B61
:1052AC001E2B72D801A252F823F000BF3B5300080A
:1052BC00975300084353000897530008975300086E
:1052CC00975300085353000897530008975300084E
:1052DC0097530008975300089753000897530008FA
:1052EC00975300086353000897530008975300081E
:1052FC0097530008975300089753000897530008DA
:10530C0097530008975300089753000897530008C9
:10531C0097530008975300089753000897530008B9
:10532C009753000889530008402B2AD02DE0FEF734
:10533C00C3FEF8632FE007F124031846FEF7D2FEF4
:10534C00BB6AFB6327E007F118031846FFF74EF81A
:10535C00FB69FB631FE0214B1B6803F02003002B50
:10536C0009D01E4B1B68DB0803F003031D4A22FA0D
:10537C0003F3FB630FE01B4BFB630CE01A4BFB636B
:10538C0009E04FF40043FB6305E00023FB630123BA
:10539C0087F8423000BFFB6B002B00F0EE817B697D
:1053AC005B6A124A32F813301A46FB6BB3FBF2F30A
:1053BC003B637B695A6813465B0013443A6B9A4211
:1053CC0005D37B695B681B033A6B9A4210D90123A6
:1053DC0087F84230D1E100BF001C01400044025864
:1053EC00000C00580090D00300093D000C7200081E
:1053FC00FB6B0022BB60FA607B695B6AB84A32F8CF
:10540C0013309BB200223B607A60D7E90023D7E9C6
:10541C000201FBF76FFA02460B46104619464FF095
:10542C0000024FF000030B0243EA10630202796999
:10543C004968490800200C46054612EB040843EB6A
:10544C0005097B695B6800229A46934652465B4687
:10545C0040464946FBF74EFA02460B461346BB63E1
:10546C00BB6BB3F5407F08D3BB6BB3F5801F04D285
:10547C007B691B68BA6BDA607FE1012387F84230E5
:10548C007BE17B69DB69B3F5004F40F0BD8097F899
:10549C004330202B48DC002B7BDB202B79D801A25E
:1054AC0052F823F03B550008435500089F5500085F
:1054BC009F5500084B5500089F5500089F55000844
:1054CC009F5500085B5500089F5500089F55000824
:1054DC009F5500089F5500089F5500089F550008D0
:1054EC009F5500086B5500089F5500089F550008F4
:1054FC009F5500089F5500089F5500089F550008B0
:10550C009F5500089F5500089F5500089F5500089F
:10551C009F5500089F5500089F5500089F5500088F
:10552C009F55000891550008402B2ED031E0FDF717
:10553C00F7FBF86333E0FDF709FCF8632FE007F1A4
:10554C0024031846FEF7CEFDBB6AFB6327E007F188
:10555C0018031846FEF74AFFFB69FB631FE0614B1B
:10556C001B6803F02003002B09D05E4B1B68DB0883
:10557C0003F003035C4A22FA03F3FB630FE05A4B7C
:10558C00FB630CE0594BFB6309E04FF40043FB63F6
:10559C0005E00023FB63012387F8423000BFFB6B5F
:1055AC00002B00F0EA807B695B6A4D4A32F81330BD
:1055BC001A46FB6BB3FBF2F35A007B695B685B0822
:1055CC001A447B695B68B2FBF3F3BB63BB6B0F2BB9
:1055DC0016D9BB6BB3F5803F12D2BB6B9BB223F0D9
:1055EC000F03FB86BB6B5B089BB203F007039AB2FD
:1055FC00FB8E1343FB867B691B68FA8EDA60BCE07A
:10560C00012387F84230B8E097F84330202B4BDC6D
:10561C00002BC0F28780202B00F2848001A252F86C
:10562C0023F000BFBB560008C356000831570008D2
:10563C0031570008CB560008315700083157000885
:10564C0031570008DB560008315700083157000865
:10565C0031570008315700083157000831570008FE
:10566C0031570008FD560008315700083157000823
:10567C0031570008315700083157000831570008DE
:10568C0031570008315700083157000831570008CE
:10569C0031570008315700083157000831570008BE
:1056AC003157000823570008402B37D03AE0FDF75C
:1056BC0037FBF8633CE0FDF749FBF86338E007F192
:1056CC0024031846FEF70EFDBB6AFB6330E007F1BE
:1056DC0018031846FEF78AFEFB69FB6328E000BF3F
:1056EC000C720008004402580090D00300093D00E1
:1056FC002C4B1B6803F02003002B09D0294B1B6893
:10570C00DB0803F00303284A22FA03F3FB630FE0E0
:10571C00254BFB630CE0254BFB6309E04FF4004386
:10572C00FB6305E00023FB63012387F8423000BFD5
:10573C00FB6B002B21D07B695B6A1D4A32F813305E
:10574C001A46FB6BB3FBF2F27B695B685B081A448D
:10575C007B695B68B2FBF3F3BB63BB6B0F2B09D9A3
:10576C00BB6BB3F5803F05D2BB6B9AB27B691B68F0
:10577C00DA6002E0012387F842307B690122A3F84A
:10578C006A207B690122A3F868207B6900225A6792
:10579C007B6900229A6797F8423018464837BD4615
:1057AC00BDE8B08F004402580090D00300093D00C2
:1057BC000C72000880B483B000AF78607B689B6A81
:1057CC0003F00103002B0AD07B681B685B6823F491
:1057DC0000317B68DA6A7B681B680A435A607B6815
:1057EC009B6A03F00203002B0AD07B681B685B6882
:1057FC0023F480317B681A6B7B681B680A435A6000
:10580C007B689B6A03F00403002B0AD07B681B683F
:10581C005B6823F480217B685A6B7B681B680A43A6
:10582C005A607B689B6A03F00803002B0AD07B68E4
:10583C001B685B6823F400417B689A6B7B681B6870
:10584C000A435A607B689B6A03F01003002B0AD052
:10585C007B681B689B6823F480517B68DA6B7B68E0
:10586C001B680A439A607B689B6A03F02003002B39
:10587C000AD07B681B689B6823F400517B681A6C08
:10588C007B681B680A439A607B689B6A03F0400341
:10589C00002B1AD07B681B685B6823F480117B6833
:1058AC005A6C7B681B680A435A607B685B6CB3F567
:1058BC00801F0AD17B681B685B6823F4C0017B687E
:1058CC009A6C7B681B680A435A607B689B6A03F07E
:1058DC008003002B0AD07B681B685B6823F40021D3
:1058EC007B68DA6C7B681B680A435A6000BF0C3714
:1058FC00BD4680BC704780B598B002AF78607B68BD
:10590C000022C3F89020FBF79DFF78657B681B682D
:10591C001B6803F00803082B2FD16FF07E43009314
:10592C007B6D00224FF40011786800F08EF803466E
:10593C00002B22D07B681B68BB63BB6B53E8003F1A
:10594C007B637B6B23F080033B657B681B681A468B
:10595C003B6D7B643A64396C7A6C41E80023FB63E1
:10596C00FB6B002BE6D17B682022C3F888207B6878
:10597C00002283F88420032363E07B681B681B6888
:10598C0003F00403042B49D16FF07E4300937B6D2D
:10599C0000224FF48001786800F057F80346002B82
:1059AC003CD07B681B687B627B6A53E8003F3B62A0
:1059BC003B6A23F49073FB647B681B681A46FB6C90
:1059CC003B63FA62F96A3A6B41E80023BB62BB6A3B
:1059DC00002BE6D17B681B6808333B613B6953E8BD
:1059EC00003FFB60FB6823F00103BB647B681B6812
:1059FC000833BA6CFA61BB61B969FA6941E80023F2
:105A0C007B617B69002BE5D17B682022C3F88C205D
:105A1C007B68002283F88420032312E07B68202219
:105A2C00C3F888207B682022C3F88C207B68002276
:105A3C00DA667B6800221A677B68002283F8842070
:105A4C00002318465837BD4680BD80B584B000AFE2
:105A5C00F860B9603B601346FB7149E0BB69B3F178
:105A6C00FF3F45D0FBF7EEFE02463B68D31ABA69FE
:105A7C009A4202D3BB69002B01D1032348E0FB6897
:105A8C001B681B6803F00403002B31D0FB681B68F8
:105A9C00DB6903F00803082B10D1FB681B68082294
:105AAC001A62F86800F038F8FB680822C3F89020F6
:105ABC00FB68002283F88420012329E0FB681B6823
:105ACC00DB6903F40063B3F5006F11D1FB681B684D
