:020000040800F2
:1000000000000524A10D0008E90B0008EB0B000817
:10001000ED0B0008EF0B0008F10B000800000000DA
:10002000000000000000000000000000F30B0008CA
:10003000F50B000800000000F70B0008F90B0008A2
:10004000F10D0008F10D0008F10D0008F10D000898
:10005000F10D0008F10D0008F10D0008F10D000888
:10006000F10D0008F10D0008F10D0008F10D000878
:10007000F10D0008F10D0008F10D0008F10D000868
:10008000F10D0008F10D0008F10D0008F10D000858
:10009000F10D0008F10D0008F10D0008F10D000848
:1000A000F10D0008F10D0008F10D0008F10D000838
:1000B000F10D0008F10D0008F10D0008F10D000828
:1000C000F10D0008F10D0008F10D0008F10D000818
:1000D000F10D0008F10D0008F10D0008F10D000808
:1000E000F10D0008F10D000800000000F10D0008FE
:1000F000F10D0008F10D0008F10D0008F10D0008E8
:10010000F10D0008F10D0008F10D0008F10D0008D7
:10011000F10D0008F10D0008F10D0008F10D0008C7
:10012000F10D0008F10D0008F10D0008F10D0008B7
:10013000F10D0008F10D0008F10D0008F10D0008A7
:1001400000000000000000000000000000000000AF
:10015000F10D0008F10D0008F10D0008F10D000887
:10016000F10D0008F10D0008F10D0008F10D000877
:10017000F10D0008F10D0008F10D0008000000006D
:10018000F10D0008F10D0008F10D0008F10D000857
:10019000F10D0008F10D0008F10D0008F10D000847
:1001A000F10D0008F10D0008F10D0008000000003D
:1001B000F10D0008F10D0008F10D0008F10D000827
:1001C000F10D0008F10D0008000000000000000023
:1001D0000000000000000000F10D00080000000019
:1001E000000000000000000000000000000000000F
:1001F0000000000000000000F10D0008F10D0008F3
:10020000F10D0008F10D000800000000F10D0008DC
:10021000F10D0008F10D0008F10D0008F10D0008C6
:10022000F10D000800000000F10D000800000000C2
:10023000F10D0008F10D000800000000F10D0008AC
:10024000F10D0008F10D0008F10D0008F10D000896
:10025000F10D0008F10D0008F10D0008F10D000886
:10026000F10D0008F10D0008F10D0008F10D000876
:10027000F10D0008F10D0008F10D0008000000006C
:10028000F10D0008F10D0008F10D0008F10D000856
:1002900000000000F10D0008F10D00080000000052
:1002A00000000000F10D0008F10D0008F10D00083C
:1002B000F10D0008F10D0008F10D0008F10D000826
:0C02C000F10D0008F10D0008F10D000820
:1002CC0080F0004002E000BF81F0004142001FBFFF
:1002DC005FEA410392EA030F7FEA226C7FEA236C08
:1002EC006AD04FEA1262D2EB1363C1BFD2184140FD
:1002FC0048404140B8BF5B42192B88BF704710F093
:10030C00004F40F4000020F07F4018BF404211F035
:10031C00004F41F4000121F07F4118BF494292EA9D
:10032C00030F3FD0A2F1010241FA03FC10EB0C00C9
:10033C00C3F1200301FA03F100F0004302D5494256
:10034C0060EB4000B0F5000F13D3B0F1807F06D303
:10035C0040084FEA310102F10102FE2A51D2B1F1FB
:10036C00004F40EBC25008BF20F0010040EA0300F0
:10037C007047490040EB0000013A28BFB0F5000F70
:10038C00EDD2B0FA80FCACF1080CB2EB0C0200FA26
:10039C000CF0AABF00EBC25052421843BCBFD04075
:1003AC001843704792F0000F81F4000106BF80F4EF
:1003BC0000000132013BB5E74FEA41037FEA226CB2
:1003CC0018BF7FEA236C21D092EA030F04D092F07D
:1003DC00000F08BF0846704790EA010F1CBF0020B1
:1003EC00704712F07F4F04D1400028BF40F000400E
:1003FC00704712F100723CBF00F50000704700F02E
:10040C00004343F0FE4040F4000070477FEA226254
:10041C0016BF08467FEA23630146420206BF5FEA25
:10042C00412390EA010F40F4800070474FF0000325
:10043C0004E000BF10F0004348BF40425FEA000CEC
:10044C0008BF704743F0964301464FF000001CE094
:10045C0050EA010208BF70474FF000030AE000BFEA
:10046C0050EA010208BF704711F0004302D5404228
:10047C0061EB41015FEA010C02BF8446014600209A
:10048C0043F0B64308BFA3F18053A3F50003BCFAB5
:10049C008CF2083AA3EBC25310DB01FA02FC634462
:1004AC0000FA02FCC2F12002BCF1004F20FA02F269
:1004BC0043EB020008BF20F00100704702F120025C
:1004CC0001FA02FCC2F1200250EA4C0021FA02F2BD
:1004DC0043EB020008BF20EADC7070474FF0FF0CC2
:1004EC001CEAD0521EBF1CEAD15392EA0C0F93EABD
:1004FC000C0F6FD01A4480EA010C400218BF5FEA5F
:10050C0041211ED04FF0006343EA501043EA5111D1
:10051C00A0FB01310CF00040B1F5000F3EBF4900CB
:10052C0041EAD3715B0040EA010062F17F02FD2ACF
:10053C001DD8B3F1004F40EBC25008BF20F00100B2
:10054C00704790F0000F0CF0004C08BF49024CEAC9
:10055C00502040EA51207F3AC2BFD2F1FF0340EA5B
:10056C00C250704740F400004FF00003013A5DDCCC
:10057C0012F1190FDCBF00F000407047C2F100020D
:10058C00410021FA02F1C2F1200200FA02FC5FEAFA
:10059C00310040F1000053EA4C0308BF20EADC7044
:1005AC00704792F0000F00F0004C02BF400010F4B6
:1005BC00000F013AF9D040EA0C0093F0000F01F063
:1005CC00004C02BF490011F4000F013BF9D041EA85
:1005DC000C018FE70CEAD15392EA0C0F18BF93EA87
:1005EC000C0F0AD030F0004C18BF31F0004CD8D1B1
:1005FC0080EA010000F00040704790F0000F17BF38
:10060C0090F0004F084691F0000F91F0004F14D07D
:10061C0092EA0C0F01D142020FD193EA0C0F03D1D5
:10062C004B0218BF084608D180EA010000F00040D8
:10063C0040F0FE4040F40000704740F0FE4040F4B3
:10064C00400070474FF0FF0C1CEAD0521EBF1CEA52
:10065C00D15392EA0C0F93EA0C0F69D0A2EB030270
:10066C0080EA010C49024FEA402037D04FF080530A
:10067C0043EA111143EA10130CF000408B4238BFCF
:10068C005B0042F17D024FF4000C8B4224BF5B1ADD
:10069C0040EA0C00B3EB510F24BFA3EB510340EA2B
:1006AC005C00B3EB910F24BFA3EB910340EA9C00D9
:1006BC00B3EBD10F24BFA3EBD10340EADC001B0149
:1006CC0018BF5FEA1C1CE0D1FD2A3FF650AF8B42ED
:1006DC0040EBC25008BF20F0010070470CF0004CFA
:1006EC004CEA50207F32C2BFD2F1FF0340EAC25025
:1006FC00704740F400004FF00003013A37E792F0E6
:10070C00000F00F0004C02BF400010F4000F013A43
:10071C00F9D040EA0C0093F0000F01F0004C02BF3E
:10072C00490011F4000F013BF9D041EA0C0195E7A7
:10073C000CEAD15392EA0C0F08D142027FF47DAF40
:10074C0093EA0C0F7FF470AF084676E793EA0C0F30
:10075C0004D14B023FF44CAF08466EE730F0004C2E
:10076C0018BF31F0004CCAD130F000427FF45CAFBE
:10077C0031F000437FF43CAF5FE700BF4FF0FF3C2C
:10078C0006E000BF4FF0010C02E000BF4FF0010C7F
:10079C004DF804CD4FEA40024FEA41037FEA226C48
:1007AC0018BF7FEA236C11D001B052EA530C18BF6A
:1007BC0090EA010F58BFB2EB030088BFC81738BFCF
:1007CC006FEAE17018BF40F0010070477FEA226CBD
:1007DC0002D15FEA402C05D17FEA236CE4D15FEAB9
:1007EC00412CE1D05DF8040B704700BF84460846ED
:1007FC006146FFE70FB5FFF7C9FF002848BF10F1AE
:10080C00000F0FBD4DF808EDFFF7F4FF0CBF0120F2
:10081C0000205DF808FB00BF4DF808EDFFF7EAFF7C
:10082C0034BF012000205DF808FB00BF4DF808ED37
:10083C00FFF7E0FF94BF012000205DF808FB00BF2C
:10084C004DF808EDFFF7D2FF94BF012000205DF8B2
:10085C0008FB00BF4DF808EDFFF7C8FF34BF0120BF
:10086C0000205DF808FB00BF4FEA4002B2F1FE4FDA
:10087C000FD34FF09E03B3EB12620DD94FEA002356
:10088C0043F0004310F0004F23FA02F018BF40422F
:10089C0070474FF00000704712F1610F01D1420216
:1008AC0005D110F0004008BF6FF0004070474FF0CA
:1008BC000000704742000ED2B2F1FE4F0BD34FF046
:1008CC009E03B3EB126209D44FEA002343F00043BA
:1008DC0023FA02F070474FF00000704712F1610FDD
:1008EC0001D1420202D14FF0FF3070474FF00000AF
:1008FC00704700BF53B94AB9002908BF00281CBF74
:10090C004FF0FF314FF0FF3000F00CB8ADF1080C98
:10091C006DE904CE03F080FADDF804E0DDE9022392
:10092C0004B07047704700BF0348044B834202D0A9
:10093C00034B03B118477047140000241400002423
:10094C00000000000548064B1B1AD90F01EBA30150
:10095C00491002D0034B03B1184770471400002410
:10096C00140000240000000010B5064C237843B995
:10097C00FFF7DAFF044B13B10448AFF300800123F7
:10098C00237010BD1800002400000000D84200089D
:10099C0008B5054B1BB105490548AFF30080BDE810
:1009AC000840FFF7CFBF00BF000000001C00002470
:1009BC00D84200082DE9F0418AB005AD0024059419
:1009CC000694079408940994314BD3F8E02042F034
:1009DC001002C3F8E020D3F8E02002F010020192DC
:1009EC00019AD3F8E02042F08002C3F8E020D3F85B
:1009FC00E02002F080020292029AD3F8E02042F04A
:100A0C000102C3F8E020D3F8E02002F001020392C7
:100A1C00039AD3F8E02042F00802C3F8E020D3F8A0
:100A2C00E03003F008030493049B0423059302268F
:100A3C0006960993174F2946384600F0B9FA082351
:100A4C0005930696079408940B2309932946384678
:100A5C0000F0AEFA4FF4C073059306960794089411
:100A6C004FF00708CDF824802946384600F0A0FA4C
:100A7C004FF4C0630593069607940894CDF8248030
:100A8C002946054800F094FA0AB0BDE8F08100BF91
:100A9C0000440258001002580000025872B6FEE7DB
:100AAC0000B59DB04C22002109A803F031FB202297
:100ABC00002101A803F02CFB022000F097FB00237F
:100ACC000093204B9A6922F440429A619B6903F48B
:100ADC0040430093009B1B4B9B6913F4005FFAD0BF
:100AEC00012209924FF480330A9302231293139339
:100AFC0014932821159116920422179218930C2303
:100B0C00199300231A931B9309A800F099FBA8B919
:100B1C003F230193032102910023039308230493A1
:100B2C004023059306934FF480620792089301A823
:100B3C0000F08AFF20B91DB05DF804FBFFF7AEFF93
:100B4C00FFF7ACFF0048025810B500F075F9FFF73D
:100B5C00A7FFFFF72FFF00F099F8124B00221A8421
:100B6C0001225A8400225A620F499962DA621A638E
:100B7C000E4A5A6300240E490A4803F007F94FF451
:100B8C00FA7000F099F94FF480410A4800F024FB08
:100B9C000134E4B2062CEED1024B00229A625A6365
:100BAC00E8E700BF780000240000A041CDCC4C3D0C
:100BBC00380000240004025882B0074BD3F8F4200C
:100BCC0042F00202C3F8F420D3F8F43003F002032D
:100BDC000193019B02B0704700440258FEE7FEE708
:100BEC00FEE7FEE7FEE770477047704708B500F078
:100BFC0051F908BD1E4B1B6803F00F03062B06D8DA
:100C0C001B4A136823F00F0343F007031360194BBF
:100C1C001A6842F001021A6000221A611968164A19
:100C2C000A401A60124B1B6813F0080F06D0104ACA
:100C3C00136823F00F0343F0070313600D4B0022DE
:100C4C009A61DA611A620D4999620D49D9620D49AE
:100C5C0019635A639963DA6319645A64196821F445
:100C6C00802119601A66084B43F2D2021A60704751
:100C7C0000200052004402587FEDF6EA0002020206
:100C8C000000FF01800201010040005208B5184825
:100C9C00184B0360184B436000218160C1600161F7
:100CAC000C2343618161C1610162416281620B4627
:100CBC000A4602F0F5FD70B900210D4802F050FE15
:100CCC0060B900210A4802F070FE50B9084802F0E1
:100CDC0028FE48B908BDFFF7E1FEEDE7FFF7DEFEA1
:100CEC00EFE7FFF7DBFEF1E7FFF7D8FEF2E700BF17
:100CFC00B80000240044004000093D0010B5B6B017
:100D0C000446002131913291339134913591B822BE
:100D1C0002A803F0FDF922681B4B9A4201D036B0B1
:100D2C0010BD02220023CDE9022302A801F024F910
:100D3C0030BB164BD3F8E82042F40032C3F8E8205D
:100D4C00D3F8E82002F400320092009AD3F8E020A5
:100D5C0042F00802C3F8E020D3F8E03003F00803B7
:100D6C000193019B7023319302233293002333931D
:100D7C0034930723359331A9054800F019F9CEE7D0
:100D8C00FFF78CFED5E700BF00440040004402583A
:100D9C00000C0258DFF834D0FFF72CFF0C480D493B
:100DAC000D4A002302E0D458C4500433C4188C42BA
:100DBC00F9D30A4A0A4C002301E013600432A24220
:100DCC00FBD303F0F3F9FFF7BFFE704700000524D7
:100DDC0000000024140000243C45000818000024E6
:100DEC00E8020024FEE70000104B1B780BB9012031
:100DFC00704710B504464FF47A70B0FBF3F30C4A0D
:100E0C001068B0FBF3F000F0BFF868B90F2C01D9F3
:100E1C0001200AE0002221464FF0FF3000F0A4F838
:100E2C00044B1C60002000E0012010BD08000024D1
:100E3C00040000240C00002410B5032000F082F8FC
:100E4C0000F0F0FC0F498B69C3F303230E4AD35C0B
:100E5C0003F01F03D8408B6903F00F03D35C03F03E
:100E6C001F0320FA03F3094A1360094B18600F2083
:100E7C00FFF7BAFF10B10124204610BD0446FFF75E
:100E8C009BFEF9E700440258F042000800000024E1
:100E9C0004000024034B1B78034A11680B441360B5
:100EAC00704700BF080000244C010024014B186857
:100EBC00704700BF4C01002438B50446FFF7F6FF1D
:100ECC000546B4F1FF3F02D0044B1B781C44FFF7DE
:100EDC00EDFF401BA042FAD338BD00BF0800002430
:100EEC00002804DB0901C9B2044B1954704700F007
:100EFC000F000901C9B2024B1954704700E400E01D
:100F0C0014ED00E000B500F00700C0F1070CBCF1D7
:100F1C00040F28BF4FF0040C031D062B0FD9C31E62
:100F2C004FF0FF3E0EFA0CF021EA000199400EFA48
:100F3C0003FE22EA0E0241EA02005DF804FB0023E4
:100F4C00EEE700000649CB6823F4E0631B041B0C9E
:100F5C00000200F4E0600343024A1A43CA6070477F
:100F6C0000ED00E00000FA0510B50446054BD8680A
:100F7C00C0F30220FFF7C6FF01462046FFF7B0FF83
:100F8C0010BD00BF00ED00E00138B0F1807F0BD246
:100F9C004FF0E0235861054AF02182F8231000201D
:100FAC00986107221A6170470120704700ED00E03C
:100FBC0070B582B000236EE085685E000324B440F7
:100FCC0025EA0405CC68B4402C438460456825EAC6
:100FDC000C054C68C4F300149C402C4344606DE039
:100FEC00DD08083550F8254003F0070C4FEA8C0C4F
:100FFC004FF00F0E0EFA0CFE24EA0E0E0C6904FADA
:10100C000CF444EA0E0440F825406FE0092400E09B
:10101C00002404FA0EF42C430CF1020C684D45F834
:10102C002C404FF0B0442568D44325EA0206D1F891
:10103C0004C01CF4801F01D042EA05064FF0B045F5
:10104C002E606D6804EA0506D1F804C01CF4001F7C
:10105C0001D042EA05064FF0B0456E60D5F88450D9
:10106C0004EA0506D1F804C01CF4003F01D042EAA2
:10107C0005064FF0B045C5F88460D5F880502C407B
:10108C004E6816F4803F01D042EA05044FF0B0429E
:10109C00C2F8804001330A6832FA03F400F08D8004
:1010AC004FF0010C0CFA03FC1CEA0202F2D04C6863
:1010BC0004F00304013C012C7FF67EAF4C6804F075
:1010CC000304032C0CD0C4685D004FF0030C0CFA25
:1010DC0005FC24EA0C0C8C68AC4044EA0C04C4609B
:1010EC004C6804F00304022C3FF47AAF04684FEA16
:1010FC00430E4FF0030C0CFA0EFC24EA0C0C4C685B
:10110C0004F0030404FA0EF444EA0C0404604C6882
:10111C0014F4403FBED02B4CD4F8F45045F00205EB
:10112C00C4F8F450D4F8F44004F002040194019C87
:10113C004FEA930C0CF10205214C54F8255003F0A6
:10114C00030E4FEA8E0E0F2404FA0EF425EA040562
:10115C001D4CA0423FF45CAF04F58064A0421ED04D
:10116C0004F58064A0421CD004F58064A0421AD01F
:10117C0004F58064A04218D004F58064A04216D017
:10118C0004F58064A04214D004F58064A04212D00F
:10119C0004F50064A0423FF439AF0A2439E7012476
:1011AC0037E7022435E7032433E7042431E7052429
:1011BC002FE706242DE707242BE702B070BD00BFF4
:1011CC000004005800440258000002580AB1816122
:1011DC007047090481617047436901EA030221EAFF
:1011EC00030141EA0241816170470000134BDB6847
:1011FC0013F0040F07D1114BDB6803F00703834294
:10120C001AD00120704710B50C4AD36823F007039D
:10121C000343D360FFF74AFE0446084B5B6813F4A4
:10122C00005F07D1FFF742FE001BB0F57A7FF4D9BF
:10123C00012000E0002010BD00207047004802583B
:10124C00002800F0D58238B50446036813F0010F6E
:10125C0025D0A04A136903F03803926A102B15D0DD
:10126C00182B0FD06368B3F5803F3FD0002B53D1C0
:10127C00984B1A6822F480321A601A6822F4802281
:10128C001A6038E002F00302022AEBD1914B1B6882
:10129C0013F4003F03D06368002B00F0AB8223688B
:1012AC0013F0020F00F088808A4A1369926A13F0D7
:1012BC0038035AD0182B55D0E368002B00F0A980C6
:1012CC0084490A6822F0190213430B60FFF7EEFD04
:1012DC000546804B1B6813F0040F40F09180FFF71C
:1012EC00E5FD401B0228F4D903208AE2794A1368F1
:1012FC0043F48033136063682BB3FFF7D7FD0546C7
:10130C00744B1B6813F4003FC9D1FFF7CFFD401B92
:10131C006428F5D9032074E2B3F5A02F09D06D4BE6
:10132C001A6822F480321A601A6822F480221A6039
:10133C00E1E7684B1A6842F480221A601A6842F49A
:10134C0080321A60D7E7FFF7B1FD0546614B1B6889
:10135C0013F4003FA3D0FFF7A9FD401B6428F5D977
:10136C0003204EE212F0030FA6D15A4B1B6813F068
:10137C00040F03D0E368002B00F03E82554A13683B
:10138C0023F01903E1680B431360FFF78FFD05464B
:10139C00504B1B6813F0040F06D1FFF787FD401B61
:1013AC000228F5D903202CE24A4A536823F0FE4365
:1013BC00216943EA01635360236813F0100F51D085
:1013CC00444A136903F03803926A082B39D0182B5E
:1013DC0033D0E369002B69D03E4A136843F0800395
:1013EC001360FFF763FD05463A4B1B6813F4807FCF
:1013FC0053D1FFF75BFD401B0228F5D9032000E217
:10140C00344A536823F0FE43216943EA0163536075
:10141C00D2E7304A136823F001031360FFF746FD4F
:10142C0005462C4B1B6813F0040FC5D0FFF73EFD8F
:10143C00401B0228F5D90320E3E102F00302012A44
:10144C00C7D1244B1B6813F4807F03D0E369802B36
:10145C0040F0D4811F4AD36823F07C53216A43EABD
:10146C000163D360236813F0080F49D06369002B24
:10147C0032D0184A536F43F001035367FFF716FD40
:10148C000546144B5B6F13F0020F39D1FFF70EFDBD
:10149C00401B0228F5D90320B3E10E4AD36823F090
:1014AC007C53216A43EA0163D360DBE7094A136882
:1014BC0023F080031360FFF7F9FC0546054B1B680E
:1014CC0013F4807FCED0FFF7F1FC401B0228F5D936
:1014DC00032096E1004402589D4A536F23F0010308
:1014EC005367FFF7E3FC0546994B5B6F13F0020F54
:1014FC0006D0FFF7DBFC401B0228F5D9032080E166
:10150C00236813F0200F29D0A3699BB1904A13686C
:10151C0043F480531360FFF7C9FC05468C4B1B68E2
:10152C0013F4005F1AD1FFF7C1FC401B0228F5D958
:10153C00032066E1864A136823F480531360FFF797
:10154C00B5FC0546824B1B6813F4005F06D0FFF711
:10155C00ADFC401B0228F5D9032052E1236813F09F
:10156C00040F21D1636A002B00F04A81784A12697A
:10157C0002F03802182A00F0F180022B75D0744A60
:10158C00136823F080731360FFF790FC0446704BD4
:10159C001B6813F0007F00F0D880FFF787FC001B5E
:1015AC000228F4D903202CE16A4A136843F48073AF
:1015BC001360FFF77BFC0546664B1B6813F4807FBA
:1015CC0006D1FFF773FC401B6428F5D9032018E102
:1015DC00A368012B0AD00BBB5D4B1A6F22F00102E2
:1015EC001A671A6F22F004021A6704E0584A136F44
:1015FC0043F001031367A36833B3FFF757FC0546A9
:10160C00534B1B6F13F0020FACD1FFF74FFC401B79
:10161C0041F288339842F3D90320F2E0052B09D02C
:10162C004B4B1A6F22F001021A671A6F22F0040258
:10163C001A67E0E7464B1A6F42F004021A671A6FFA
:10164C0042F001021A67D6E7FFF730FC0546404B23
:10165C001B6F13F0020F85D0FFF728FC401B41F2E3
:10166C0088339842F3D90320CBE0394A136823F02E
:10167C0080731360FFF71AFC0546354B1B6813F09B
:10168C00007F06D0FFF712FC401B0228F5D903207F
:10169C00B7E02F4B996A304A0A40A16AE06A41EAE6
:1016AC0000110A439A62226B013AC2F30802616B81
:1016BC000139490289B20A43A16B0139090401F4C9
:1016CC00FE010A43E16B0139090601F0FE410A43B0
:1016DC001A63DA6A22F00102DA625A6B6FF3CF02F4
:1016EC00A16C42EAC1025A63DA6A22F00C02216C44
:1016FC000A43DA62DA6A22F00202616C0A43DA62A5
:10170C00DA6A42F48032DA62DA6A42F40032DA627D
:10171C00DA6A42F48022DA62DA6A42F00102DA62B0
:10172C001A6842F080721A60FFF7C0FB0446084B3F
:10173C001B6813F0007F06D1FFF7B8FB001B0228D3
:10174C00F5D903205DE000205BE0002059E000BFEC
:10175C0000440258004802580CFCFFFF30498A6ACA
:10176C00086B012B4ED002F00303A16A8B424BD1C4
:10177C00C2F30512E36A9A4248D1C0F30802236B04
:10178C00013B9A4244D1C0F34622636B013B9A421F
:10179C0040D1C0F30642A36B013B9A423CD1C0F34B
:1017AC000660E36B013B984238D11D4B5B6BC3F376
:1017BC00CC03A26C9A4201D1002022E0184AD36AD1
:1017CC0023F00103D362FFF771FB0546FFF76EFBB5
:1017DC00A842FBD0124A536B6FF3CF03A16C43EAC0
:1017EC00C1035363D36A43F00103D362002008E0C2
:1017FC0001207047012004E0012002E0012000E0FC
:10180C00002038BD0120FCE70120FAE70120F8E7B1
:10181C000120F6E70120F4E70120F2E70120F0E7D0
:10182C0000440258F8B5814B1B6903F03803102BA8
:10183C0000F0F480182B0FD0002B40F0F2807B4B83
:10184C001B6813F0200F00F0EE80784B1B68C3F37D
:10185C00C103774CDC40E2E0744B9D6A05F0030554
:10186C009C6AC4F30514D86A00F001005B6BC3F3E7
:10187C00CC0303FB00F0FEF7D9FD0646002C00F06C
:10188C00CE80012D56D0022D00F08480002D40F02A
:10189C00A380664B1B6813F0200F29D0634F3B6865
:1018AC00C3F3C1036248D840FEF7C0FD054620468D
:1018BC00FEF7BCFD01462846FEF7C4FE0446386B15
:1018CC00C0F30800FEF7B2FD05464FF064513046F8
:1018DC00FEF704FE01462846FEF7F8FC4FF07E5159
:1018EC00FEF7F4FC01462046FEF7F8FD044642E004
:1018FC002046FEF79BFD01464E48FEF7A3FE04462C
:10190C004A4B186BC0F30800FEF790FD05464FF0EC
:10191C0064513046FEF7E2FD01462846FEF7D6FC40
:10192C004FF07E51FEF7D2FC01462046FEF7D6FD65
:10193C00044620E02046FEF779FD01463E48FEF7BE
:10194C0081FE0446394B186BC0F30800FEF76EFDA0
:10195C0005464FF064513046FEF7C0FD014628465F
:10196C00FEF7B4FC4FF07E51FEF7B0FC014620466A
:10197C00FEF7B4FD04462D4B1B6BC3F34623581CDA
:10198C00FEF754FD01462046FEF75CFEFEF792FF83
:10199C00044644E02046FEF749FD01462748FEF781
:1019AC0051FE0446214B186BC0F30800FEF73EFDB8
:1019BC0005464FF064513046FEF790FD014628462F
:1019CC00FEF784FC4FF07E51FEF780FC014620466A
:1019DC00FEF784FD0446CEE72046FEF727FD0146C0
:1019EC001548FEF72FFE0446104B186BC0F3080089
:1019FC00FEF71CFD05464FF064513046FEF76EFDB8
:101A0C0001462846FEF762FC4FF07E51FEF75EFC65
:101A1C0001462046FEF762FD0446ACE7084C204622
:101A2C00F8BD084CFBE7024CF9E700BF0044025834
:101A3C000090D0030024744C0024744A001BB74B54
:101A4C0000366E0100093D00002800F0328170B5AF
:101A5C000D4604469B4B1B6803F00F038B420BD2C5
:101A6C00984A136823F00F030B431360136803F0B9
:101A7C000F038B4240F01F81236813F0040F0CD02E
:101A8C002269914B9B6903F070039A4205D98E49E8
:101A9C008B6923F070031A438A61236813F0080FD3
:101AAC000CD06269884BDB6903F070039A4205D94C
:101ABC008549CB6923F070031A43CA61236813F07C
:101ACC00100F0CD0A269804BDB6903F4E0639A42DF
:101ADC0005D97D49CB6923F4E0631A43CA612368B5
:101AEC0013F0200F0CD0E269774B1B6A03F07003E4
:101AFC009A4205D974490B6A23F070031A430A629F
:101B0C00236813F0020F0CD0E2686F4B9B6903F053
:101B1C000F039A4205D96C498B6923F00F031A43C2
:101B2C008A61236813F0010F41D0674A936923F44B
:101B3C007063A1680B4393616368022B0AD0032B7B
:101B4C0027D0012B2CD0604A126812F0040F06D15A
:101B5C000120ADE0126812F4003F00F0AE805A494B
:101B6C000A6922F0070213430B61FFF79FF906463F
:101B7C00554B1B6903F038036268B3EBC20F16D0E8
:101B8C00FFF794F9801B41F288339842F0D9032077
:101B9C008EE04D4A126812F0007FE0D1012087E000
:101BAC00494A126812F4807FD9D1012080E0236861
:101BBC0013F0020F0CD0E268434B9B6903F00F0348
:101BCC009A4205D240498B6923F00F031A438A616C
:101BDC003C4B1B6803F00F03AB420AD9394A13681C
:101BEC0023F00F032B431360136803F00F03AB4276
:101BFC0065D1236813F0040F0CD02269324B9B691A
:101C0C0003F070039A4205D22F498B6923F07003BD
:101C1C001A438A61236813F0080F0CD062692A4BAF
:101C2C00DB6903F070039A4205D22749CB6923F094
:101C3C0070031A43CA61236813F0100F0CD0A26909
:101C4C00214BDB6903F4E0639A4205D21E49CB6950
:101C5C0023F4E0631A43CA61236813F0200F0CD0FD
:101C6C00E269194B1B6A03F070039A4205D21649BC
:101C7C000B6A23F070031A430A62FFF7D3FD124973
:101C8C008B69C3F30323114AD35C03F01F03D840C1
:101C9C008B6903F00F03D35C03F01F0320FA03F3EB
:101CAC000B4A13600B4B18600B4B1868FFF79CF832
:101CBC0070BD012070470120FAE70120F8E70120F0
:101CCC00F6E700BF0020005200440258F042000822
:101CDC0000000024040000240C00002408B5FFF7C9
:101CEC00A1FD0B4A9369C3F303230A49CB5C03F0B0
:101CFC001F0320FA03F3926902F00F02885C00F0D4
:101D0C001F0023FA00F0044A1060044A136008BD57
:101D1C0000440258F0420008000000240400002493
:101D2C0008B5FFF7DBFF054BDB69C3F30213044A6D
:101D3C00D35C03F01F03D84008BD00BF0044025819
:101D4C00F042000808B5FFF7C9FF054BDB69C3F388
:101D5C000223044AD35C03F01F03D84008BD00BF24
:101D6C0000440258F0420008404B9B6A03F0030306
:101D7C00032B79D070B505460E463C4A136823F008
:101D8C0080631360FFF792F80446384B1B6813F01E
:101D9C00006F06D0FFF78AF8031B022BF5D903203E
:101DAC0070BD324B9A6A22F47C32296842EA0132C5
:101DBC009A626A68013AC2F30802A96801394902B9
:101DCC0089B20A43E9680139090401F4FE010A43A6
:101DDC0029690139090601F0FE410A439A63DA6A5E
:101DEC0022F0C00269690A43DA62DA6A22F0200240
:101DFC00A9690A43DA62DA6A22F01002DA62DA6B53
:101E0C006FF3CF02E96942EAC102DA63DA6A42F09F
:101E1C001002DA62C6B91A46DB6A43F40023D362B5
:101E2C00124A136843F080631360FFF73FF80446CF
:101E3C000E4B1B6813F0006F14D1FFF737F8001B23
:101E4C000228F5D90320ABE7012E05D0074AD36A47
:101E5C0043F40013D362E3E7044AD36A43F48013D8
:101E6C00D362DDE700209BE7012070470044025855
:101E7C00404B9B6A03F00303032B79D070B50546E6
:101E8C000E463C4A136823F080531360FFF70EF89C
:101E9C000446384B1B6813F0005F06D0FFF706F8BA
:101EAC00031B022BF5D9032070BD324B9A6A22F02A
:101EBC007C72296842EA01529A626A68013AC2F35A
:101ECC000802A9680139490289B20A43E968013953
:101EDC00090401F4FE010A4329690139090601F0DC
:101EEC00FE410A431A64DA6A22F4406269690A43C1
:101EFC00DA62DA6A22F40072A9690A43DA62DA6AEF
:101F0C0022F48072DA625A6C6FF3CF02E96942EA0A
:101F1C00C1025A64DA6A42F48072DA62C6B91A46AD
:101F2C00DB6A43F48003D362124A136843F0805394
:101F3C001360FEF7BBFF04460E4B1B6813F0005FEB
:101F4C0014D1FEF7B3FF001B0228F5D90320ABE731
:101F5C00012E05D0074AD36A43F08073D362E3E7BE
:101F6C00044AD36A43F40003D362DDE700209BE705
:101F7C000120704700440258F8B50446036813F07A
:101F8C00006F30D0436EB3F5001F26D00ED8ABB126
:101F9C00B3F5801F07D102210830FFF7E5FE054697
:101FAC0095B12E4621E0012635461EE0B3F5401FC3
:101FBC0001D1002508E00126354616E09B4AD36A7C
:101FCC0043F40033D3620025984A136D23F4401375
:101FDC00616E0B431365002607E002212830FFF7E2
:101FEC0047FF0546DCE700263546236813F4807F5F
:101FFC0014D0A36D042B34D8DFE803F003252C0890
:10200C0008008A4AD36A43F40033D36265BB874A1B
:10201C00136D23F00703A16D0B431365236813F4B1
:10202C00806F47D0D4F8A430B3F5800F33D020D8CC
:10203C005BB3B3F5001F19D1002104F10800FFF7C1
:10204C0093FE05462DE0002104F10800FFF78CFEFD
:10205C000546DBE7002104F12800FFF709FF0546E0
:10206C00D4E701263546D9E72E46D7E70126354673
:10207C0020E0B3F5000F14D0B3F5200F11D0B3F559
:10208C00C00F0ED00126354614E0684AD36A43F4DB
:10209C000033D36205E0002104F12800FFF7E8FECD
:1020AC000546E5B9614A936D23F46003D4F8A41096
:1020BC000B439365236813F4006F36D0D4F8A83023
:1020CC00B3F1007F22D00FD8D3B1B3F1807F08D108
:1020DC00002104F10800FFF747FE05461CE02E46E0
:1020EC00E8E70126354620E0B3F1806F14D0B3F158
:1020FC00A06F11D0B3F1407F0ED00126354614E00D
:10210C004A4AD36A43F40033D36205E0002104F158
:10211C002800FFF7ADFE0546C5B9444A936D23F080
:10212C00E063D4F8A8100B439365236813F0007F89
:10213C0024D0E36C202B13D00DD8BBB1102B07D1BE
:10214C003A4AD36A43F40033D3620FE02E46ECE7ED
:10215C000126354612E0302B08D0012635460DE01D
:10216C00022104F10800FFF7FFFD0546D5B92F4AFF
:10217C00D36C23F03003E16C0B43D364236813F46A
:10218C00805F31D0E36DB3F5005F1FD00FD8BBB1CA
:10219C00B3F5805F08D1002104F10800FFF7E4FDDE
:1021AC00054619E02E46E9E7012635461CE0B3F555
:1021BC00405F11D0B3F5804F0ED00126354613E0A9
:1021CC001A4AD36A43F40033D36205E0002104F1C8
:1021DC002800FFF74DFE054615BB144A136D23F47A
:1021EC00E043E16D0B431365236813F4005F33D0B8
:1021FC00236EB3F5003F27D01AD843B1B3F5803F17
:10220C0010D1012104F10800FFF7AEFD054615BB06
:10221C00064A136D23F4E023216E0B4313651BE078
:10222C002E46E1E70126354616E000BF0044025871
:10223C00B3F5802FEBD0B3F5A02FE8D0B3F5403F2A
:10224C00E5D00126354607E0012104F12800FFF70F
:10225C000FFE0546DBE72E46236813F4804F30D083
:10226C00D4F8AC30B3F1005F23D016D843B1B3F13E
:10227C00805F0FD1012104F10800FFF775FD0546C1
:10228C00F5B98B4A936D23F0E043D4F8AC100B43B3
:10229C00936516E00126354613E0B3F1804FEFD07D
:1022AC00B3F1A04FECD0B3F1405FE9D00126354635
:1022BC0007E0012104F12800FFF7DAFD0546DFE70E
:1022CC002E46236813F4004F20D0E36EB3F1805FE9
:1022DC0006D0B3F1005F11D03BB10126354615E0B5
:1022EC00734AD36A43F40033D36275B9704A136DE1
:1022FC0023F04053E16E0B43136507E0012104F119
:10230C000800FFF731FD0546EFE72E46236813F072
:10231C00807F13D0A36C032B3BD8DFE803F00702BC
:10232C003307634AD36A43F40033D362A5BB604AD4
:10233C00D36C23F00303A16C0B43D364236813F415
:10234C00800F2BD1236813F0010F00F0A380A36F33
:10235C00282B00F29D80DFE803F08B9B9B9B9B9BC3
:10236C009B9B859B9B9B9B9B9B9B949B9B9B9B9BCE
:10237C009B9B8B9B9B9B9B9B9B9B8B9B9B9B9B9BC1
:10238C009B9B8B00022104F10800FFF7EDFC054636
:10239C00CCE701263546D1E72E46CFE7454A1368F0
:1023AC0043F480731360FEF781FD0746414B1B68B5
:1023BC0013F4807F05D1FEF779FDC01B6428F5D995
:1023CC000325002D4AD13A4B1B6FD4F8B020534053
:1023DC0013F4407F0CD0364B1A6F22F44072196FF5
:1023EC0041F480311967196F21F4803119671A672C
:1023FC00D4F8B030B3F5807F15D08DBBD4F8B030A5
:10240C0003F44072B2F5407F1ED0294A136923F4BD
:10241C007C53136126490B6FD4F8B020C2F30B0226
:10242C0013430B678EE7FEF741FD0746204B1B6FEE
:10243C0013F0020FE1D1FEF739FDC01B41F28833D6
:10244C009842F3D90325D8E71948026922F47C5243
:10245C00194901EA131313430361DBE72E4671E7B5
:10246C002E466FE7012104F10800FFF77DFC0546BD
:10247C00E5B90F4A536D23F03803A16F0B43536535
:10248C0008E0012104F12800FFF7F2FC0546EFE714
:10249C0001263546236813F0020F1DD0636F052B00
:1024AC0032D8DFE803F0110B2A1111112E46F1E797
:1024BC000044025800480258CFFFFF00012104F1EC
:1024CC000800FFF751FC05460DBBB74A536D23F0CE
:1024DC000703616F0B435365236813F0040F29D076
:1024EC00D4F89030052B00F20881DFE813F01800C7
:1024FC001200FF00180018001800012104F1280038
:10250C00FFF7B6FC0546DFE701263546E4E72E4625
:10251C00E2E7012104F10800FFF726FC0546002D37
:10252C0040F0EE80A04A936D23F00703D4F890108E
:10253C000B439365236813F0200F1DD0D4F88C3017
:10254C00B3F1005F00F0F08000F2DF804BB1B3F12B
:10255C00805F40F0D780002104F10800FFF704FCF5
:10256C000546002D40F0E7808F4A536D23F0E04381
:10257C00D4F88C100B435365236813F0400F1DD017
:10258C00D4F89830B3F5006F00F0E98000F2D880F1
:10259C004BB1B3F5806F40F0D080002104F10800FE
:1025AC00FFF7E2FB0546002D40F0E0807E4A936D7C
:1025BC0023F4E053D4F898100B439365236813F07D
:1025CC00800F1DD0D4F89C30B3F5804F00F0E28022
:1025DC0000F2D1804BB1B3F5005F40F0C98000210F
:1025EC0004F10800FFF7C0FB0546002D40F0D98030
:1025FC006D4A936D23F46043D4F89C100B439365A0
:10260C00236813F0080F0DD0D4F88030B3F5805F39
:10261C0000F0CC80644A536D23F44053D4F88010FE
:10262C000B435365236813F0100F0DD0D4F894307E
:10263C00B3F5807F00F0C4805B4A936D23F4407344
:10264C00D4F894100B439365236813F4002F1CD01B
:10265C00D4F8A030B3F5803F00F0BC80B3F5003F58
:10266C0008D0002B40F0BD80002104F10800FFF7DA
:10267C007BFB0546002D40F0B7804B4A936D23F44D
:10268C004033D4F8A0100B439365236813F4802FC8
:10269C001CD0D4F88430B3F5001F00F0A780B3F53C
:1026AC00401F08D0B3F5801F40F0A7803E4AD36A84
:1026BC0043F40033D362002D40F0A2803A4A536DAC
:1026CC0023F44013D4F884100B435365236813F49C
:1026DC00803F00F0AD80236D002B00F09380B3F5AC
:1026EC00803F00F09D8001263546A1E0012104F1D8
:1026FC002800FFF7BDFB054611E70126354619E713
:10270C002E4617E70126354636E7B3F1804F3FF4E6
:10271C0028AFB3F1A04F3FF424AFB3F1405F3FF4C7
:10272C0020AF0126354627E7022104F12800FFF7E8
:10273C009FFB054615E72E461EE7012635463DE76D
:10274C00B3F5805F3FF42FAFB3F5A05F3FF42BAF31
:10275C00B3F5406F3FF427AF012635462EE7022133
:10276C0004F12800FFF784FB05461CE72E4625E7FD
:10277C000126354644E7B3F5004F3FF436AFB3F5C9
:10278C00204F3FF432AFB3F5C04F3FF42EAF0126CC
:10279C00354635E7022104F12800FFF769FB0546B1
:1027AC0023E72E462CE700BF00440258022104F117
:1027BC002800FFF75DFB00283FF42CAF012629E72A
:1027CC00022104F12800FFF753FB00283FF434AF3B
:1027DC00012631E7022104F12800FFF749FB0546E9
:1027EC0048E70126354650E72E464EE7012104F115
:1027FC002800FFF73DFB05465DE70126354665E7FA
:10280C002E4663E7694AD36A43F40033D36275B941
:10281C00664AD36C23F48033216D0B43D36407E0F9
:10282C00022104F10800FFF79FFA0546EFE72E4658
:10283C00236813F0005F10D1236813F4003F26D0F7
:10284C00E36FB3F5807F14D010D9B3F5007F15D0AA
:10285C00B3F5407F12D0012619E0022104F12800C3
:10286C00FFF706FB0028E7D00126E5E733B1012688
:10287C000DE04E4AD36A43F40033D362002D5CD191
:10288C004A4A536D23F44073E16F0B43536523683D
:10289C0013F4801F06D0454A136D23F00043216FBB
:1028AC000B431365236813F4001F06D03F4A136DC6
:1028BC0023F08073A16E0B431365236813F0804FD4
:1028CC0009D03A4B1A6922F400421A611A69D4F8F9
:1028DC00B4100A431A612368002B06DA334AD36C0E
:1028EC0023F04053616D0B43D364236813F4000F42
:1028FC0007D02E4A536D23F44003D4F888100B43B1
:10290C005365636813F0010F19D1636813F0020F5C
:10291C001ED1636813F0040F23D1636813F0080F02
:10292C0028D1636813F0100F2DD1636813F0200FBA
:10293C0032D106B101263046F8BD2E46A7E700215C
:10294C0004F10800FFF710FA0028DED00646DCE799
:10295C00012104F10800FFF707FA0028D9D0064638
:10296C00D7E7022104F10800FFF7FEF90028D4D0C4
:10297C000646D2E7002104F12800FFF779FA002877
:10298C00CFD00646CDE7012104F12800FFF770FAFD
:10299C000028CAD00646C8E7022104F12800FFF738
:1029AC0067FA0028C5D00126C5E700BF00440258CD
:1029BC0008B5FFF793F9054B1B6AC3F30213044ADE
:1029CC00D35C03F01F03D84008BD00BF004402587D
:1029DC00F04200082DE9F0410446874B9E6A9D6A3F
:1029EC00C5F30535D86AC0F30010DB6BC3F3CC0319
:1029FC0003FB00F0FDF71AFD002D00F0F78006F048
:102A0C0003060746012E59D0022E00F0AB80002E93
:102A1C0040F0CA80784B1B6813F0200F2CD0DFF8E5
:102A2C00D881D8F80030C3F3C1037448D840FDF7FF
:102A3C00FDFC06462846FDF7F9FC01463046FDF73D
:102A4C0001FE0546D8F83800C0F30800FDF7EEFC8F
:102A5C0006464FF064513846FDF740FD01463046BE
:102A6C00FDF734FC4FF07E51FDF730FC0146284653
:102A7C00FDF734FD054642E02846FDF7D7FC01463C
:102A8C005F48FDF7DFFD05465B4B986BC0F3080014
:102A9C00FDF7CCFC06464FF064513846FDF71EFDA1
:102AAC0001463046FDF712FC4FF07E51FDF70EFC4F
:102ABC0001462846FDF712FD054620E02846FDF7A5
:102ACC00B5FC01464F48FDF7BDFD05464A4B986BDA
:102ADC00C0F30800FDF7AAFC06464FF064513846D7
:102AEC00FDF7FCFC01463046FDF7F0FB4FF07E5144
:102AFC00FDF7ECFB01462846FDF7F0FC05463E4E83
:102B0C00B06BC0F34620FDF791FC4FF07E51FDF702
:102B1C00DDFB01462846FDF795FDFDF7CBFE206059
:102B2C00B06BC0F30640FDF781FC4FF07E51FDF712
:102B3C00CDFB01462846FDF785FDFDF7BBFE606029
:102B4C00B06BC0F30660FDF771FC4FF07E51FDF7E2
:102B5C00BDFB01462846FDF775FDFDF7ABFEA060F9
:102B6C00BDE8F0812846FDF761FC01462648FDF7DB
:102B7C0069FD0546204B986BC0F30800FDF756FC29
:102B8C0006464FF064513846FDF7A8FC0146304626
:102B9C00FDF79CFB4FF07E51FDF798FB0146284654
:102BAC00FDF79CFC0546AAE72846FDF73FFC0146CD
:102BBC001448FDF747FD05460F4B986BC0F3080012
:102BCC00FDF734FC06464FF064513846FDF786FCA1
:102BDC0001463046FDF77AFB4FF07E51FDF776FB50
:102BEC0001462846FDF77AFC054688E7002323605A
:102BFC006360A360B4E700BF004402580090D003A8
:102C0C000024744C0024744A001BB74B2DE9F0418E
:102C1C000446874B9E6A9D6AC5F30555D86AC0F376
:102C2C0000205B6CC3F3CC0303FB00F0FDF7FEFB51
:102C3C00002D00F0F78006F003060746012E59D050
:102C4C00022E00F0AB80002E40F0CA80784B1B683F
:102C5C0013F0200F2CD0DFF8D881D8F80030C3F354
:102C6C00C1037448D840FDF7E1FB06462846FDF742
:102C7C00DDFB01463046FDF7E5FC0546D8F8400083
:102C8C00C0F30800FDF7D2FB06464FF064513846FE
:102C9C00FDF724FC01463046FDF718FB4FF07E5142
:102CAC00FDF714FB01462846FDF718FC054642E0EB
:102CBC002846FDF7BBFB01465F48FDF7C3FC054604
:102CCC005B4B186CC0F30800FDF7B0FB06464FF0E9
:102CDC0064513846FDF702FC01463046FDF7F6FA22
:102CEC004FF07E51FDF7F2FA01462846FDF7F6FB50
:102CFC00054620E02846FDF799FB01464F48FDF7B5
:102D0C00A1FC05464A4B186CC0F30800FDF78EFB7E
:102D1C0006464FF064513846FDF7E0FB014630465D
:102D2C00FDF7D4FA4FF07E51FDF7D0FA0146284654
:102D3C00FDF7D4FB05463E4E306CC0F34620FDF744
:102D4C0075FB4FF07E51FDF7C1FA01462846FDF7A1
:102D5C0079FCFDF7AFFD2060306CC0F30640FDF749
:102D6C0065FB4FF07E51FDF7B1FA01462846FDF7A1
:102D7C0069FCFDF79FFD6060306CC0F30660FDF7E9
:102D8C0055FB4FF07E51FDF7A1FA01462846FDF7A1
:102D9C0059FCFDF78FFDA060BDE8F0812846FDF7DA
:102DAC0045FB01462648FDF74DFC0546204B186CAB
:102DBC00C0F30800FDF73AFB06464FF06451384665
:102DCC00FDF78CFB01463046FDF780FA4FF07E5143
:102DDC00FDF77CFA01462846FDF780FB0546AAE77D
:102DEC002846FDF723FB01461448FDF72BFC05464E
:102DFC000F4B186CC0F30800FDF718FB06464FF09C
:102E0C0064513846FDF76AFB01463046FDF75EFA21
:102E1C004FF07E51FDF75AFA01462846FDF75EFB4E
:102E2C00054688E7002323606360A360B4E700BF16
:102E3C00004402580090D0030024744C0024744ABF
:102E4C00001BB74B026852E8003F23F4907342E832
:102E5C0000310029F6D1026802F1080353E8001F83
:102E6C000D4B0B40083242E800310029F3D1C36E00
:102E7C00012B06D02023C0F88C300023C366436797
:102E8C007047026852E8003F23F0100342E800311B
:102E9C000029F6D1EEE700BFFEFFFFEF70B586B05C
:102EAC00044683680269134342691343C26913439E
:102EBC0001680868904A02401A430A602268536805
:102ECC0023F44053E1680B435360A16922688B4B98
:102EDC009A4201D0236A19439068894B03400B43F3
:102EEC0093602268D36A23F00F03616A0B43D362A9
:102EFC002368844A934229D0834A934200F09480F9
:102F0C00824A934200F0AA80814A934200F0C0802A
:102F1C00804A934200F0D6807F4A934200F00881A9
:102F2C007E4A934200F02D817D4A934200F040810D
:102F3C007C4A934200F053817B4A934200F07881A3
:102F4C006E4A934200F09D8180223BE0774A526D9D
:102F5C0002F03802282A34D8DFE812F029003300B6
:102F6C00330033003300330033003300AB01330044
:102F7C003300330033003300330033002B003300B5
:102F8C003300330033003300330033002D003300A3
:102F9C003300330033003300330033002F00330091
:102FAC00330033003300330033003300310001228F
:102FBC0008E0082206E0102204E0202202E0402271
:102FCC0000E080224D498B4200F08C81E069B0F525
:102FDC00004F00F00282202A00F25A82202A00F2CE
:102FEC00A482DFE812F071027702A202A2027A0236
:102FFC00A202A202A2027F02A202A202A202A202C8
:10300C00A202A202A2028402A202A202A202A202B2
:10301C00A202A202A202A202A202A202A202A20284
:10302C00A202A202A2029002404A526D02F00702D2
:10303C00052A11D8DFE812F006003F0108000A004B
:10304C000C000E000022BDE70822BBE71022B9E7F6
:10305C002022B7E74022B5E78022B3E7334A526D0E
:10306C0002F00702052A11D8DFE812F0060027014A
:10307C0008000A000C000E000022A3E70822A1E7BA
:10308C0010229FE720229DE740229BE7802299E7B0
:10309C00264A526D02F00702052A11D8DFE812F019
:1030AC0006000F0108000A000C000E00002289E740
:1030BC00082287E7102285E7202283E7402281E758
:1030CC0080227FE7194A526D02F00702052A11D8B7
:1030DC00DFE812F00600F70008000A000C000E00F2
:1030EC0000226FE708226DE710226BE7202269E7C8
:1030FC00402267E7802265E7F369FFCF000C005898
:10310C00FFF4FF1100100140004400400048004053
:10311C00004C00400050004000140140007800407A
:10312C00007C004000180140001C01400044025883
:10313C00694A526D02F03802282A20D8DFE802F0E2
:10314C00151F1F1F1F1F1F1FC31F1F1F1F1F1F1FE9
:10315C00171F1F1F1F1F1F1F191F1F1F1F1F1F1F81
:10316C001B1F1F1F1F1F1F1F1D0001222AE70822E4
:10317C0028E7102226E7202224E7402222E780229B
:10318C0020E7554A526D02F00702052A0ED8DFE8F7
:10319C0002F0039C0507090B002213E7082211E734
:1031AC0010220FE720220DE740220BE7802209E7CF
:1031BC00494A526D02F00702052A0ED8DFE802F0E8
:1031CC0003870507090B0022FCE60822FAE6102209
:1031DC00F8E62022F6E64022F4E68022F2E63E4AA9
:1031EC00526D02F03802282A20D8DFE802F0151FB1
:1031FC001F1F1F1F1F1F721F1F1F1F1F1F1F171F88
:10320C001F1F1F1F1F1F191F1F1F1F1F1F1F1B1FCC
:10321C001F1F1F1F1F1F1D000122D3E60822D1E60E
:10322C001022CFE62022CDE64022CBE68022C9E652
:10323C00294A526D02F03802282A20D8DFE802F021
:10324C00151F1F1F1F1F1F1F4E1F1F1F1F1F1F1F5D
:10325C00171F1F1F1F1F1F1F191F1F1F1F1F1F1F80
:10326C001B1F1F1F1F1F1F1F1D000122AAE6082264
:10327C00A8E61022A6E62022A4E64022A2E680229E
:10328C00A0E602F50E32926D02F00702052A0ED866
:10329C00DFE802F003260507090B022292E608225A
:1032AC0090E610228EE620228CE640228AE68022CE
:1032BC0088E6042286E6042284E6042282E60422BE
:1032CC0080E604227EE604227CE604227AE60422CE
:1032DC0078E6042276E600BF00440258042271E628
:1032EC0004226FE6202A27D8022AC0F01081023A65
:1032FC001E2A00F20E81DFE812F050000C0156007D
:10330C000C010C010C015B000C010C010C010C01FB
:10331C000C010C010C0160000C010C010C010C01E6
:10332C000C010C010C010C010C010C010C010C0129
:10333C000C010C010C016C00402A2CD14FF4004004
:10334C00626A804B33F81220B0FBF2F3656805EB30
:10335C004501994200F2DF80B3EB053F00F2DD80BE
:10336C00002633463146FDF7C5FA090241EA1061E1
:10337C0000026B08C0182A46334641F10001FDF7E4
:10338C00B9FAA0F54072704B9A4200F2C8802368DB
:10339C00D8603046CAE00120C8E0FFF709FB0028DE
:1033AC00CED10020C2E003A8FFF714FB0498F6E787
:1033BC006846FFF72BFC0198F1E7644B1B6813F090
:1033CC00200F08D0614B1B68C3F3C1036048D84081
:1033DC00B6E76048B4E75E48B2E7202A15D8202A41
:1033EC0000F29F80DFE802F031379D9D3A9D9D9D54
:1033FC003F9D9D9D9D9D9D9D449D9D9D9D9D9D9DA8
:10340C009D9D9D9D9D9D9D9D5000402A1BD1626A56
:10341C004C4B33F81230B0FBF3F06268530803EBFB
:10342C004003B3FBF2F3A3F110014FF6EF7291429C
:10343C0079D89AB222F00F02C3F3420313432268E5
:10344C00D360002072E0012070E0FEF769FC0028D8
:10345C00DDD100206AE0FEF775FCF8E703A8FFF762
:10346C00B9FA0498F3E76846FFF7D0FB0198EEE74A
:10347C00364B1B6813F0200F08D0344B1B68C3F37A
:10348C00C1033348D840C2E73248C0E73048BEE7F2
:10349C00402A17D14FF40040626A2A4B33F812309D
:1034AC00B0FBF3F0636800EB5300B0FBF3F0A0F15A
:1034BC0010024FF6EF739A4242D8236880B2D8605C
:1034CC00002033E0012031E0FEF72AFC0028E3D194
:1034DC0000202BE0FEF736FCF8E703A8FFF77AFA9A
:1034EC000498F3E76846FFF791FB0198EEE7174B5A
:1034FC001B6813F0200F08D0144B1B68C3F3C103D7
:10350C001348D840C8E71348C6E71148C4E7012060
:10351C000CE001200AE0012008E0012006E0012077
:10352C0004E0012002E0012000E001200123A4F8C6
:10353C006A30A4F8683000236367A36706B070BDD7
:10354C000120F3E700430008FFFC0F000044025881
:10355C000090D00300093D00836A13F0010F06D0E0
:10356C000268536823F40033C16A0B435360836AC7
:10357C0013F0020F06D00268536823F48033016BFA
:10358C000B435360836A13F0040F06D00268536830
:10359C0023F48023416B0B435360836A13F0080FB1
:1035AC0006D00268536823F40043816B0B435360CD
:1035BC00836A13F0100F06D00268936823F48053CB
:1035CC00C16B0B439360836A13F0200F06D0026823
:1035DC00936823F40053016C0B439360836A13F0DC
:1035EC00400F0AD00268536823F48013416C0B43DC
:1035FC005360436CB3F5801F0BD0836A13F0800FBC
:10360C0006D00268536823F40023C16C0B4353604B
:10361C0070470268536823F4C003816C0B435360FA
:10362C00EBE72DE9F84305460F4616469946DDF8BB
:10363C0020802B68DC6937EA04040CBF01240024C9
:10364C00B44232D1B8F1FF3FF3D0FDF72FFCA0EB21
:10365C00090040452CD8B8F1000F2BD02B681A6804
:10366C0012F0040FE5D0DA6912F0080F11D1DA6903
:10367C0012F4006FDDD04FF400621A622846FFF797
:10368C00E1FB2023C5F89030002385F8843003201B
:10369C000CE008241C622846FFF7D4FBC5F89040C8
:1036AC00002385F88430012000E00020BDE8F88379
:1036BC000320FBE70320F9E72DE9F04182B01E4619
:1036CC00D0F88830202B5BD104460D469046002A5A
:1036DC0018BF002901D1012053E00023C0F890301D
:1036EC002123C0F88830FDF7E1FB0746A4F854808D
:1036FC00A4F85680A368B3F5805F02D04FF00008A1
:10370C0016E0236943B34FF0000811E02023C4F8FE
:10371C008830032035E038F8023B2268C3F30803F5
:10372C009362B4F8562092B2013A92B2A4F85620A1
:10373C00B4F856309BB293B100963B4600228021E0
:10374C002046FFF76EFF0028E0D1002DE3D015F8DE
:10375C00012B23689A62E4E7A8460025E8E7009667
:10376C003B46002240212046FFF75BFF18B920237F
:10377C00C4F8883005E02023C4F88830032000E02A
:10378C00022002B0BDE8F08130B583B004460023BE
:10379C00C0F89030FDF78AFB05462268126812F0DB
:1037AC00080F10D123681B6813F0040F28D12023B5
:1037BC00C4F88830C4F88C300020E066206784F8A8
:1037CC00840003B030BD6FF07E43009303460022AB
:1037DC004FF400112046FFF724FF0028E2D02268A6
:1037EC0052E8003F23F0800342E800310029F6D173
:1037FC002023C4F88830002384F884300320E0E7C9
:10380C006FF07E4300932B4600224FF4800120463C
:10381C00FFF707FF0028CAD0226852E8003F23F4C4
:10382C00907342E800310029F6D1226802F10803B6
:10383C0053E8003F23F00103083242E8003100292D
:10384C00F3D12023C4F88C30002384F88430032077
:10385C00B7E70000436E2BB90123A0F86A30A0F83B
:10386C006830704730B403689A68C2F34262996852
:10387C00490F094D6B5C1B01084C615C93FBF1F328
:10388C00A0F86A30AB5C1B01A25C93FBF2F3A0F8CE
:10389C00683030BC704700BF204300081843000854
:1038AC0000283CD0F8B50F4616461D460446D0F805
:1038BC0088305BB32423C4F888302268136823F063
:1038CC00010313602046FFF7E9FA01281DD0A36A13
:1038DC000BBB2268936843F480439360226893681F
:1038EC0023F400433B4393602D0445EA4652216880
:1038FC000B686FF3194313430B602268136843F092
:10390C00010313602046FFF73FFFF8BD80F88430B9
:10391C00FDF7F4F9CEE72046FFF71EFED9E70120AC
:10392C00704790F88430012B18D0012380F8843034
:10393C002423C0F8883003681A68196821F0010143
:10394C00196022F000520023436601680A602022AD
:10395C00C0F8882080F884301846704702207047E1
:10396C0038B590F88430012B1DD00446012380F823
:10397C0084302423C0F8883003681D681A6822F04C
:10398C0001021A600268936823F060431943916046
:10399C00FFF760FF23681D602023C4F888300020E7
:1039AC0084F8840038BD0220FCE738B590F88430E8
:1039BC00012B1DD00446012380F884302423C0F849
:1039CC00883003681D681A6822F001021A600268C8
:1039DC00936823F0606319439160FFF73BFF236802
:1039EC001D602023C4F88830002084F8840038BD82
:1039FC000220FCE72DE9F0471D46089ED0F88C30DC
:103A0C00202B40F0A38004460F469146002A18BF95
:103A1C00002901D101209AE00023C0F89030222225
:103A2C00C0F88C200122C2660367FDF73FFA80467E
:103A3C00A4F85C90A4F85E90A368B3F5805F06D000
:103A4C00A3B9226972B9FF22A4F8602014E022699C
:103A5C0022B940F2FF12A4F860200DE0FF22A4F876
:103A6C00602009E07F22A4F8602005E0B3F1805FBC
:103A7C000CD00022A4F86020B4F86090B3F5805FFD
:103A8C000ED04FF0000A00232B802AE022691AB9CD
:103A9C007F22A4F86020EFE73F22A4F86020EBE738
:103AAC00236913B14FF0000AEDE7BA460027EAE7A5
:103ABC00022323672023C4F88C30002047E05B6A84
:103ACC0009EA03032AF8023B2B8801332B80B4F854
:103ADC005E309BB2013B9BB2A4F85E30B6F1FF3F67
:103AEC001BD1B4F85E2092B222B32368DA6912F0CB
:103AFC00100F04D010221A622B88002BD8D1236807
:103B0C00DA6912F0200FE9D0002FD8D05A6A5FFA88
:103B1C0089F3134007F8013BD6E7FDF7C7F9A0EB93
:103B2C000800B04201D8002EDBD12023C4F88C3021
:103B3C0003200CE0B4F85C30B4F85E2092B29B1A0F
:103B4C002B802023C4F88C30002000E00220BDE83C
:103B5C00F08700004140C9B2024B33F8113083EAC0
:103B6C00102070472843000838B50C4604E014F8C0
:103B7C00011BFFF7EFFF2A46551E002AF7D138BD6F
:103B8C0038B5044611234361FE230370EE234370C2
:103B9C00056B00212846FCF73FFE38B94D492846F5
:103BAC00FCF758FE20B14B4B236301E00023236349
:103BBC00656B00212846FCF72FFE38B9454928468D
:103BCC00FCF748FE20B1434B636301E000236363C1
:103BDC00656A41492846FCF71FFE00285FD03E4B22
:103BEC006362A56A3D492846FCF716FE00285FD0A3
:103BFC003A4BA362E56A3A492846FCF70DFE0028C9
:103C0C005FD0374BE362228CA37862F30303A3707B
:103C1C00628CDBB262F30613A3703249206BFCF7A3
:103C2C0011FD4FF08E41FCF759FCFCF71DFEA4F87A
:103C3C000B002C49606BFCF705FD4FF08E41FCF737
:103C4C004DFCFCF711FEA4F80D002749E06AFCF7C7
:103C5C00F9FC4FF08E41FCF741FCFCF705FEC4F873
:103C6C0007002149A06AFCF7EDFC4FF08741FCF7F7
:103C7C0035FCFCF7F9FDA4F805004FF08741606AAC
:103C8C00FCF72CFCFCF7F0FDA4F803000F222146F6
:103C9C000020FFF769FFA4F80F00002038BD13497E
:103CAC002846FCF7D7FD00289BD0104B636298E7A1
:103CBC000F492846FCF7CEFD00289BD00C4BA36285
:103CCC0098E70C492846FCF7C5FD00289BD0094B0A
:103CDC00E36298E7C1CACC41E1FAFFC2000049C4D3
:103CEC00C00FC9C8CDCCCC41F90FC940E1FAFF4295
:103CFC0000004944C00FC94838B50446C5890E2296
:103D0C0001460020FFF730FF854202D000202062E0
:103D1C0038BDA378C3F3030284F82420C3F3021341
:103D2C0084F8253094F90B30A362237BC3F3020390
:103D3C0084F82C30B4F90500FCF77CFB4FF06E5185
:103D4C00FCF7CCFB1049FCF7C9FB6063B4F903002A
:103D5C00FCF770FB4FF06E51FCF7C0FB2063D4F8FE
:103D6C000700FCF767FB0849FCF7B8FB4FF0605104
:103D7C00FCF7B4FBA063A089C0F3CB00FCF756FBA7
:103D8C00E06301202062C3E7F90FC9402DE9F0413F
:103D9C0084B005460C464FF00008ADF80E80FFF7D6
:103DAC00EFFE1B4F012210213846FDF70FFA194E7A
:103DBC000A23112229463046FFF77EFC4246102189
:103DCC003846FDF703FA0A2300930DF10E03102277
:103DDC0021463046FFF70EFEBDF80E3093B1102B86
:103DEC0012D12378FE2B01D001200EE06378EE2B4C
:103DFC0001D0012009E0012323622046FFF77CFF5C
:103E0C00404602E0032000E0012004B0BDE8F08150
:103E1C00000C0258B80000242DE9F047089D0F460D
:103E2C0004468C46002B48D18A42164661D9B2FA18
:103E3C0082F34BB1C3F1200201FA03FC20FA02F227
:103E4C009E4042EA0C0C9C404FEA164EB7B2BCFBAB
:103E5C00FEF1220C0EFB11CC42EA0C4201FB07F0E6
:103E6C00904209D9B21801F1FF3C80F0EE809042EB
:103E7C0040F2EB8002393244121AA4B2B2FBFEF0CB
:103E8C000EFB102244EA024400FB07F7A74209D9B3
:103E9C00341900F1FF3280F0DA80A74240F2D7806B
:103EAC003444023840EA0140E41B00211DB1DC40DF
:103EBC000023C5E90043BDE8F0878B4206D90DB15C
:103ECC00C5E9000100210846BDE8F087B3FA83F18B
:103EDC00002948D1BB4202D3824200F20781841AE6
:103EEC0067EB030201209446002DE4D0C5E9004C99
:103EFC00E1E7002A00F09280B2FA82F3002B40F046
:103F0C00A8808A1A4FEA164E1FFA86FC0121200C53
:103F1C00B2FBFEF70EFB172240EA02420CFB07F045
:103F2C00904207D9B21807F1FF3802D2904200F242
:103F3C00E2804746121AA4B2B2FBFEF00EFB10222E
:103F4C0044EA02440CFB00FCA44507D9341900F1E7
:103F5C00FF3202D2A44500F2CB801046A4EB0C0435
:103F6C0040EA0740A2E7C1F120068B4022FA06FC8A
:103F7C004CEA030C07FA01F420FA06F3F7404FEA77
:103F8C001C49234300FA01F81FFA8CFEB7FBF9F029
:103F9C001C0C09FB107744EA074400FB0EF7A74200
:103FAC0002FA01F20AD91CEB040400F1FF3A80F08A
:103FBC009B80A74240F2988002386444E41B9FB275
:103FCC00B4FBF9F309FB134447EA044403FB0EFE6C
:103FDC00A64509D91CEB040403F1FF3780F082805D
:103FEC00A6457FD9023B644443EA0040A4EB0E048F
:103FFC00A0FB02E7BC427346B94663D360D05DB107
:10400C00B8EB030264EB090404FA06F622FA01F396
:10401C001E43CC40C5E9006400214CE76208480807
:10402C0042EAC1710B0C43EA00438AB242EA0342F2
:10403C00B3FBF6F1E407B4463746B6461F23B0FB94
:10404C00F6F0D21B41EA004161E7614614E71046E5
:10405C0028E7C3F1200120FA01F29E4027FA01F172
:10406C009F403A434FEA164E1FFA86FCB1FBFEF70F
:10407C000EFB1710110C41EA004107FB0CF88845A8
:10408C0004FA03F43AD9711807F1FF3001D28845CC
:10409C001FD8A1EB0801B1FBFEF808FB0CF70EFBD7
:1040AC00181192B242EA0142BA422FD2B21808F168
:1040BC00FF31C6D2BA42C4D2A8F102013244C0E7E1
:1040CC00F0459CD2BEEB020367EB0C070138B946F6
:1040DC0095E7A6EB08084144B81EB1FBFEF808FBB7
:1040EC000CF7DCE73B467FE7504667E70846FBE604
:1040FC003444023832E7023F32441BE7A1EB08019B
:10410C003846B1FBFEF808FB0CF7C8E7414698E7C8
:10411C00830730B546D08418844604E003F8011BAD
:10412C009D0704D09C46A4456346F7D130BD013AA7
:10413C000244A2EB0C02032A29D9CCB204EB0424CE
:10414C000F2A04EB04442FD9A2F1100C2CF00F0C05
:10415C0003F11005AC44C3E90044C3E90244103335
:10416C006345F8D112F00C0F02F00F0E18D02EF0A0
:10417C00030C9C44AEF104051A4642F8044B62450C
:10418C00FBD125F0030404330EF003022344002A70
:10419C00CCD0C9B21A4403F8011B9342FBD130BDF9
:1041AC007246F4E70346C6E79646E0E770B50F4B58
:1041BC000F4DAB42A3EB050607D0B610002455F803
:1041CC00043B01349847A642F9D800F07FF8094D1A
:1041DC00094B5E1BAB424FEAA60606D0002455F8ED
:1041EC00043B01349847A642F9D870BD304500080D
:1041FC00304500083045000838450008704700BFBE
:10420C00704700BF024B13B1024800F005B870476D
:10421C000000000031420008002301461A461846EF
:10422C0000F014B838B5074D074C2C1BA41005D062
:10423C00013C55F8043D9847002CF9D1BDE83840B5
:10424C0000F04AB83C450008384500082DE9F84311
:10425C001B4D0646286898460F469146FFF7CEFF41
:10426C00184B1C681CB3286865681F2D22DC4EB9DE
:10427C006B1C0235636044F82570FFF7C1FF00200A
:10428C00BDE8F88304EB85010123C1F88890D4F8CC
:10429C008821AB401A43022EC4F88821C1F808814A
:1042AC00E6D1D4F88C211A43C4F88C21E0E7064CF3
:1042BC001C60D8E7FFF7A4FF4FF0FF30E0E700BF2A
:1042CC00100000245401002458010024F8B500BF4C
:1042DC00F8BC08BC9E467047F8B500BFF8BC08BCDB
:0442EC009E46704733
:1042F000000000000102030401020304060708098C
:10430000010002000400060008000A000C00100072
:10431000200040008000000108040204080101019F
:1043200001010103070100000000891112239B32E3
:104330002446AD573665BF74488CC19D5AAFD3BE75
:104340006CCAE5DB7EE9F7F88110080193331A2285
:10435000A5562C47B7753E64C99C408DDBBF52AE55
:10436000EDDA64CBFFF976E802218B301002991365
:104370002667AF763444BD554AADC3BC588ED19F35
:104380006EEBE7FA7CC8F5D983310A209112180345
:10439000A7772E66B5543C45CBBD42ACD99E508F15
:1043A000EFFB66EAFDD874C904428D5316619F7015
:1043B0002004A9153227BB364CCEC5DF5EEDD7FCF5
:1043C0006888E1997AABF3BA85520C4397711E6005
:1043D000A1142805B3373A26CDDE44CFDFFD56ECD5
:1043E000E9986089FBBB72AA06638F7214409D51E5
:1043F0002225AB343006B9174EEFC7FE5CCCD5DDB5
:104400006AA9E3B8788AF19B87730E6295501C41C4
:10441000A3352A24B1163807CFFF46EEDDDC54CD94
:10442000EBB962A8F99A708B088481951AA793B6A4
:104430002CC2A5D33EE1B7F04008C919522BDB3A94
:10444000644EED5F766DFF7C899400859BB712A664
:10445000ADD224C3BFF136E0C1184809D33B5A2A74
:10446000E55E6C4FF77D7E6C0AA583B41886919744
:104470002EE3A7F23CC0B5D14229CB38500AD91B54
:10448000666FEF7E744CFD5D8BB502A49996108724
:10449000AFF326E2BDD034C1C3394A28D11A580B34
:1044A000E77F6E6EF55C7C4D0CC685D71EE597F4F4
:1044B0002880A1913AA3B3B2444ACD5B5669DF7814
:1044C000600CE91D722FFB3E8DD604C79FF516E4E4
:1044D000A9902081BBB332A2C55A4C4BD7795E68F4
:1044E000E11C680DF33F7A2E0EE787F61CC495D5C4
:1044F0002AA1A3B03882B193466BCF7A5448DD59D4
:10450000622DEB3C700EF91F8FF706E69DD414C5A3
:10451000ABB122A0B9923083C77B4E6AD5585C49B3
:08452000E33D6A2CF11E780F47
:08452800FCF8FF7F0100000018
:08453000114200089D0900087A
:0445380075090008F9
:10453C000090D0030090D003010000001000000098
:04454C0050010024F6
:0400000508000DA141
:00000001FF
